{
  "_format": "hh-sol-artifact-1",
  "contractName": "ForcaGame",
  "sourceName": "contracts/ForcaGame.sol",
  "abi": [
    {
      "inputs": [
        {
          "internalType": "address",
          "name": "_nftContract",
          "type": "address"
        },
        {
          "internalType": "address",
          "name": "_initialSigner",
          "type": "address"
        },
        {
          "internalType": "uint256",
          "name": "_entryFee",
          "type": "uint256"
        },
        {
          "internalType": "uint256",
          "name": "_maxReward",
          "type": "uint256"
        },
        {
          "internalType": "uint256",
          "name": "_maxWithdrawPerTx",
          "type": "uint256"
        }
      ],
      "stateMutability": "nonpayable",
      "type": "constructor"
    },
    {
      "inputs": [],
      "name": "ECDSAInvalidSignature",
      "type": "error"
    },
    {
      "inputs": [
        {
          "internalType": "uint256",
          "name": "length",
          "type": "uint256"
        }
      ],
      "name": "ECDSAInvalidSignatureLength",
      "type": "error"
    },
    {
      "inputs": [
        {
          "internalType": "bytes32",
          "name": "s",
          "type": "bytes32"
        }
      ],
      "name": "ECDSAInvalidSignatureS",
      "type": "error"
    },
    {
      "inputs": [],
      "name": "EnforcedPause",
      "type": "error"
    },
    {
      "inputs": [],
      "name": "ExpectedPause",
      "type": "error"
    },
    {
      "inputs": [
        {
          "internalType": "address",
          "name": "owner",
          "type": "address"
        }
      ],
      "name": "OwnableInvalidOwner",
      "type": "error"
    },
    {
      "inputs": [
        {
          "internalType": "address",
          "name": "account",
          "type": "address"
        }
      ],
      "name": "OwnableUnauthorizedAccount",
      "type": "error"
    },
    {
      "inputs": [],
      "name": "ReentrancyGuardReentrantCall",
      "type": "error"
    },
    {
      "anonymous": false,
      "inputs": [
        {
          "indexed": true,
          "internalType": "address",
          "name": "player",
          "type": "address"
        },
        {
          "indexed": false,
          "internalType": "bool",
          "name": "won",
          "type": "bool"
        },
        {
          "indexed": false,
          "internalType": "uint128",
          "name": "pointsEarned",
          "type": "uint128"
        },
        {
          "indexed": false,
          "internalType": "uint256",
          "name": "rewardAmount",
          "type": "uint256"
        }
      ],
      "name": "GameResult",
      "type": "event"
    },
    {
      "anonymous": false,
      "inputs": [
        {
          "indexed": true,
          "internalType": "address",
          "name": "player",
          "type": "address"
        }
      ],
      "name": "GameStarted",
      "type": "event"
    },
    {
      "anonymous": false,
      "inputs": [
        {
          "indexed": true,
          "internalType": "address",
          "name": "sender",
          "type": "address"
        },
        {
          "indexed": false,
          "internalType": "uint256",
          "name": "amount",
          "type": "uint256"
        },
        {
          "indexed": false,
          "internalType": "address",
          "name": "token",
          "type": "address"
        }
      ],
      "name": "LiquidityDeposited",
      "type": "event"
    },
    {
      "anonymous": false,
      "inputs": [
        {
          "indexed": true,
          "internalType": "uint256",
          "name": "tokenId",
          "type": "uint256"
        },
        {
          "indexed": false,
          "internalType": "uint16",
          "name": "multiplier",
          "type": "uint16"
        }
      ],
      "name": "NFTMultiplierUpdated",
      "type": "event"
    },
    {
      "anonymous": false,
      "inputs": [
        {
          "indexed": true,
          "internalType": "address",
          "name": "previousOwner",
          "type": "address"
        },
        {
          "indexed": true,
          "internalType": "address",
          "name": "newOwner",
          "type": "address"
        }
      ],
      "name": "OwnershipTransferred",
      "type": "event"
    },
    {
      "anonymous": false,
      "inputs": [
        {
          "indexed": false,
          "internalType": "address",
          "name": "account",
          "type": "address"
        }
      ],
      "name": "Paused",
      "type": "event"
    },
    {
      "anonymous": false,
      "inputs": [
        {
          "indexed": true,
          "internalType": "address",
          "name": "player",
          "type": "address"
        },
        {
          "indexed": false,
          "internalType": "uint128",
          "name": "newPoints",
          "type": "uint128"
        }
      ],
      "name": "PlayerPointsUpdated",
      "type": "event"
    },
    {
      "anonymous": false,
      "inputs": [
        {
          "indexed": true,
          "internalType": "address",
          "name": "player",
          "type": "address"
        }
      ],
      "name": "PlayerRegistered",
      "type": "event"
    },
    {
      "anonymous": false,
      "inputs": [
        {
          "indexed": true,
          "internalType": "address",
          "name": "signer",
          "type": "address"
        },
        {
          "indexed": false,
          "internalType": "bool",
          "name": "status",
          "type": "bool"
        }
      ],
      "name": "TrustedSignerUpdated",
      "type": "event"
    },
    {
      "anonymous": false,
      "inputs": [
        {
          "indexed": false,
          "internalType": "address",
          "name": "account",
          "type": "address"
        }
      ],
      "name": "Unpaused",
      "type": "event"
    },
    {
      "inputs": [],
      "name": "deposit",
      "outputs": [],
      "stateMutability": "payable",
      "type": "function"
    },
    {
      "inputs": [
        {
          "internalType": "bool",
          "name": "_won",
          "type": "bool"
        },
        {
          "internalType": "uint256",
          "name": "_wordLength",
          "type": "uint256"
        },
        {
          "internalType": "uint256",
          "name": "_tokenId",
          "type": "uint256"
        },
        {
          "internalType": "uint256",
          "name": "_finalPoints",
          "type": "uint256"
        },
        {
          "internalType": "uint256",
          "name": "_rewardAmount",
          "type": "uint256"
        },
        {
          "internalType": "bytes",
          "name": "_signature",
          "type": "bytes"
        }
      ],
      "name": "endGame",
      "outputs": [],
      "stateMutability": "nonpayable",
      "type": "function"
    },
    {
      "inputs": [],
      "name": "entryFee",
      "outputs": [
        {
          "internalType": "uint256",
          "name": "",
          "type": "uint256"
        }
      ],
      "stateMutability": "view",
      "type": "function"
    },
    {
      "inputs": [],
      "name": "getPlayerCount",
      "outputs": [
        {
          "internalType": "uint256",
          "name": "",
          "type": "uint256"
        }
      ],
      "stateMutability": "view",
      "type": "function"
    },
    {
      "inputs": [
        {
          "internalType": "address",
          "name": "_player",
          "type": "address"
        }
      ],
      "name": "getPlayerPoints",
      "outputs": [
        {
          "internalType": "uint256",
          "name": "",
          "type": "uint256"
        }
      ],
      "stateMutability": "view",
      "type": "function"
    },
    {
      "inputs": [],
      "name": "liquidityPool",
      "outputs": [
        {
          "internalType": "uint256",
          "name": "",
          "type": "uint256"
        }
      ],
      "stateMutability": "view",
      "type": "function"
    },
    {
      "inputs": [],
      "name": "maxReward",
      "outputs": [
        {
          "internalType": "uint256",
          "name": "",
          "type": "uint256"
        }
      ],
      "stateMutability": "view",
      "type": "function"
    },
    {
      "inputs": [],
      "name": "maxWithdrawPerTx",
      "outputs": [
        {
          "internalType": "uint256",
          "name": "",
          "type": "uint256"
        }
      ],
      "stateMutability": "view",
      "type": "function"
    },
    {
      "inputs": [],
      "name": "nftContract",
      "outputs": [
        {
          "internalType": "address",
          "name": "",
          "type": "address"
        }
      ],
      "stateMutability": "view",
      "type": "function"
    },
    {
      "inputs": [
        {
          "internalType": "uint256",
          "name": "",
          "type": "uint256"
        }
      ],
      "name": "nftMultipliers",
      "outputs": [
        {
          "internalType": "uint16",
          "name": "",
          "type": "uint16"
        }
      ],
      "stateMutability": "view",
      "type": "function"
    },
    {
      "inputs": [],
      "name": "owner",
      "outputs": [
        {
          "internalType": "address",
          "name": "",
          "type": "address"
        }
      ],
      "stateMutability": "view",
      "type": "function"
    },
    {
      "inputs": [],
      "name": "pause",
      "outputs": [],
      "stateMutability": "nonpayable",
      "type": "function"
    },
    {
      "inputs": [],
      "name": "paused",
      "outputs": [
        {
          "internalType": "bool",
          "name": "",
          "type": "bool"
        }
      ],
      "stateMutability": "view",
      "type": "function"
    },
    {
      "inputs": [
        {
          "internalType": "address",
          "name": "",
          "type": "address"
        }
      ],
      "name": "players",
      "outputs": [
        {
          "internalType": "uint128",
          "name": "points",
          "type": "uint128"
        },
        {
          "internalType": "uint32",
          "name": "gamesPlayed",
          "type": "uint32"
        },
        {
          "internalType": "bool",
          "name": "isPlaying",
          "type": "bool"
        },
        {
          "internalType": "uint64",
          "name": "nonce",
          "type": "uint64"
        }
      ],
      "stateMutability": "view",
      "type": "function"
    },
    {
      "inputs": [],
      "name": "renounceOwnership",
      "outputs": [],
      "stateMutability": "nonpayable",
      "type": "function"
    },
    {
      "inputs": [
        {
          "internalType": "uint256",
          "name": "_tokenId",
          "type": "uint256"
        },
        {
          "internalType": "uint16",
          "name": "_multiplier",
          "type": "uint16"
        }
      ],
      "name": "setNFTMultiplier",
      "outputs": [],
      "stateMutability": "nonpayable",
      "type": "function"
    },
    {
      "inputs": [
        {
          "internalType": "address",
          "name": "_signer",
          "type": "address"
        },
        {
          "internalType": "bool",
          "name": "_status",
          "type": "bool"
        }
      ],
      "name": "setTrustedSigner",
      "outputs": [],
      "stateMutability": "nonpayable",
      "type": "function"
    },
    {
      "inputs": [],
      "name": "startGame",
      "outputs": [],
      "stateMutability": "payable",
      "type": "function"
    },
    {
      "inputs": [
        {
          "internalType": "address",
          "name": "newOwner",
          "type": "address"
        }
      ],
      "name": "transferOwnership",
      "outputs": [],
      "stateMutability": "nonpayable",
      "type": "function"
    },
    {
      "inputs": [
        {
          "internalType": "address",
          "name": "",
          "type": "address"
        }
      ],
      "name": "trustedSigners",
      "outputs": [
        {
          "internalType": "bool",
          "name": "",
          "type": "bool"
        }
      ],
      "stateMutability": "view",
      "type": "function"
    },
    {
      "inputs": [],
      "name": "unpause",
      "outputs": [],
      "stateMutability": "nonpayable",
      "type": "function"
    },
    {
      "inputs": [
        {
          "internalType": "uint256",
          "name": "newEntryFee",
          "type": "uint256"
        }
      ],
      "name": "updateEntryFee",
      "outputs": [],
      "stateMutability": "nonpayable",
      "type": "function"
    },
    {
      "inputs": [
        {
          "internalType": "uint256",
          "name": "newMaxReward",
          "type": "uint256"
        }
      ],
      "name": "updateMaxReward",
      "outputs": [],
      "stateMutability": "nonpayable",
      "type": "function"
    },
    {
      "inputs": [
        {
          "internalType": "address payable",
          "name": "_to",
          "type": "address"
        },
        {
          "internalType": "uint256",
          "name": "_amount",
          "type": "uint256"
        }
      ],
      "name": "withdrawLiquidity",
      "outputs": [],
      "stateMutability": "nonpayable",
      "type": "function"
    },
    {
      "stateMutability": "payable",
      "type": "receive"
    }
  ],
  "bytecode": "0x60c06040523480156200001157600080fd5b5060405162001aa738038062001aa78339810160408190526200003491620002be565b33806200005c57604051631e4fbdf760e01b8152600060048201526024015b60405180910390fd5b620000678162000251565b50600180556001600160a01b038516620000c45760405162461bcd60e51b815260206004820152601460248201527f496e76616c6964204e465420636f6e7472616374000000000000000000000000604482015260640162000053565b6001600160a01b0384166200010d5760405162461bcd60e51b815260206004820152600e60248201526d24b73b30b634b21039b4b3b732b960911b604482015260640162000053565b600083116200014f5760405162461bcd60e51b815260206004820152600d60248201526c0456e74727920666565203e203609c1b604482015260640162000053565b60008211620001925760405162461bcd60e51b815260206004820152600e60248201526d04d617820726577617264203e20360941b604482015260640162000053565b60008111620001d75760405162461bcd60e51b815260206004820152601060248201526f04d6178207769746864726177203e20360841b604482015260640162000053565b6001600160a01b0385811660a0526002849055600383905560808290528416600081815260056020908152604091829020805460ff1916600190811790915591519182527faf5689dec9fb059a951122ef5f2e9363fe24220b8e21a048b3e65d590178cc50910160405180910390a2505050505062000311565b600080546001600160a01b038381166001600160a01b0319831681178455604051919092169283917f8be0079c531659141344cd1fd0a4f28419497f9722a3daafe3b4186f6b6457e09190a35050565b80516001600160a01b0381168114620002b957600080fd5b919050565b600080600080600060a08688031215620002d757600080fd5b620002e286620002a1565b9450620002f260208701620002a1565b6040870151606088015160809098015196999198509695945092505050565b60805160a051611762620003456000396000818161044c01526109050152600081816102ce015261060901526117626000f3fe60806040526004361061014f5760003560e01c80638da5cb5b116100b6578063d0e30db01161006f578063d0e30db014610432578063d56d229d1461043a578063d65ab5f21461046e578063e2eb41ff14610476578063f2fde38b14610517578063f77776881461053757600080fd5b80638da5cb5b14610346578063aa18262614610378578063bacf994614610398578063bc34ac1a146103b8578063c2890305146103f7578063c2e522061461041757600080fd5b80635c975abb116101085780635c975abb146102915780635d926ced146102bc578063665a11ca146102f057806366a78e6c14610306578063715018a61461031c5780638456cb591461033157600080fd5b806306d47de9146101ad578063072ea61c146101cf578063188f3953146101f857806338c3eb741461023c5780633f4ba83a1461025c578063466e37f01461027157600080fd5b366101a857346006600082825461016691906114ec565b9091555050604080513481526000602082015233917f60dcae248663be700e577f981d2ef1ce566cffc9a956e7098e1d185059644951910160405180910390a2005b600080fd5b3480156101b957600080fd5b506101cd6101c8366004611514565b610567565b005b3480156101db57600080fd5b506101e560025481565b6040519081526020015b60405180910390f35b34801561020457600080fd5b50610229610213366004611540565b60046020526000908152604090205461ffff1681565b60405161ffff90911681526020016101ef565b34801561024857600080fd5b506101cd61025736600461156e565b6106c0565b34801561026857600080fd5b506101cd610c79565b34801561027d57600080fd5b506101cd61028c366004611618565b610c8b565b34801561029d57600080fd5b50600054600160a01b900460ff165b60405190151581526020016101ef565b3480156102c857600080fd5b506101e57f000000000000000000000000000000000000000000000000000000000000000081565b3480156102fc57600080fd5b506101e560065481565b34801561031257600080fd5b506101e560035481565b34801561032857600080fd5b506101cd610d35565b34801561033d57600080fd5b506101cd610d47565b34801561035257600080fd5b506000546001600160a01b03165b6040516001600160a01b0390911681526020016101ef565b34801561038457600080fd5b506101cd610393366004611540565b610d57565b3480156103a457600080fd5b506101cd6103b336600461164f565b610da4565b3480156103c457600080fd5b506101e56103d3366004611684565b6001600160a01b03166000908152600760205260409020546001600160801b031690565b34801561040357600080fd5b506101cd610412366004611540565b610e4b565b34801561042357600080fd5b5060095463ffffffff166101e5565b6101cd610e99565b34801561044657600080fd5b506103607f000000000000000000000000000000000000000000000000000000000000000081565b6101cd610ef5565b34801561048257600080fd5b506104d8610491366004611684565b6007602052600090815260409020546001600160801b03811690600160801b810463ffffffff1690600160a01b810460ff1690600160a81b900467ffffffffffffffff1684565b604080516001600160801b03909516855263ffffffff90931660208501529015159183019190915267ffffffffffffffff1660608201526080016101ef565b34801561052357600080fd5b506101cd610532366004611684565b611103565b34801561054357600080fd5b506102ac610552366004611684565b60056020526000908152604090205460ff1681565b61056f611141565b61057761116e565b6001600160a01b0382166105c65760405162461bcd60e51b8152602060048201526011602482015270125b9d985b1a59081c9958da5c1a595b9d607a1b60448201526064015b60405180910390fd5b6006548111156106075760405162461bcd60e51b815260206004820152600c60248201526b115e18d959591cc81c1bdbdb60a21b60448201526064016105bd565b7f00000000000000000000000000000000000000000000000000000000000000008111156106655760405162461bcd60e51b815260206004820152600b60248201526a08af0c6cacac8e640dac2f60ab1b60448201526064016105bd565b806006600082825461067791906116a8565b90915550506040516001600160a01b0383169082156108fc029083906000818181858888f193505050501580156106b2573d6000803e3d6000fd5b506106bc60018055565b5050565b6106c8611198565b6106d061116e565b3360009081526007602052604090208054600160a01b900460ff166107215760405162461bcd60e51b81526020600482015260076024820152664e6f2067616d6560c81b60448201526064016105bd565b80546040513360601b6bffffffffffffffffffffffff1916602082015289151560f81b603482015260358101899052605581018890526075810187905260958101869052600160a81b90910460c01b6001600160c01b03191660b582015260009060bd016040516020818303038152906040528051906020012090506000816040516020016107dc91907f19457468657265756d205369676e6564204d6573736167653a0a3332000000008152601c810191909152603c0190565b604051602081830303815290604052805190602001209050600061083886868080601f01602080910402602001604051908101604052809392919081815260200183838082843760009201919091525086939250506111c39050565b6001600160a01b03811660009081526005602052604090205490915060ff166108945760405162461bcd60e51b815260206004820152600e60248201526d24b73b30b634b21039b4b3b732b960911b60448201526064016105bd565b60008b15610be5576003548811156108dd5760405162461bcd60e51b815260206004820152600c60248201526b0a4caeec2e4c8407c40dac2f60a31b60448201526064016105bd565b508789156109f8576040516331a9108f60e11b8152600481018b905233906001600160a01b037f00000000000000000000000000000000000000000000000000000000000000001690636352211e90602401602060405180830381865afa15801561094c573d6000803e3d6000fd5b505050506040513d601f19601f8201168201806040525081019061097091906116bb565b6001600160a01b0316146109b25760405162461bcd60e51b81526020600482015260096024820152682737ba1037bbb732b960b91b60448201526064016105bd565b60008a81526004602052604081205461ffff166109d05760016109e4565b60008b81526004602052604090205461ffff165b90506109f461ffff82168b6116d8565b9150505b87471015610a355760405162461bcd60e51b815260206004820152600a6024820152694e6f2062616c616e636560b01b60448201526064016105bd565b876006541015610a765760405162461bcd60e51b815260206004820152600c60248201526b4e6f206c697175696469747960a01b60448201526064016105bd565b8760066000828254610a8891906116a8565b909155505060405160009033906108fc908b9084818181858888f193505050503d8060008114610ad4576040519150601f19603f3d011682016040523d82523d6000602084013e610ad9565b606091505b5050905080610b1c5760405162461bcd60e51b815260206004820152600f60248201526e151c985b9cd9995c8819985a5b1959608a1b60448201526064016105bd565b855482908790600090610b399084906001600160801b03166116ef565b82546101009290920a6001600160801b038181021990931691831602179091556040805160018152918516602083015281018b90523391507f4d59455a33a940e7702df5d4c313d68a16c64fd9166f2abfb5a2c3a529cccf5e9060600160405180910390a285546040516001600160801b03909116815233907f04a009273ea559ecc920f03b6a9a7c4ab711bdc2c644118e53a7fcea6e438c859060200160405180910390a250610c29565b6040805160008082526020820181905281830152905133917f4d59455a33a940e7702df5d4c313d68a16c64fd9166f2abfb5a2c3a529cccf5e919081900360600190a25b5050825460ff60a01b19600167ffffffffffffffff600160a81b80850482169290920116021668ffffffffffffffffff60a01b199091161790925550610c70905060018055565b50505050505050565b610c81611141565b610c896111ef565b565b610c93611141565b60018161ffff161015610cda5760405162461bcd60e51b815260206004820152600f60248201526e4d756c7469706c696572203e3d203160881b60448201526064016105bd565b600082815260046020908152604091829020805461ffff191661ffff8516908117909155915191825283917fbf642335bc50fcdba6286610e87dc3cee095cbf1440ce78c525e770c9b8b519791015b60405180910390a25050565b610d3d611141565b610c896000611244565b610d4f611141565b610c89611294565b610d5f611141565b60008111610d9f5760405162461bcd60e51b815260206004820152600d60248201526c0456e74727920666565203e203609c1b60448201526064016105bd565b600255565b610dac611141565b6001600160a01b038216610df35760405162461bcd60e51b815260206004820152600e60248201526d24b73b30b634b21039b4b3b732b960911b60448201526064016105bd565b6001600160a01b038216600081815260056020908152604091829020805460ff191685151590811790915591519182527faf5689dec9fb059a951122ef5f2e9363fe24220b8e21a048b3e65d590178cc509101610d29565b610e53611141565b60008111610e945760405162461bcd60e51b815260206004820152600e60248201526d04d617820726577617264203e20360941b60448201526064016105bd565b600355565b610ea1611141565b3460066000828254610eb391906114ec565b9091555050604080513481526000602082015233917f60dcae248663be700e577f981d2ef1ce566cffc9a956e7098e1d185059644951910160405180910390a2565b610efd611198565b6002543414610f3e5760405162461bcd60e51b815260206004820152600d60248201526c496e636f72726563742066656560981b60448201526064016105bd565b33600090815260076020526040902054600160a01b900460ff1615610f8f5760405162461bcd60e51b8152602060048201526007602482015266506c6179696e6760c81b60448201526064016105bd565b33600090815260076020526040812080549091600160a81b90910467ffffffffffffffff169003610fd357805467ffffffffffffffff60a81b1916600160a81b1781555b805460ff60a01b19600163ffffffff600160801b80850482169290920116021664ffffffffff60801b1990911617600160a01b1781553360009081526008602052604090205460ff1661108357336000818152600860205260408082208054600160ff1990911681179091556009805463ffffffff19811663ffffffff91821690930116919091179055517f8cd3331e32cec677d80b82cf0f71496605e7ed6ff864a3ccedc7d5d11d838c839190a25b346006600082825461109591906114ec565b9091555050604080513481526000602082015233917f60dcae248663be700e577f981d2ef1ce566cffc9a956e7098e1d185059644951910160405180910390a260405133907f67cf7f1535e1c1323fe4e76266f7d55f0c1f67fdf449db65e014f9d35881514d90600090a250565b61110b611141565b6001600160a01b03811661113557604051631e4fbdf760e01b8152600060048201526024016105bd565b61113e81611244565b50565b6000546001600160a01b03163314610c895760405163118cdaa760e01b81523360048201526024016105bd565b60026001540361119157604051633ee5aeb560e01b815260040160405180910390fd5b6002600155565b600054600160a01b900460ff1615610c895760405163d93c066560e01b815260040160405180910390fd5b6000806000806111d386866112d7565b9250925092506111e38282611324565b50909150505b92915050565b6111f76113dd565b6000805460ff60a01b191690557f5db9ee0a495bf2e6ff9c91a7834c1ba4fdd244a5e8aa4e537bd38aeae4b073aa335b6040516001600160a01b03909116815260200160405180910390a1565b600080546001600160a01b038381166001600160a01b0319831681178455604051919092169283917f8be0079c531659141344cd1fd0a4f28419497f9722a3daafe3b4186f6b6457e09190a35050565b61129c611198565b6000805460ff60a01b1916600160a01b1790557f62e78cea01bee320cd4e420270b5ea74000d11b0c9f74754ebdbfc544b05a2586112273390565b600080600083516041036113115760208401516040850151606086015160001a61130388828585611407565b95509550955050505061131d565b50508151600091506002905b9250925092565b600082600381111561133857611338611716565b03611341575050565b600182600381111561135557611355611716565b036113735760405163f645eedf60e01b815260040160405180910390fd5b600282600381111561138757611387611716565b036113a85760405163fce698f760e01b8152600481018290526024016105bd565b60038260038111156113bc576113bc611716565b036106bc576040516335e2f38360e21b8152600481018290526024016105bd565b600054600160a01b900460ff16610c8957604051638dfc202b60e01b815260040160405180910390fd5b600080807f7fffffffffffffffffffffffffffffff5d576e7357a4501ddfe92f46681b20a084111561144257506000915060039050826114cc565b604080516000808252602082018084528a905260ff891692820192909252606081018790526080810186905260019060a0016020604051602081039080840390855afa158015611496573d6000803e3d6000fd5b5050604051601f1901519150506001600160a01b0381166114c2575060009250600191508290506114cc565b9250600091508190505b9450945094915050565b634e487b7160e01b600052601160045260246000fd5b808201808211156111e9576111e96114d6565b6001600160a01b038116811461113e57600080fd5b6000806040838503121561152757600080fd5b8235611532816114ff565b946020939093013593505050565b60006020828403121561155257600080fd5b5035919050565b8035801515811461156957600080fd5b919050565b600080600080600080600060c0888a03121561158957600080fd5b61159288611559565b96506020880135955060408801359450606088013593506080880135925060a088013567ffffffffffffffff808211156115cb57600080fd5b818a0191508a601f8301126115df57600080fd5b8135818111156115ee57600080fd5b8b602082850101111561160057600080fd5b60208301945080935050505092959891949750929550565b6000806040838503121561162b57600080fd5b82359150602083013561ffff8116811461164457600080fd5b809150509250929050565b6000806040838503121561166257600080fd5b823561166d816114ff565b915061167b60208401611559565b90509250929050565b60006020828403121561169657600080fd5b81356116a1816114ff565b9392505050565b818103818111156111e9576111e96114d6565b6000602082840312156116cd57600080fd5b81516116a1816114ff565b80820281158282048414176111e9576111e96114d6565b6001600160801b0381811683821601908082111561170f5761170f6114d6565b5092915050565b634e487b7160e01b600052602160045260246000fdfea2646970667358221220705d6c7068ce5b0aaa8c6b0aca324e29216741608a856bc6e8a159f8d375c2af64736f6c63430008140033",
  "linkReferences": {},
  "deployedLinkReferences": {}
}