{
  "_format": "hh-sol-artifact-1",
  "contractName": "ForcaGame",
  "sourceName": "contracts/ForcaGame.sol",
  "abi": [
    {
      "inputs": [],
      "stateMutability": "nonpayable",
      "type": "constructor"
    },
    {
      "inputs": [
        {
          "internalType": "address",
          "name": "owner",
          "type": "address"
        }
      ],
      "name": "OwnableInvalidOwner",
      "type": "error"
    },
    {
      "inputs": [
        {
          "internalType": "address",
          "name": "account",
          "type": "address"
        }
      ],
      "name": "OwnableUnauthorizedAccount",
      "type": "error"
    },
    {
      "anonymous": false,
      "inputs": [
        {
          "indexed": true,
          "internalType": "address",
          "name": "player",
          "type": "address"
        },
        {
          "indexed": false,
          "internalType": "bool",
          "name": "won",
          "type": "bool"
        },
        {
          "indexed": false,
          "internalType": "uint256",
          "name": "pointsEarned",
          "type": "uint256"
        }
      ],
      "name": "GameResult",
      "type": "event"
    },
    {
      "anonymous": false,
      "inputs": [
        {
          "indexed": true,
          "internalType": "address",
          "name": "player",
          "type": "address"
        }
      ],
      "name": "GameStarted",
      "type": "event"
    },
    {
      "anonymous": false,
      "inputs": [
        {
          "indexed": true,
          "internalType": "address",
          "name": "previousOwner",
          "type": "address"
        },
        {
          "indexed": true,
          "internalType": "address",
          "name": "newOwner",
          "type": "address"
        }
      ],
      "name": "OwnershipTransferred",
      "type": "event"
    },
    {
      "inputs": [],
      "name": "bonusPerDifficultyLevel",
      "outputs": [
        {
          "internalType": "uint256",
          "name": "",
          "type": "uint256"
        }
      ],
      "stateMutability": "view",
      "type": "function"
    },
    {
      "inputs": [],
      "name": "deposit",
      "outputs": [],
      "stateMutability": "payable",
      "type": "function"
    },
    {
      "inputs": [
        {
          "internalType": "bool",
          "name": "won",
          "type": "bool"
        },
        {
          "internalType": "uint256",
          "name": "wordLength",
          "type": "uint256"
        }
      ],
      "name": "endGame",
      "outputs": [],
      "stateMutability": "nonpayable",
      "type": "function"
    },
    {
      "inputs": [],
      "name": "entryFee",
      "outputs": [
        {
          "internalType": "uint256",
          "name": "",
          "type": "uint256"
        }
      ],
      "stateMutability": "view",
      "type": "function"
    },
    {
      "inputs": [],
      "name": "getEntryFee",
      "outputs": [
        {
          "internalType": "uint256",
          "name": "",
          "type": "uint256"
        }
      ],
      "stateMutability": "view",
      "type": "function"
    },
    {
      "inputs": [
        {
          "internalType": "uint256",
          "name": "limit",
          "type": "uint256"
        }
      ],
      "name": "getLeaderboard",
      "outputs": [
        {
          "internalType": "address[]",
          "name": "",
          "type": "address[]"
        },
        {
          "internalType": "uint256[]",
          "name": "",
          "type": "uint256[]"
        }
      ],
      "stateMutability": "view",
      "type": "function"
    },
    {
      "inputs": [],
      "name": "getPlayerCount",
      "outputs": [
        {
          "internalType": "uint256",
          "name": "",
          "type": "uint256"
        }
      ],
      "stateMutability": "view",
      "type": "function"
    },
    {
      "inputs": [
        {
          "internalType": "address",
          "name": "player",
          "type": "address"
        }
      ],
      "name": "getPlayerPoints",
      "outputs": [
        {
          "internalType": "uint256",
          "name": "",
          "type": "uint256"
        }
      ],
      "stateMutability": "view",
      "type": "function"
    },
    {
      "inputs": [],
      "name": "liquidityPool",
      "outputs": [
        {
          "internalType": "uint256",
          "name": "",
          "type": "uint256"
        }
      ],
      "stateMutability": "view",
      "type": "function"
    },
    {
      "inputs": [],
      "name": "owner",
      "outputs": [
        {
          "internalType": "address",
          "name": "",
          "type": "address"
        }
      ],
      "stateMutability": "view",
      "type": "function"
    },
    {
      "inputs": [
        {
          "internalType": "uint256",
          "name": "",
          "type": "uint256"
        }
      ],
      "name": "playerAddresses",
      "outputs": [
        {
          "internalType": "address",
          "name": "",
          "type": "address"
        }
      ],
      "stateMutability": "view",
      "type": "function"
    },
    {
      "inputs": [
        {
          "internalType": "address",
          "name": "",
          "type": "address"
        }
      ],
      "name": "players",
      "outputs": [
        {
          "internalType": "uint256",
          "name": "points",
          "type": "uint256"
        },
        {
          "internalType": "uint256",
          "name": "gamesPlayed",
          "type": "uint256"
        },
        {
          "internalType": "bool",
          "name": "isPlaying",
          "type": "bool"
        }
      ],
      "stateMutability": "view",
      "type": "function"
    },
    {
      "inputs": [],
      "name": "pointsPerLoss",
      "outputs": [
        {
          "internalType": "uint256",
          "name": "",
          "type": "uint256"
        }
      ],
      "stateMutability": "view",
      "type": "function"
    },
    {
      "inputs": [],
      "name": "pointsPerWin",
      "outputs": [
        {
          "internalType": "uint256",
          "name": "",
          "type": "uint256"
        }
      ],
      "stateMutability": "view",
      "type": "function"
    },
    {
      "inputs": [],
      "name": "renounceOwnership",
      "outputs": [],
      "stateMutability": "nonpayable",
      "type": "function"
    },
    {
      "inputs": [],
      "name": "rewardAmount",
      "outputs": [
        {
          "internalType": "uint256",
          "name": "",
          "type": "uint256"
        }
      ],
      "stateMutability": "view",
      "type": "function"
    },
    {
      "inputs": [],
      "name": "startGame",
      "outputs": [],
      "stateMutability": "payable",
      "type": "function"
    },
    {
      "inputs": [
        {
          "internalType": "address",
          "name": "newOwner",
          "type": "address"
        }
      ],
      "name": "transferOwnership",
      "outputs": [],
      "stateMutability": "nonpayable",
      "type": "function"
    },
    {
      "inputs": [
        {
          "internalType": "uint256",
          "name": "newBonus",
          "type": "uint256"
        }
      ],
      "name": "updateBonusPerDifficultyLevel",
      "outputs": [],
      "stateMutability": "nonpayable",
      "type": "function"
    },
    {
      "inputs": [
        {
          "internalType": "uint256",
          "name": "newFee",
          "type": "uint256"
        }
      ],
      "name": "updateEntryFee",
      "outputs": [],
      "stateMutability": "nonpayable",
      "type": "function"
    },
    {
      "inputs": [
        {
          "internalType": "uint256",
          "name": "newPoints",
          "type": "uint256"
        }
      ],
      "name": "updatePointsPerLoss",
      "outputs": [],
      "stateMutability": "nonpayable",
      "type": "function"
    },
    {
      "inputs": [
        {
          "internalType": "uint256",
          "name": "newPoints",
          "type": "uint256"
        }
      ],
      "name": "updatePointsPerWin",
      "outputs": [],
      "stateMutability": "nonpayable",
      "type": "function"
    },
    {
      "inputs": [
        {
          "internalType": "uint256",
          "name": "newAmount",
          "type": "uint256"
        }
      ],
      "name": "updateRewardAmount",
      "outputs": [],
      "stateMutability": "nonpayable",
      "type": "function"
    },
    {
      "inputs": [
        {
          "internalType": "address payable",
          "name": "to",
          "type": "address"
        },
        {
          "internalType": "uint256",
          "name": "amount",
          "type": "uint256"
        }
      ],
      "name": "withdrawLiquidity",
      "outputs": [],
      "stateMutability": "nonpayable",
      "type": "function"
    }
  ],
  "bytecode": "0x608060405267016345785d8a00006001556702c68af0bb140000600255600380556000600455600160055534801561003657600080fd5b5033600073ffffffffffffffffffffffffffffffffffffffff168173ffffffffffffffffffffffffffffffffffffffff16036100aa5760006040517f1e4fbdf70000000000000000000000000000000000000000000000000000000081526004016100a191906101c4565b60405180910390fd5b6100b9816100bf60201b60201c565b506101df565b60008060009054906101000a900473ffffffffffffffffffffffffffffffffffffffff169050816000806101000a81548173ffffffffffffffffffffffffffffffffffffffff021916908373ffffffffffffffffffffffffffffffffffffffff1602179055508173ffffffffffffffffffffffffffffffffffffffff168173ffffffffffffffffffffffffffffffffffffffff167f8be0079c531659141344cd1fd0a4f28419497f9722a3daafe3b4186f6b6457e060405160405180910390a35050565b600073ffffffffffffffffffffffffffffffffffffffff82169050919050565b60006101ae82610183565b9050919050565b6101be816101a3565b82525050565b60006020820190506101d960008301846101b5565b92915050565b611ec7806101ee6000396000f3fe60806040526004361061014b5760003560e01c8063a86c0357116100b6578063d65ab5f21161006f578063d65ab5f21461044c578063e2eb41ff14610456578063e586a4f014610495578063f2fde38b146104c0578063f50f3b50146104e9578063f7b2a7be146105125761014b565b8063a86c03571461035f578063aa18262614610388578063bc34ac1a146103b1578063c08a86b1146103ee578063c2e5220614610417578063d0e30db0146104425761014b565b8063715018a611610108578063715018a6146102605780637dc18847146102775780638da5cb5b146102a25780638fe13589146102cd5780639f69bc6a146102f8578063a34b46fe146103215761014b565b806306d47de914610150578063072ea61c1461017957806315c2ba14146101a457806315c6aee2146101cd5780632561b4721461020a578063665a11ca14610235575b600080fd5b34801561015c57600080fd5b506101776004803603810190610172919061171f565b61053d565b005b34801561018557600080fd5b5061018e6105ee565b60405161019b919061176e565b60405180910390f35b3480156101b057600080fd5b506101cb60048036038101906101c69190611789565b6105f4565b005b3480156101d957600080fd5b506101f460048036038101906101ef9190611789565b610606565b60405161020191906117d7565b60405180910390f35b34801561021657600080fd5b5061021f610645565b60405161022c919061176e565b60405180910390f35b34801561024157600080fd5b5061024a61064b565b604051610257919061176e565b60405180910390f35b34801561026c57600080fd5b50610275610651565b005b34801561028357600080fd5b5061028c610665565b604051610299919061176e565b60405180910390f35b3480156102ae57600080fd5b506102b761066b565b6040516102c491906117d7565b60405180910390f35b3480156102d957600080fd5b506102e2610694565b6040516102ef919061176e565b60405180910390f35b34801561030457600080fd5b5061031f600480360381019061031a9190611789565b61069a565b005b34801561032d57600080fd5b5061034860048036038101906103439190611789565b6106ac565b60405161035692919061196e565b60405180910390f35b34801561036b57600080fd5b5061038660048036038101906103819190611789565b610e4d565b005b34801561039457600080fd5b506103af60048036038101906103aa9190611789565b610e5f565b005b3480156103bd57600080fd5b506103d860048036038101906103d391906119d1565b610e71565b6040516103e5919061176e565b60405180910390f35b3480156103fa57600080fd5b5061041560048036038101906104109190611a36565b610ebd565b005b34801561042357600080fd5b5061042c6111c3565b604051610439919061176e565b60405180910390f35b61044a6111d0565b005b6104546111da565b005b34801561046257600080fd5b5061047d600480360381019061047891906119d1565b611454565b60405161048c93929190611a85565b60405180910390f35b3480156104a157600080fd5b506104aa61148b565b6040516104b7919061176e565b60405180910390f35b3480156104cc57600080fd5b506104e760048036038101906104e291906119d1565b611495565b005b3480156104f557600080fd5b50610510600480360381019061050b9190611789565b61151b565b005b34801561051e57600080fd5b5061052761152d565b604051610534919061176e565b60405180910390f35b610545611533565b60085481111561058a576040517f08c379a000000000000000000000000000000000000000000000000000000000815260040161058190611b19565b60405180910390fd5b806008600082825461059c9190611b68565b925050819055508173ffffffffffffffffffffffffffffffffffffffff166108fc829081150290604051600060405180830381858888f193505050501580156105e9573d6000803e3d6000fd5b505050565b60015481565b6105fc611533565b8060028190555050565b6007818154811061061657600080fd5b906000526020600020016000915054906101000a900473ffffffffffffffffffffffffffffffffffffffff1681565b60035481565b60085481565b610659611533565b61066360006115ba565b565b60045481565b60008060009054906101000a900473ffffffffffffffffffffffffffffffffffffffff16905090565b60055481565b6106a2611533565b8060048190555050565b606080600083600780549050116106c8576007805490506106ca565b835b905060008167ffffffffffffffff8111156106e8576106e7611b9c565b5b6040519080825280602002602001820160405280156107165781602001602082028036833780820191505090505b50905060008267ffffffffffffffff81111561073557610734611b9c565b5b6040519080825280602002602001820160405280156107635781602001602082028036833780820191505090505b509050600060078054905067ffffffffffffffff81111561078757610786611b9c565b5b6040519080825280602002602001820160405280156107b55781602001602082028036833780820191505090505b509050600060078054905067ffffffffffffffff8111156107d9576107d8611b9c565b5b6040519080825280602002602001820160405280156108075781602001602082028036833780820191505090505b509050600060078054905067ffffffffffffffff81111561082b5761082a611b9c565b5b6040519080825280602002602001820160405280156108595781602001602082028036833780820191505090505b50905060005b600780549050811015610a4557600781815481106108805761087f611bcb565b5b9060005260206000200160009054906101000a900473ffffffffffffffffffffffffffffffffffffffff168482815181106108be576108bd611bcb565b5b602002602001019073ffffffffffffffffffffffffffffffffffffffff16908173ffffffffffffffffffffffffffffffffffffffff168152505060066000600783815481106109105761090f611bcb565b5b9060005260206000200160009054906101000a900473ffffffffffffffffffffffffffffffffffffffff1673ffffffffffffffffffffffffffffffffffffffff1673ffffffffffffffffffffffffffffffffffffffff1681526020019081526020016000206000015483828151811061098c5761098b611bcb565b5b60200260200101818152505060066000600783815481106109b0576109af611bcb565b5b9060005260206000200160009054906101000a900473ffffffffffffffffffffffffffffffffffffffff1673ffffffffffffffffffffffffffffffffffffffff1673ffffffffffffffffffffffffffffffffffffffff16815260200190815260200160002060010154828281518110610a2c57610a2b611bcb565b5b602002602001018181525050808060010191505061085f565b5060005b8351811015610d805760005b6001828651610a649190611b68565b610a6e9190611b68565b811015610d725783600182610a839190611bfa565b81518110610a9457610a93611bcb565b5b6020026020010151848281518110610aaf57610aae611bcb565b5b60200260200101511080610b4d575083600182610acc9190611bfa565b81518110610add57610adc611bcb565b5b6020026020010151848281518110610af857610af7611bcb565b5b6020026020010151148015610b4c575082600182610b169190611bfa565b81518110610b2757610b26611bcb565b5b6020026020010151838281518110610b4257610b41611bcb565b5b6020026020010151115b5b15610d65576000848281518110610b6757610b66611bcb565b5b6020026020010151905084600183610b7f9190611bfa565b81518110610b9057610b8f611bcb565b5b6020026020010151858381518110610bab57610baa611bcb565b5b6020026020010181815250508085600184610bc69190611bfa565b81518110610bd757610bd6611bcb565b5b6020026020010181815250506000848381518110610bf857610bf7611bcb565b5b6020026020010151905084600184610c109190611bfa565b81518110610c2157610c20611bcb565b5b6020026020010151858481518110610c3c57610c3b611bcb565b5b6020026020010181815250508085600185610c579190611bfa565b81518110610c6857610c67611bcb565b5b6020026020010181815250506000878481518110610c8957610c88611bcb565b5b6020026020010151905087600185610ca19190611bfa565b81518110610cb257610cb1611bcb565b5b6020026020010151888581518110610ccd57610ccc611bcb565b5b602002602001019073ffffffffffffffffffffffffffffffffffffffff16908173ffffffffffffffffffffffffffffffffffffffff16815250508088600186610d169190611bfa565b81518110610d2757610d26611bcb565b5b602002602001019073ffffffffffffffffffffffffffffffffffffffff16908173ffffffffffffffffffffffffffffffffffffffff16815250505050505b8080600101915050610a55565b508080600101915050610a49565b5060005b86811015610e3b57838181518110610d9f57610d9e611bcb565b5b6020026020010151868281518110610dba57610db9611bcb565b5b602002602001019073ffffffffffffffffffffffffffffffffffffffff16908173ffffffffffffffffffffffffffffffffffffffff1681525050828181518110610e0757610e06611bcb565b5b6020026020010151858281518110610e2257610e21611bcb565b5b6020026020010181815250508080600101915050610d84565b50848497509750505050505050915091565b610e55611533565b8060058190555050565b610e67611533565b8060018190555050565b6000600660008373ffffffffffffffffffffffffffffffffffffffff1673ffffffffffffffffffffffffffffffffffffffff168152602001908152602001600020600001549050919050565b600660003373ffffffffffffffffffffffffffffffffffffffff1673ffffffffffffffffffffffffffffffffffffffff16815260200190815260200160002060020160009054906101000a900460ff16610f4c576040517f08c379a0000000000000000000000000000000000000000000000000000000008152600401610f4390611c7a565b60405180910390fd5b6000600660003373ffffffffffffffffffffffffffffffffffffffff1673ffffffffffffffffffffffffffffffffffffffff16815260200190815260200160002060020160006101000a81548160ff02191690831515021790555060008215611009576000600354905060006006841115610fd9576009841115610fd1576003610fd4565b60025b610fdc565b60015b60ff169050600060055482610ff19190611c9a565b90508083610fff9190611bfa565b935050505061100e565b600090505b80600660003373ffffffffffffffffffffffffffffffffffffffff1673ffffffffffffffffffffffffffffffffffffffff16815260200190815260200160002060000160008282546110609190611bfa565b925050819055508215611151576002544710156110b2576040517f08c379a00000000000000000000000000000000000000000000000000000000081526004016110a990611d28565b60405180910390fd5b3373ffffffffffffffffffffffffffffffffffffffff166108fc6002549081150290604051600060405180830381858888f193505050501580156110fa573d6000803e3d6000fd5b503373ffffffffffffffffffffffffffffffffffffffff167f917ed633130aae9351fcee877554607b5d2fa7a5c78c8f8c194b653d362aae22600183604051611144929190611d48565b60405180910390a26111be565b600154600860008282546111659190611bfa565b925050819055503373ffffffffffffffffffffffffffffffffffffffff167f917ed633130aae9351fcee877554607b5d2fa7a5c78c8f8c194b653d362aae226000836040516111b5929190611d48565b60405180910390a25b505050565b6000600780549050905090565b6111d8611533565b565b600154341461121e576040517f08c379a000000000000000000000000000000000000000000000000000000000815260040161121590611dbd565b60405180910390fd5b600660003373ffffffffffffffffffffffffffffffffffffffff1673ffffffffffffffffffffffffffffffffffffffff16815260200190815260200160002060020160009054906101000a900460ff16156112ae576040517f08c379a00000000000000000000000000000000000000000000000000000000081526004016112a590611e29565b60405180910390fd5b6000600660003373ffffffffffffffffffffffffffffffffffffffff1673ffffffffffffffffffffffffffffffffffffffff168152602001908152602001600020600101540361135c576007339080600181540180825580915050600190039060005260206000200160009091909190916101000a81548173ffffffffffffffffffffffffffffffffffffffff021916908373ffffffffffffffffffffffffffffffffffffffff1602179055505b600660003373ffffffffffffffffffffffffffffffffffffffff1673ffffffffffffffffffffffffffffffffffffffff16815260200190815260200160002060010160008154809291906113af90611e49565b91905055506001600660003373ffffffffffffffffffffffffffffffffffffffff1673ffffffffffffffffffffffffffffffffffffffff16815260200190815260200160002060020160006101000a81548160ff0219169083151502179055503373ffffffffffffffffffffffffffffffffffffffff167f67cf7f1535e1c1323fe4e76266f7d55f0c1f67fdf449db65e014f9d35881514d60405160405180910390a2565b60066020528060005260406000206000915090508060000154908060010154908060020160009054906101000a900460ff16905083565b6000600154905090565b61149d611533565b600073ffffffffffffffffffffffffffffffffffffffff168173ffffffffffffffffffffffffffffffffffffffff160361150f5760006040517f1e4fbdf700000000000000000000000000000000000000000000000000000000815260040161150691906117d7565b60405180910390fd5b611518816115ba565b50565b611523611533565b8060038190555050565b60025481565b61153b61167e565b73ffffffffffffffffffffffffffffffffffffffff1661155961066b565b73ffffffffffffffffffffffffffffffffffffffff16146115b85761157c61167e565b6040517f118cdaa70000000000000000000000000000000000000000000000000000000081526004016115af91906117d7565b60405180910390fd5b565b60008060009054906101000a900473ffffffffffffffffffffffffffffffffffffffff169050816000806101000a81548173ffffffffffffffffffffffffffffffffffffffff021916908373ffffffffffffffffffffffffffffffffffffffff1602179055508173ffffffffffffffffffffffffffffffffffffffff168173ffffffffffffffffffffffffffffffffffffffff167f8be0079c531659141344cd1fd0a4f28419497f9722a3daafe3b4186f6b6457e060405160405180910390a35050565b600033905090565b600080fd5b600073ffffffffffffffffffffffffffffffffffffffff82169050919050565b60006116b68261168b565b9050919050565b6116c6816116ab565b81146116d157600080fd5b50565b6000813590506116e3816116bd565b92915050565b6000819050919050565b6116fc816116e9565b811461170757600080fd5b50565b600081359050611719816116f3565b92915050565b6000806040838503121561173657611735611686565b5b6000611744858286016116d4565b92505060206117558582860161170a565b9150509250929050565b611768816116e9565b82525050565b6000602082019050611783600083018461175f565b92915050565b60006020828403121561179f5761179e611686565b5b60006117ad8482850161170a565b91505092915050565b60006117c18261168b565b9050919050565b6117d1816117b6565b82525050565b60006020820190506117ec60008301846117c8565b92915050565b600081519050919050565b600082825260208201905092915050565b6000819050602082019050919050565b611827816117b6565b82525050565b6000611839838361181e565b60208301905092915050565b6000602082019050919050565b600061185d826117f2565b61186781856117fd565b93506118728361180e565b8060005b838110156118a357815161188a888261182d565b975061189583611845565b925050600181019050611876565b5085935050505092915050565b600081519050919050565b600082825260208201905092915050565b6000819050602082019050919050565b6118e5816116e9565b82525050565b60006118f783836118dc565b60208301905092915050565b6000602082019050919050565b600061191b826118b0565b61192581856118bb565b9350611930836118cc565b8060005b8381101561196157815161194888826118eb565b975061195383611903565b925050600181019050611934565b5085935050505092915050565b600060408201905081810360008301526119888185611852565b9050818103602083015261199c8184611910565b90509392505050565b6119ae816117b6565b81146119b957600080fd5b50565b6000813590506119cb816119a5565b92915050565b6000602082840312156119e7576119e6611686565b5b60006119f5848285016119bc565b91505092915050565b60008115159050919050565b611a13816119fe565b8114611a1e57600080fd5b50565b600081359050611a3081611a0a565b92915050565b60008060408385031215611a4d57611a4c611686565b5b6000611a5b85828601611a21565b9250506020611a6c8582860161170a565b9150509250929050565b611a7f816119fe565b82525050565b6000606082019050611a9a600083018661175f565b611aa7602083018561175f565b611ab46040830184611a76565b949350505050565b600082825260208201905092915050565b7f4578636565647320706f6f6c0000000000000000000000000000000000000000600082015250565b6000611b03600c83611abc565b9150611b0e82611acd565b602082019050919050565b60006020820190508181036000830152611b3281611af6565b9050919050565b7f4e487b7100000000000000000000000000000000000000000000000000000000600052601160045260246000fd5b6000611b73826116e9565b9150611b7e836116e9565b9250828203905081811115611b9657611b95611b39565b5b92915050565b7f4e487b7100000000000000000000000000000000000000000000000000000000600052604160045260246000fd5b7f4e487b7100000000000000000000000000000000000000000000000000000000600052603260045260246000fd5b6000611c05826116e9565b9150611c10836116e9565b9250828201905080821115611c2857611c27611b39565b5b92915050565b7f4e6f206163746976652067616d6520666f7220706c6179657200000000000000600082015250565b6000611c64601983611abc565b9150611c6f82611c2e565b602082019050919050565b60006020820190508181036000830152611c9381611c57565b9050919050565b6000611ca5826116e9565b9150611cb0836116e9565b9250828202611cbe816116e9565b91508282048414831517611cd557611cd4611b39565b5b5092915050565b7f496e73756666696369656e7420636f6e74726163742062616c616e6365000000600082015250565b6000611d12601d83611abc565b9150611d1d82611cdc565b602082019050919050565b60006020820190508181036000830152611d4181611d05565b9050919050565b6000604082019050611d5d6000830185611a76565b611d6a602083018461175f565b9392505050565b7f496e636f727265637420656e7472792066656500000000000000000000000000600082015250565b6000611da7601383611abc565b9150611db282611d71565b602082019050919050565b60006020820190508181036000830152611dd681611d9a565b9050919050565b7f506c6179657220616c726561647920696e20612067616d650000000000000000600082015250565b6000611e13601883611abc565b9150611e1e82611ddd565b602082019050919050565b60006020820190508181036000830152611e4281611e06565b9050919050565b6000611e54826116e9565b91507fffffffffffffffffffffffffffffffffffffffffffffffffffffffffffffffff8203611e8657611e85611b39565b5b60018201905091905056fea264697066735822122021a77a6ad99c8a249192306ef0dcb7739bac4916287a0eb4d14b96b69bfe624564736f6c634300081c0033",
  "linkReferences": {},
  "deployedLinkReferences": {}
}