{
  "_format": "hh-sol-artifact-1",
  "contractName": "ForcaGame",
  "sourceName": "contracts/ForcaGame.sol",
  "abi": [
    {
      "inputs": [
        {
          "internalType": "address",
          "name": "_nftContract",
          "type": "address"
        },
        {
          "internalType": "address",
          "name": "_initialSigner",
          "type": "address"
        },
        {
          "internalType": "uint256",
          "name": "_entryFee",
          "type": "uint256"
        },
        {
          "internalType": "uint256",
          "name": "_rewardAmount",
          "type": "uint256"
        },
        {
          "internalType": "uint256",
          "name": "_maxWithdrawPerTx",
          "type": "uint256"
        }
      ],
      "stateMutability": "nonpayable",
      "type": "constructor"
    },
    {
      "inputs": [],
      "name": "ECDSAInvalidSignature",
      "type": "error"
    },
    {
      "inputs": [
        {
          "internalType": "uint256",
          "name": "length",
          "type": "uint256"
        }
      ],
      "name": "ECDSAInvalidSignatureLength",
      "type": "error"
    },
    {
      "inputs": [
        {
          "internalType": "bytes32",
          "name": "s",
          "type": "bytes32"
        }
      ],
      "name": "ECDSAInvalidSignatureS",
      "type": "error"
    },
    {
      "inputs": [],
      "name": "EnforcedPause",
      "type": "error"
    },
    {
      "inputs": [],
      "name": "ExpectedPause",
      "type": "error"
    },
    {
      "inputs": [
        {
          "internalType": "address",
          "name": "owner",
          "type": "address"
        }
      ],
      "name": "OwnableInvalidOwner",
      "type": "error"
    },
    {
      "inputs": [
        {
          "internalType": "address",
          "name": "account",
          "type": "address"
        }
      ],
      "name": "OwnableUnauthorizedAccount",
      "type": "error"
    },
    {
      "inputs": [],
      "name": "ReentrancyGuardReentrantCall",
      "type": "error"
    },
    {
      "anonymous": false,
      "inputs": [
        {
          "indexed": true,
          "internalType": "address",
          "name": "player",
          "type": "address"
        },
        {
          "indexed": false,
          "internalType": "bool",
          "name": "won",
          "type": "bool"
        },
        {
          "indexed": false,
          "internalType": "uint256",
          "name": "pointsEarned",
          "type": "uint256"
        }
      ],
      "name": "GameResult",
      "type": "event"
    },
    {
      "anonymous": false,
      "inputs": [
        {
          "indexed": true,
          "internalType": "address",
          "name": "player",
          "type": "address"
        }
      ],
      "name": "GameStarted",
      "type": "event"
    },
    {
      "anonymous": false,
      "inputs": [
        {
          "indexed": true,
          "internalType": "uint256",
          "name": "tokenId",
          "type": "uint256"
        },
        {
          "indexed": false,
          "internalType": "uint256",
          "name": "multiplier",
          "type": "uint256"
        }
      ],
      "name": "NFTMultiplierUpdated",
      "type": "event"
    },
    {
      "anonymous": false,
      "inputs": [
        {
          "indexed": true,
          "internalType": "address",
          "name": "previousOwner",
          "type": "address"
        },
        {
          "indexed": true,
          "internalType": "address",
          "name": "newOwner",
          "type": "address"
        }
      ],
      "name": "OwnershipTransferred",
      "type": "event"
    },
    {
      "anonymous": false,
      "inputs": [
        {
          "indexed": false,
          "internalType": "address",
          "name": "account",
          "type": "address"
        }
      ],
      "name": "Paused",
      "type": "event"
    },
    {
      "anonymous": false,
      "inputs": [
        {
          "indexed": true,
          "internalType": "address",
          "name": "player",
          "type": "address"
        },
        {
          "indexed": false,
          "internalType": "uint256",
          "name": "newPoints",
          "type": "uint256"
        }
      ],
      "name": "PlayerPointsUpdated",
      "type": "event"
    },
    {
      "anonymous": false,
      "inputs": [
        {
          "indexed": true,
          "internalType": "address",
          "name": "signer",
          "type": "address"
        },
        {
          "indexed": false,
          "internalType": "bool",
          "name": "status",
          "type": "bool"
        }
      ],
      "name": "TrustedSignerUpdated",
      "type": "event"
    },
    {
      "anonymous": false,
      "inputs": [
        {
          "indexed": false,
          "internalType": "address",
          "name": "account",
          "type": "address"
        }
      ],
      "name": "Unpaused",
      "type": "event"
    },
    {
      "inputs": [],
      "name": "deposit",
      "outputs": [],
      "stateMutability": "payable",
      "type": "function"
    },
    {
      "inputs": [
        {
          "internalType": "bool",
          "name": "_won",
          "type": "bool"
        },
        {
          "internalType": "uint256",
          "name": "_wordLength",
          "type": "uint256"
        },
        {
          "internalType": "uint256",
          "name": "_tokenId",
          "type": "uint256"
        },
        {
          "internalType": "uint256",
          "name": "_finalPoints",
          "type": "uint256"
        },
        {
          "internalType": "bytes",
          "name": "_signature",
          "type": "bytes"
        }
      ],
      "name": "endGame",
      "outputs": [],
      "stateMutability": "nonpayable",
      "type": "function"
    },
    {
      "inputs": [],
      "name": "entryFee",
      "outputs": [
        {
          "internalType": "uint256",
          "name": "",
          "type": "uint256"
        }
      ],
      "stateMutability": "view",
      "type": "function"
    },
    {
      "inputs": [],
      "name": "getPlayerCount",
      "outputs": [
        {
          "internalType": "uint256",
          "name": "",
          "type": "uint256"
        }
      ],
      "stateMutability": "view",
      "type": "function"
    },
    {
      "inputs": [
        {
          "internalType": "address",
          "name": "_player",
          "type": "address"
        }
      ],
      "name": "getPlayerPoints",
      "outputs": [
        {
          "internalType": "uint256",
          "name": "",
          "type": "uint256"
        }
      ],
      "stateMutability": "view",
      "type": "function"
    },
    {
      "inputs": [],
      "name": "liquidityPool",
      "outputs": [
        {
          "internalType": "uint256",
          "name": "",
          "type": "uint256"
        }
      ],
      "stateMutability": "view",
      "type": "function"
    },
    {
      "inputs": [],
      "name": "maxWithdrawPerTx",
      "outputs": [
        {
          "internalType": "uint256",
          "name": "",
          "type": "uint256"
        }
      ],
      "stateMutability": "view",
      "type": "function"
    },
    {
      "inputs": [],
      "name": "nftContract",
      "outputs": [
        {
          "internalType": "address",
          "name": "",
          "type": "address"
        }
      ],
      "stateMutability": "view",
      "type": "function"
    },
    {
      "inputs": [
        {
          "internalType": "uint256",
          "name": "",
          "type": "uint256"
        }
      ],
      "name": "nftMultipliers",
      "outputs": [
        {
          "internalType": "uint256",
          "name": "",
          "type": "uint256"
        }
      ],
      "stateMutability": "view",
      "type": "function"
    },
    {
      "inputs": [],
      "name": "owner",
      "outputs": [
        {
          "internalType": "address",
          "name": "",
          "type": "address"
        }
      ],
      "stateMutability": "view",
      "type": "function"
    },
    {
      "inputs": [],
      "name": "pause",
      "outputs": [],
      "stateMutability": "nonpayable",
      "type": "function"
    },
    {
      "inputs": [],
      "name": "paused",
      "outputs": [
        {
          "internalType": "bool",
          "name": "",
          "type": "bool"
        }
      ],
      "stateMutability": "view",
      "type": "function"
    },
    {
      "inputs": [
        {
          "internalType": "uint256",
          "name": "",
          "type": "uint256"
        }
      ],
      "name": "playerAddresses",
      "outputs": [
        {
          "internalType": "address",
          "name": "",
          "type": "address"
        }
      ],
      "stateMutability": "view",
      "type": "function"
    },
    {
      "inputs": [
        {
          "internalType": "address",
          "name": "",
          "type": "address"
        }
      ],
      "name": "players",
      "outputs": [
        {
          "internalType": "uint256",
          "name": "points",
          "type": "uint256"
        },
        {
          "internalType": "uint256",
          "name": "gamesPlayed",
          "type": "uint256"
        },
        {
          "internalType": "bool",
          "name": "isPlaying",
          "type": "bool"
        }
      ],
      "stateMutability": "view",
      "type": "function"
    },
    {
      "inputs": [],
      "name": "renounceOwnership",
      "outputs": [],
      "stateMutability": "nonpayable",
      "type": "function"
    },
    {
      "inputs": [],
      "name": "rewardAmount",
      "outputs": [
        {
          "internalType": "uint256",
          "name": "",
          "type": "uint256"
        }
      ],
      "stateMutability": "view",
      "type": "function"
    },
    {
      "inputs": [
        {
          "internalType": "uint256",
          "name": "_tokenId",
          "type": "uint256"
        },
        {
          "internalType": "uint256",
          "name": "_multiplier",
          "type": "uint256"
        }
      ],
      "name": "setNFTMultiplier",
      "outputs": [],
      "stateMutability": "nonpayable",
      "type": "function"
    },
    {
      "inputs": [
        {
          "internalType": "address",
          "name": "_signer",
          "type": "address"
        },
        {
          "internalType": "bool",
          "name": "_status",
          "type": "bool"
        }
      ],
      "name": "setTrustedSigner",
      "outputs": [],
      "stateMutability": "nonpayable",
      "type": "function"
    },
    {
      "inputs": [],
      "name": "startGame",
      "outputs": [],
      "stateMutability": "payable",
      "type": "function"
    },
    {
      "inputs": [
        {
          "internalType": "address",
          "name": "newOwner",
          "type": "address"
        }
      ],
      "name": "transferOwnership",
      "outputs": [],
      "stateMutability": "nonpayable",
      "type": "function"
    },
    {
      "inputs": [
        {
          "internalType": "address",
          "name": "",
          "type": "address"
        }
      ],
      "name": "trustedSigners",
      "outputs": [
        {
          "internalType": "bool",
          "name": "",
          "type": "bool"
        }
      ],
      "stateMutability": "view",
      "type": "function"
    },
    {
      "inputs": [],
      "name": "unpause",
      "outputs": [],
      "stateMutability": "nonpayable",
      "type": "function"
    },
    {
      "inputs": [
        {
          "internalType": "uint256",
          "name": "newEntryFee",
          "type": "uint256"
        }
      ],
      "name": "updateEntryFee",
      "outputs": [],
      "stateMutability": "nonpayable",
      "type": "function"
    },
    {
      "inputs": [
        {
          "internalType": "uint256",
          "name": "newRewardAmount",
          "type": "uint256"
        }
      ],
      "name": "updateRewardAmount",
      "outputs": [],
      "stateMutability": "nonpayable",
      "type": "function"
    },
    {
      "inputs": [
        {
          "internalType": "address payable",
          "name": "_to",
          "type": "address"
        },
        {
          "internalType": "uint256",
          "name": "_amount",
          "type": "uint256"
        }
      ],
      "name": "withdrawLiquidity",
      "outputs": [],
      "stateMutability": "nonpayable",
      "type": "function"
    },
    {
      "stateMutability": "payable",
      "type": "receive"
    }
  ],
  "bytecode": "0x60c060405234801561001057600080fd5b506040516130b73803806130b7833981810160405281019061003291906104d5565b33600073ffffffffffffffffffffffffffffffffffffffff168173ffffffffffffffffffffffffffffffffffffffff16036100a55760006040517f1e4fbdf700000000000000000000000000000000000000000000000000000000815260040161009c919061055f565b60405180910390fd5b6100b48161037860201b60201c565b5060008060146101000a81548160ff02191690831515021790555060018081905550600073ffffffffffffffffffffffffffffffffffffffff168573ffffffffffffffffffffffffffffffffffffffff1603610145576040517f08c379a000000000000000000000000000000000000000000000000000000000815260040161013c906105d7565b60405180910390fd5b600073ffffffffffffffffffffffffffffffffffffffff168473ffffffffffffffffffffffffffffffffffffffff16036101b4576040517f08c379a00000000000000000000000000000000000000000000000000000000081526004016101ab90610643565b60405180910390fd5b600083116101f7576040517f08c379a00000000000000000000000000000000000000000000000000000000081526004016101ee906106af565b60405180910390fd5b6000821161023a576040517f08c379a000000000000000000000000000000000000000000000000000000000815260040161023190610741565b60405180910390fd5b6000811161027d576040517f08c379a0000000000000000000000000000000000000000000000000000000008152600401610274906107d3565b60405180910390fd5b8473ffffffffffffffffffffffffffffffffffffffff1660a08173ffffffffffffffffffffffffffffffffffffffff1681525050826002819055508160038190555080608081815250506001600560008673ffffffffffffffffffffffffffffffffffffffff1673ffffffffffffffffffffffffffffffffffffffff16815260200190815260200160002060006101000a81548160ff0219169083151502179055508373ffffffffffffffffffffffffffffffffffffffff167faf5689dec9fb059a951122ef5f2e9363fe24220b8e21a048b3e65d590178cc506001604051610366919061080e565b60405180910390a25050505050610829565b60008060009054906101000a900473ffffffffffffffffffffffffffffffffffffffff169050816000806101000a81548173ffffffffffffffffffffffffffffffffffffffff021916908373ffffffffffffffffffffffffffffffffffffffff1602179055508173ffffffffffffffffffffffffffffffffffffffff168173ffffffffffffffffffffffffffffffffffffffff167f8be0079c531659141344cd1fd0a4f28419497f9722a3daafe3b4186f6b6457e060405160405180910390a35050565b600080fd5b600073ffffffffffffffffffffffffffffffffffffffff82169050919050565b600061046c82610441565b9050919050565b61047c81610461565b811461048757600080fd5b50565b60008151905061049981610473565b92915050565b6000819050919050565b6104b28161049f565b81146104bd57600080fd5b50565b6000815190506104cf816104a9565b92915050565b600080600080600060a086880312156104f1576104f061043c565b5b60006104ff8882890161048a565b95505060206105108882890161048a565b9450506040610521888289016104c0565b9350506060610532888289016104c0565b9250506080610543888289016104c0565b9150509295509295909350565b61055981610461565b82525050565b60006020820190506105746000830184610550565b92915050565b600082825260208201905092915050565b7f496e76616c6964204e465420636f6e7472616374206164647265737300000000600082015250565b60006105c1601c8361057a565b91506105cc8261058b565b602082019050919050565b600060208201905081810360008301526105f0816105b4565b9050919050565b7f496e76616c6964207369676e6572206164647265737300000000000000000000600082015250565b600061062d60168361057a565b9150610638826105f7565b602082019050919050565b6000602082019050818103600083015261065c81610620565b9050919050565b7f456e74727920666565206d7573742062652067726561746572207468616e2030600082015250565b600061069960208361057a565b91506106a482610663565b602082019050919050565b600060208201905081810360008301526106c88161068c565b9050919050565b7f52657761726420616d6f756e74206d757374206265206772656174657220746860008201527f616e203000000000000000000000000000000000000000000000000000000000602082015250565b600061072b60248361057a565b9150610736826106cf565b604082019050919050565b6000602082019050818103600083015261075a8161071e565b9050919050565b7f4d6178207769746864726177206d75737420626520677265617465722074686160008201527f6e20300000000000000000000000000000000000000000000000000000000000602082015250565b60006107bd60238361057a565b91506107c882610761565b604082019050919050565b600060208201905081810360008301526107ec816107b0565b9050919050565b60008115159050919050565b610808816107f3565b82525050565b600060208201905061082360008301846107ff565b92915050565b60805160a05161285b61085c60003960008181610c640152610f9e0152600081816106780152610821015261285b6000f3fe60806040526004361061016a5760003560e01c8063aa182626116100d1578063d56d229d1161008a578063f2d69fb511610064578063f2d69fb5146104f8578063f2fde38b14610521578063f77776881461054a578063f7b2a7be14610587576101aa565b8063d56d229d14610484578063d65ab5f2146104af578063e2eb41ff146104b9576101aa565b8063aa18262614610397578063bacf9946146103c0578063bc34ac1a146103e9578063c032180d14610426578063c2e522061461044f578063d0e30db01461047a576101aa565b80635c975abb116101235780635c975abb146102bd5780635d926ced146102e8578063665a11ca14610313578063715018a61461033e5780638456cb59146103555780638da5cb5b1461036c576101aa565b806306d47de9146101af578063072ea61c146101d857806315c2ba141461020357806315c6aee21461022c578063188f3953146102695780633f4ba83a146102a6576101aa565b366101aa576040517f08c379a00000000000000000000000000000000000000000000000000000000081526004016101a190611a5d565b60405180910390fd5b600080fd5b3480156101bb57600080fd5b506101d660048036038101906101d19190611b1b565b6105b2565b005b3480156101e457600080fd5b506101ed610745565b6040516101fa9190611b6a565b60405180910390f35b34801561020f57600080fd5b5061022a60048036038101906102259190611b85565b61074b565b005b34801561023857600080fd5b50610253600480360381019061024e9190611b85565b6107a0565b6040516102609190611bd3565b60405180910390f35b34801561027557600080fd5b50610290600480360381019061028b9190611b85565b6107df565b60405161029d9190611b6a565b60405180910390f35b3480156102b257600080fd5b506102bb6107f7565b005b3480156102c957600080fd5b506102d2610809565b6040516102df9190611c09565b60405180910390f35b3480156102f457600080fd5b506102fd61081f565b60405161030a9190611b6a565b60405180910390f35b34801561031f57600080fd5b50610328610843565b6040516103359190611b6a565b60405180910390f35b34801561034a57600080fd5b50610353610849565b005b34801561036157600080fd5b5061036a61085d565b005b34801561037857600080fd5b5061038161086f565b60405161038e9190611bd3565b60405180910390f35b3480156103a357600080fd5b506103be60048036038101906103b99190611b85565b610898565b005b3480156103cc57600080fd5b506103e760048036038101906103e29190611c7c565b6108ed565b005b3480156103f557600080fd5b50610410600480360381019061040b9190611cbc565b610a0d565b60405161041d9190611b6a565b60405180910390f35b34801561043257600080fd5b5061044d60048036038101906104489190611d4e565b610a59565b005b34801561045b57600080fd5b50610464610f6f565b6040516104719190611b6a565b60405180910390f35b610482610f79565b005b34801561049057600080fd5b50610499610f9c565b6040516104a69190611bd3565b60405180910390f35b6104b7610fc0565b005b3480156104c557600080fd5b506104e060048036038101906104db9190611cbc565b611285565b6040516104ef93929190611de8565b60405180910390f35b34801561050457600080fd5b5061051f600480360381019061051a9190611e1f565b6112bc565b005b34801561052d57600080fd5b5061054860048036038101906105439190611cbc565b61135c565b005b34801561055657600080fd5b50610571600480360381019061056c9190611cbc565b6113e2565b60405161057e9190611c09565b60405180910390f35b34801561059357600080fd5b5061059c611402565b6040516105a99190611b6a565b60405180910390f35b6105ba611408565b6105c261148f565b600073ffffffffffffffffffffffffffffffffffffffff168273ffffffffffffffffffffffffffffffffffffffff1603610631576040517f08c379a000000000000000000000000000000000000000000000000000000000815260040161062890611eab565b60405180910390fd5b600654811115610676576040517f08c379a000000000000000000000000000000000000000000000000000000000815260040161066d90611f17565b60405180910390fd5b7f00000000000000000000000000000000000000000000000000000000000000008111156106d9576040517f08c379a00000000000000000000000000000000000000000000000000000000081526004016106d090611f83565b60405180910390fd5b80600660008282546106eb9190611fd2565b925050819055508173ffffffffffffffffffffffffffffffffffffffff166108fc829081150290604051600060405180830381858888f19350505050158015610738573d6000803e3d6000fd5b506107416114d5565b5050565b60025481565b610753611408565b60008111610796576040517f08c379a000000000000000000000000000000000000000000000000000000000815260040161078d90612078565b60405180910390fd5b8060038190555050565b600a81815481106107b057600080fd5b906000526020600020016000915054906101000a900473ffffffffffffffffffffffffffffffffffffffff1681565b60046020528060005260406000206000915090505481565b6107ff611408565b6108076114de565b565b60008060149054906101000a900460ff16905090565b7f000000000000000000000000000000000000000000000000000000000000000081565b60065481565b610851611408565b61085b6000611540565b565b610865611408565b61086d611604565b565b60008060009054906101000a900473ffffffffffffffffffffffffffffffffffffffff16905090565b6108a0611408565b600081116108e3576040517f08c379a00000000000000000000000000000000000000000000000000000000081526004016108da906120e4565b60405180910390fd5b8060028190555050565b6108f5611408565b600073ffffffffffffffffffffffffffffffffffffffff168273ffffffffffffffffffffffffffffffffffffffff1603610964576040517f08c379a000000000000000000000000000000000000000000000000000000000815260040161095b90612150565b60405180910390fd5b80600560008473ffffffffffffffffffffffffffffffffffffffff1673ffffffffffffffffffffffffffffffffffffffff16815260200190815260200160002060006101000a81548160ff0219169083151502179055508173ffffffffffffffffffffffffffffffffffffffff167faf5689dec9fb059a951122ef5f2e9363fe24220b8e21a048b3e65d590178cc5082604051610a019190611c09565b60405180910390a25050565b6000600760008373ffffffffffffffffffffffffffffffffffffffff1673ffffffffffffffffffffffffffffffffffffffff168152602001908152602001600020600001549050919050565b610a61611667565b610a6961148f565b6000600760003373ffffffffffffffffffffffffffffffffffffffff1673ffffffffffffffffffffffffffffffffffffffff16815260200190815260200160002090508060020160009054906101000a900460ff16610afd576040517f08c379a0000000000000000000000000000000000000000000000000000000008152600401610af4906121bc565b60405180910390fd5b60008160020160006101000a81548160ff02191690831515021790555060003388888888604051602001610b3595949392919061228d565b6040516020818303038152906040528051906020012090506000610b58826116a8565b90506000610baa8287878080601f016020809104026020016040519081016040528093929190818152602001838380828437600081840152601f19601f820116905080830192505050505050506116d8565b9050600560008273ffffffffffffffffffffffffffffffffffffffff1673ffffffffffffffffffffffffffffffffffffffff16815260200190815260200160002060009054906101000a900460ff16610c38576040517f08c379a0000000000000000000000000000000000000000000000000000000008152600401610c2f90612338565b60405180910390fd5b60008a15610eed5787905060008914610d9c573373ffffffffffffffffffffffffffffffffffffffff167f000000000000000000000000000000000000000000000000000000000000000073ffffffffffffffffffffffffffffffffffffffff16636352211e8b6040518263ffffffff1660e01b8152600401610cbb9190611b6a565b602060405180830381865afa158015610cd8573d6000803e3d6000fd5b505050506040513d601f19601f82011682018060405250810190610cfc919061236d565b73ffffffffffffffffffffffffffffffffffffffff1614610d52576040517f08c379a0000000000000000000000000000000000000000000000000000000008152600401610d49906123e6565b60405180910390fd5b600080600460008c81526020019081526020016000205411610d75576001610d8a565b600460008b8152602001908152602001600020545b90508089610d989190612406565b9150505b600354471015610de1576040517f08c379a0000000000000000000000000000000000000000000000000000000008152600401610dd890612494565b60405180910390fd5b3373ffffffffffffffffffffffffffffffffffffffff166108fc6003549081150290604051600060405180830381858888f19350505050158015610e29573d6000803e3d6000fd5b5080856000016000828254610e3e91906124b4565b925050819055503373ffffffffffffffffffffffffffffffffffffffff167f917ed633130aae9351fcee877554607b5d2fa7a5c78c8f8c194b653d362aae22600183604051610e8e9291906124e8565b60405180910390a23373ffffffffffffffffffffffffffffffffffffffff167f75899f3058a77f647161104fad6f3a20752e2888c0c6291ccbe9e4fd03d9ce6c8660000154604051610ee09190611b6a565b60405180910390a2610f3f565b3373ffffffffffffffffffffffffffffffffffffffff167f917ed633130aae9351fcee877554607b5d2fa7a5c78c8f8c194b653d362aae22600080604051610f36929190612556565b60405180910390a25b60025460066000828254610f5391906124b4565b925050819055505050505050610f676114d5565b505050505050565b6000600954905090565b610f81611408565b3460066000828254610f9391906124b4565b92505081905550565b7f000000000000000000000000000000000000000000000000000000000000000081565b610fc8611667565b600254341461100c576040517f08c379a0000000000000000000000000000000000000000000000000000000008152600401611003906125cb565b60405180910390fd5b600760003373ffffffffffffffffffffffffffffffffffffffff1673ffffffffffffffffffffffffffffffffffffffff16815260200190815260200160002060020160009054906101000a900460ff161561109c576040517f08c379a000000000000000000000000000000000000000000000000000000000815260040161109390612637565b60405180910390fd5b6000600760003373ffffffffffffffffffffffffffffffffffffffff1673ffffffffffffffffffffffffffffffffffffffff168152602001908152602001600020905060018160010160008282546110f491906124b4565b9250508190555060018160020160006101000a81548160ff021916908315150217905550600860003373ffffffffffffffffffffffffffffffffffffffff1673ffffffffffffffffffffffffffffffffffffffff16815260200190815260200160002060009054906101000a900460ff1661123f576001600860003373ffffffffffffffffffffffffffffffffffffffff1673ffffffffffffffffffffffffffffffffffffffff16815260200190815260200160002060006101000a81548160ff0219169083151502179055506001600960008282546111d491906124b4565b92505081905550600a339080600181540180825580915050600190039060005260206000200160009091909190916101000a81548173ffffffffffffffffffffffffffffffffffffffff021916908373ffffffffffffffffffffffffffffffffffffffff1602179055505b3373ffffffffffffffffffffffffffffffffffffffff167f67cf7f1535e1c1323fe4e76266f7d55f0c1f67fdf449db65e014f9d35881514d60405160405180910390a250565b60076020528060005260406000206000915090508060000154908060010154908060020160009054906101000a900460ff16905083565b6112c4611408565b6001811015611308576040517f08c379a00000000000000000000000000000000000000000000000000000000081526004016112ff906126a3565b60405180910390fd5b806004600084815260200190815260200160002081905550817f1edb1ef721d78175cbca1dd29f9519a7b462e73da9b733d54c6f25d9bbe935f9826040516113509190611b6a565b60405180910390a25050565b611364611408565b600073ffffffffffffffffffffffffffffffffffffffff168173ffffffffffffffffffffffffffffffffffffffff16036113d65760006040517f1e4fbdf70000000000000000000000000000000000000000000000000000000081526004016113cd9190611bd3565b60405180910390fd5b6113df81611540565b50565b60056020528060005260406000206000915054906101000a900460ff1681565b60035481565b611410611704565b73ffffffffffffffffffffffffffffffffffffffff1661142e61086f565b73ffffffffffffffffffffffffffffffffffffffff161461148d57611451611704565b6040517f118cdaa70000000000000000000000000000000000000000000000000000000081526004016114849190611bd3565b60405180910390fd5b565b6002600154036114cb576040517f3ee5aeb500000000000000000000000000000000000000000000000000000000815260040160405180910390fd5b6002600181905550565b60018081905550565b6114e661170c565b60008060146101000a81548160ff0219169083151502179055507f5db9ee0a495bf2e6ff9c91a7834c1ba4fdd244a5e8aa4e537bd38aeae4b073aa611529611704565b6040516115369190611bd3565b60405180910390a1565b60008060009054906101000a900473ffffffffffffffffffffffffffffffffffffffff169050816000806101000a81548173ffffffffffffffffffffffffffffffffffffffff021916908373ffffffffffffffffffffffffffffffffffffffff1602179055508173ffffffffffffffffffffffffffffffffffffffff168173ffffffffffffffffffffffffffffffffffffffff167f8be0079c531659141344cd1fd0a4f28419497f9722a3daafe3b4186f6b6457e060405160405180910390a35050565b61160c611667565b6001600060146101000a81548160ff0219169083151502179055507f62e78cea01bee320cd4e420270b5ea74000d11b0c9f74754ebdbfc544b05a258611650611704565b60405161165d9190611bd3565b60405180910390a1565b61166f610809565b156116a6576040517fd93c066500000000000000000000000000000000000000000000000000000000815260040160405180910390fd5b565b6000816040516020016116bb9190612745565b604051602081830303815290604052805190602001209050919050565b6000806000806116e8868661174c565b9250925092506116f882826117a8565b82935050505092915050565b600033905090565b611714610809565b61174a576040517f8dfc202b00000000000000000000000000000000000000000000000000000000815260040160405180910390fd5b565b600080600060418451036117915760008060006020870151925060408701519150606087015160001a90506117838882858561190c565b9550955095505050506117a1565b60006002855160001b9250925092505b9250925092565b600060038111156117bc576117bb61276b565b5b8260038111156117cf576117ce61276b565b5b031561190857600160038111156117e9576117e861276b565b5b8260038111156117fc576117fb61276b565b5b03611833576040517ff645eedf00000000000000000000000000000000000000000000000000000000815260040160405180910390fd5b600260038111156118475761184661276b565b5b82600381111561185a5761185961276b565b5b0361189f578060001c6040517ffce698f70000000000000000000000000000000000000000000000000000000081526004016118969190611b6a565b60405180910390fd5b6003808111156118b2576118b161276b565b5b8260038111156118c5576118c461276b565b5b0361190757806040517fd78bce0c0000000000000000000000000000000000000000000000000000000081526004016118fe91906127a9565b60405180910390fd5b5b5050565b60008060007f7fffffffffffffffffffffffffffffff5d576e7357a4501ddfe92f46681b20a08460001c111561194c5760006003859250925092506119f6565b60006001888888886040516000815260200160405260405161197194939291906127e0565b6020604051602081039080840390855afa158015611993573d6000803e3d6000fd5b505050602060405103519050600073ffffffffffffffffffffffffffffffffffffffff168173ffffffffffffffffffffffffffffffffffffffff16036119e757600060016000801b935093509350506119f6565b8060008060001b935093509350505b9450945094915050565b600082825260208201905092915050565b7f44697265637420455448207472616e7366657273206e6f7420616c6c6f776564600082015250565b6000611a47602083611a00565b9150611a5282611a11565b602082019050919050565b60006020820190508181036000830152611a7681611a3a565b9050919050565b600080fd5b600080fd5b600073ffffffffffffffffffffffffffffffffffffffff82169050919050565b6000611ab282611a87565b9050919050565b611ac281611aa7565b8114611acd57600080fd5b50565b600081359050611adf81611ab9565b92915050565b6000819050919050565b611af881611ae5565b8114611b0357600080fd5b50565b600081359050611b1581611aef565b92915050565b60008060408385031215611b3257611b31611a7d565b5b6000611b4085828601611ad0565b9250506020611b5185828601611b06565b9150509250929050565b611b6481611ae5565b82525050565b6000602082019050611b7f6000830184611b5b565b92915050565b600060208284031215611b9b57611b9a611a7d565b5b6000611ba984828501611b06565b91505092915050565b6000611bbd82611a87565b9050919050565b611bcd81611bb2565b82525050565b6000602082019050611be86000830184611bc4565b92915050565b60008115159050919050565b611c0381611bee565b82525050565b6000602082019050611c1e6000830184611bfa565b92915050565b611c2d81611bb2565b8114611c3857600080fd5b50565b600081359050611c4a81611c24565b92915050565b611c5981611bee565b8114611c6457600080fd5b50565b600081359050611c7681611c50565b92915050565b60008060408385031215611c9357611c92611a7d565b5b6000611ca185828601611c3b565b9250506020611cb285828601611c67565b9150509250929050565b600060208284031215611cd257611cd1611a7d565b5b6000611ce084828501611c3b565b91505092915050565b600080fd5b600080fd5b600080fd5b60008083601f840112611d0e57611d0d611ce9565b5b8235905067ffffffffffffffff811115611d2b57611d2a611cee565b5b602083019150836001820283011115611d4757611d46611cf3565b5b9250929050565b60008060008060008060a08789031215611d6b57611d6a611a7d565b5b6000611d7989828a01611c67565b9650506020611d8a89828a01611b06565b9550506040611d9b89828a01611b06565b9450506060611dac89828a01611b06565b935050608087013567ffffffffffffffff811115611dcd57611dcc611a82565b5b611dd989828a01611cf8565b92509250509295509295509295565b6000606082019050611dfd6000830186611b5b565b611e0a6020830185611b5b565b611e176040830184611bfa565b949350505050565b60008060408385031215611e3657611e35611a7d565b5b6000611e4485828601611b06565b9250506020611e5585828601611b06565b9150509250929050565b7f496e76616c696420726563697069656e74000000000000000000000000000000600082015250565b6000611e95601183611a00565b9150611ea082611e5f565b602082019050919050565b60006020820190508181036000830152611ec481611e88565b9050919050565b7f45786365656473206c697175696469747920706f6f6c00000000000000000000600082015250565b6000611f01601683611a00565b9150611f0c82611ecb565b602082019050919050565b60006020820190508181036000830152611f3081611ef4565b9050919050565b7f45786365656473206d6178207769746864726177616c20706572207478000000600082015250565b6000611f6d601d83611a00565b9150611f7882611f37565b602082019050919050565b60006020820190508181036000830152611f9c81611f60565b9050919050565b7f4e487b7100000000000000000000000000000000000000000000000000000000600052601160045260246000fd5b6000611fdd82611ae5565b9150611fe883611ae5565b925082820390508181111561200057611fff611fa3565b5b92915050565b7f52657761726420616d6f756e74206d757374206265206772656174657220746860008201527f616e203000000000000000000000000000000000000000000000000000000000602082015250565b6000612062602483611a00565b915061206d82612006565b604082019050919050565b6000602082019050818103600083015261209181612055565b9050919050565b7f456e74727920666565206d7573742062652067726561746572207468616e2030600082015250565b60006120ce602083611a00565b91506120d982612098565b602082019050919050565b600060208201905081810360008301526120fd816120c1565b9050919050565b7f496e76616c6964207369676e6572206164647265737300000000000000000000600082015250565b600061213a601683611a00565b915061214582612104565b602082019050919050565b600060208201905081810360008301526121698161212d565b9050919050565b7f4e6f206163746976652067616d65000000000000000000000000000000000000600082015250565b60006121a6600e83611a00565b91506121b182612170565b602082019050919050565b600060208201905081810360008301526121d581612199565b9050919050565b60008160601b9050919050565b60006121f4826121dc565b9050919050565b6000612206826121e9565b9050919050565b61221e61221982611bb2565b6121fb565b82525050565b60008160f81b9050919050565b600061223c82612224565b9050919050565b600061224e82612231565b9050919050565b61226661226182611bee565b612243565b82525050565b6000819050919050565b61228761228282611ae5565b61226c565b82525050565b6000612299828861220d565b6014820191506122a98287612255565b6001820191506122b98286612276565b6020820191506122c98285612276565b6020820191506122d98284612276565b6020820191508190509695505050505050565b7f496e76616c6964207369676e6572000000000000000000000000000000000000600082015250565b6000612322600e83611a00565b915061232d826122ec565b602082019050919050565b6000602082019050818103600083015261235181612315565b9050919050565b60008151905061236781611c24565b92915050565b60006020828403121561238357612382611a7d565b5b600061239184828501612358565b91505092915050565b7f4e6f74204e4654206f776e657200000000000000000000000000000000000000600082015250565b60006123d0600d83611a00565b91506123db8261239a565b602082019050919050565b600060208201905081810360008301526123ff816123c3565b9050919050565b600061241182611ae5565b915061241c83611ae5565b925082820261242a81611ae5565b9150828204841483151761244157612440611fa3565b5b5092915050565b7f496e73756666696369656e7420636f6e74726163742062616c616e6365000000600082015250565b600061247e601d83611a00565b915061248982612448565b602082019050919050565b600060208201905081810360008301526124ad81612471565b9050919050565b60006124bf82611ae5565b91506124ca83611ae5565b92508282019050808211156124e2576124e1611fa3565b5b92915050565b60006040820190506124fd6000830185611bfa565b61250a6020830184611b5b565b9392505050565b6000819050919050565b6000819050919050565b600061254061253b61253684612511565b61251b565b611ae5565b9050919050565b61255081612525565b82525050565b600060408201905061256b6000830185611bfa565b6125786020830184612547565b9392505050565b7f496e636f727265637420656e7472792066656500000000000000000000000000600082015250565b60006125b5601383611a00565b91506125c08261257f565b602082019050919050565b600060208201905081810360008301526125e4816125a8565b9050919050565b7f416c726561647920706c6179696e670000000000000000000000000000000000600082015250565b6000612621600f83611a00565b915061262c826125eb565b602082019050919050565b6000602082019050818103600083015261265081612614565b9050919050565b7f4d756c7469706c696572206d757374206265206174206c656173742031000000600082015250565b600061268d601d83611a00565b915061269882612657565b602082019050919050565b600060208201905081810360008301526126bc81612680565b9050919050565b600081905092915050565b7f19457468657265756d205369676e6564204d6573736167653a0a333200000000600082015250565b6000612704601c836126c3565b915061270f826126ce565b601c82019050919050565b6000819050919050565b6000819050919050565b61273f61273a8261271a565b612724565b82525050565b6000612750826126f7565b915061275c828461272e565b60208201915081905092915050565b7f4e487b7100000000000000000000000000000000000000000000000000000000600052602160045260246000fd5b6127a38161271a565b82525050565b60006020820190506127be600083018461279a565b92915050565b600060ff82169050919050565b6127da816127c4565b82525050565b60006080820190506127f5600083018761279a565b61280260208301866127d1565b61280f604083018561279a565b61281c606083018461279a565b9594505050505056fea264697066735822122028b1cb1edf719c2376c7e65699f978591c9f33636783428e8a4b47639469516764736f6c634300081c0033",
  "linkReferences": {},
  "deployedLinkReferences": {}
}