{
  "_format": "hh-sol-artifact-1",
  "contractName": "ForcaGame",
  "sourceName": "contracts/ForcaGame.sol",
  "abi": [
    {
      "inputs": [
        {
          "internalType": "address",
          "name": "_initialSigner",
          "type": "address"
        },
        {
          "internalType": "address",
          "name": "_passNFT",
          "type": "address"
        },
        {
          "internalType": "uint256",
          "name": "_extraPlays",
          "type": "uint256"
        },
        {
          "internalType": "uint256",
          "name": "_initialPassPrice",
          "type": "uint256"
        }
      ],
      "stateMutability": "nonpayable",
      "type": "constructor"
    },
    {
      "inputs": [],
      "name": "ECDSAInvalidSignature",
      "type": "error"
    },
    {
      "inputs": [
        {
          "internalType": "uint256",
          "name": "length",
          "type": "uint256"
        }
      ],
      "name": "ECDSAInvalidSignatureLength",
      "type": "error"
    },
    {
      "inputs": [
        {
          "internalType": "bytes32",
          "name": "s",
          "type": "bytes32"
        }
      ],
      "name": "ECDSAInvalidSignatureS",
      "type": "error"
    },
    {
      "inputs": [],
      "name": "EnforcedPause",
      "type": "error"
    },
    {
      "inputs": [],
      "name": "ExpectedPause",
      "type": "error"
    },
    {
      "inputs": [
        {
          "internalType": "address",
          "name": "owner",
          "type": "address"
        }
      ],
      "name": "OwnableInvalidOwner",
      "type": "error"
    },
    {
      "inputs": [
        {
          "internalType": "address",
          "name": "account",
          "type": "address"
        }
      ],
      "name": "OwnableUnauthorizedAccount",
      "type": "error"
    },
    {
      "inputs": [],
      "name": "ReentrancyGuardReentrantCall",
      "type": "error"
    },
    {
      "anonymous": false,
      "inputs": [
        {
          "indexed": true,
          "internalType": "address",
          "name": "player",
          "type": "address"
        },
        {
          "indexed": false,
          "internalType": "enum ForcaGame.GameMode",
          "name": "mode",
          "type": "uint8"
        },
        {
          "indexed": false,
          "internalType": "bool",
          "name": "won",
          "type": "bool"
        },
        {
          "indexed": false,
          "internalType": "uint256",
          "name": "reward",
          "type": "uint256"
        }
      ],
      "name": "GamePlayed",
      "type": "event"
    },
    {
      "anonymous": false,
      "inputs": [
        {
          "indexed": true,
          "internalType": "address",
          "name": "sender",
          "type": "address"
        },
        {
          "indexed": false,
          "internalType": "uint256",
          "name": "amount",
          "type": "uint256"
        },
        {
          "indexed": false,
          "internalType": "address",
          "name": "token",
          "type": "address"
        }
      ],
      "name": "LiquidityDeposited",
      "type": "event"
    },
    {
      "anonymous": false,
      "inputs": [
        {
          "indexed": true,
          "internalType": "address",
          "name": "recipient",
          "type": "address"
        },
        {
          "indexed": false,
          "internalType": "uint256",
          "name": "amount",
          "type": "uint256"
        },
        {
          "indexed": false,
          "internalType": "address",
          "name": "token",
          "type": "address"
        }
      ],
      "name": "LiquidityWithdrawn",
      "type": "event"
    },
    {
      "anonymous": false,
      "inputs": [
        {
          "indexed": false,
          "internalType": "enum ForcaGame.GameMode",
          "name": "mode",
          "type": "uint8"
        },
        {
          "components": [
            {
              "internalType": "uint256",
              "name": "entryFee",
              "type": "uint256"
            },
            {
              "internalType": "uint256",
              "name": "baseReward",
              "type": "uint256"
            },
            {
              "internalType": "uint256",
              "name": "perfectReward",
              "type": "uint256"
            },
            {
              "internalType": "uint256",
              "name": "pvpReward",
              "type": "uint256"
            }
          ],
          "indexed": false,
          "internalType": "struct ForcaGame.ModeConfig",
          "name": "config",
          "type": "tuple"
        }
      ],
      "name": "ModeConfigUpdated",
      "type": "event"
    },
    {
      "anonymous": false,
      "inputs": [
        {
          "indexed": true,
          "internalType": "address",
          "name": "previousOwner",
          "type": "address"
        },
        {
          "indexed": true,
          "internalType": "address",
          "name": "newOwner",
          "type": "address"
        }
      ],
      "name": "OwnershipTransferred",
      "type": "event"
    },
    {
      "anonymous": false,
      "inputs": [
        {
          "indexed": false,
          "internalType": "address",
          "name": "mintAddress",
          "type": "address"
        }
      ],
      "name": "PassNFTMintAddressSet",
      "type": "event"
    },
    {
      "anonymous": false,
      "inputs": [
        {
          "indexed": true,
          "internalType": "address",
          "name": "buyer",
          "type": "address"
        }
      ],
      "name": "PassNFTMinted",
      "type": "event"
    },
    {
      "anonymous": false,
      "inputs": [
        {
          "indexed": false,
          "internalType": "uint256",
          "name": "newPrice",
          "type": "uint256"
        }
      ],
      "name": "PassNFTPriceUpdated",
      "type": "event"
    },
    {
      "anonymous": false,
      "inputs": [
        {
          "indexed": false,
          "internalType": "address",
          "name": "nftAddress",
          "type": "address"
        },
        {
          "indexed": false,
          "internalType": "uint256",
          "name": "extraPlays",
          "type": "uint256"
        }
      ],
      "name": "PassNFTUpdated",
      "type": "event"
    },
    {
      "anonymous": false,
      "inputs": [
        {
          "indexed": false,
          "internalType": "address",
          "name": "account",
          "type": "address"
        }
      ],
      "name": "Paused",
      "type": "event"
    },
    {
      "anonymous": false,
      "inputs": [
        {
          "indexed": false,
          "internalType": "uint256",
          "name": "matchId",
          "type": "uint256"
        },
        {
          "indexed": false,
          "internalType": "address",
          "name": "player1",
          "type": "address"
        }
      ],
      "name": "PvPMatchCreated",
      "type": "event"
    },
    {
      "anonymous": false,
      "inputs": [
        {
          "indexed": false,
          "internalType": "uint256",
          "name": "matchId",
          "type": "uint256"
        },
        {
          "indexed": false,
          "internalType": "address",
          "name": "winner",
          "type": "address"
        },
        {
          "indexed": false,
          "internalType": "uint256",
          "name": "reward",
          "type": "uint256"
        }
      ],
      "name": "PvPMatchEnded",
      "type": "event"
    },
    {
      "anonymous": false,
      "inputs": [
        {
          "indexed": false,
          "internalType": "uint256",
          "name": "matchId",
          "type": "uint256"
        },
        {
          "indexed": false,
          "internalType": "address",
          "name": "player2",
          "type": "address"
        }
      ],
      "name": "PvPMatchJoined",
      "type": "event"
    },
    {
      "anonymous": false,
      "inputs": [
        {
          "indexed": true,
          "internalType": "address",
          "name": "token",
          "type": "address"
        }
      ],
      "name": "RewardTokenUpdated",
      "type": "event"
    },
    {
      "anonymous": false,
      "inputs": [
        {
          "indexed": true,
          "internalType": "address",
          "name": "token",
          "type": "address"
        },
        {
          "indexed": true,
          "internalType": "address",
          "name": "to",
          "type": "address"
        },
        {
          "indexed": false,
          "internalType": "uint256",
          "name": "amount",
          "type": "uint256"
        }
      ],
      "name": "TokensRescued",
      "type": "event"
    },
    {
      "anonymous": false,
      "inputs": [
        {
          "indexed": false,
          "internalType": "address",
          "name": "signer",
          "type": "address"
        },
        {
          "indexed": false,
          "internalType": "bool",
          "name": "status",
          "type": "bool"
        }
      ],
      "name": "TrustedSignerUpdated",
      "type": "event"
    },
    {
      "anonymous": false,
      "inputs": [
        {
          "indexed": false,
          "internalType": "address",
          "name": "account",
          "type": "address"
        }
      ],
      "name": "Unpaused",
      "type": "event"
    },
    {
      "anonymous": false,
      "inputs": [
        {
          "indexed": false,
          "internalType": "uint256",
          "name": "timestamp",
          "type": "uint256"
        }
      ],
      "name": "WithdrawLockSet",
      "type": "event"
    },
    {
      "inputs": [],
      "name": "buyAndMintPass",
      "outputs": [],
      "stateMutability": "payable",
      "type": "function"
    },
    {
      "inputs": [
        {
          "internalType": "uint256",
          "name": "matchId",
          "type": "uint256"
        }
      ],
      "name": "cancelPvPMatch",
      "outputs": [],
      "stateMutability": "nonpayable",
      "type": "function"
    },
    {
      "inputs": [
        {
          "internalType": "uint256",
          "name": "matchId",
          "type": "uint256"
        }
      ],
      "name": "confirmPvPMatch",
      "outputs": [],
      "stateMutability": "payable",
      "type": "function"
    },
    {
      "inputs": [],
      "name": "createPvPMatch",
      "outputs": [],
      "stateMutability": "nonpayable",
      "type": "function"
    },
    {
      "inputs": [
        {
          "internalType": "address",
          "name": "",
          "type": "address"
        },
        {
          "internalType": "enum ForcaGame.GameMode",
          "name": "",
          "type": "uint8"
        }
      ],
      "name": "dailyPlays",
      "outputs": [
        {
          "internalType": "uint256",
          "name": "",
          "type": "uint256"
        }
      ],
      "stateMutability": "view",
      "type": "function"
    },
    {
      "inputs": [],
      "name": "depositLiquidity",
      "outputs": [],
      "stateMutability": "payable",
      "type": "function"
    },
    {
      "inputs": [
        {
          "internalType": "address",
          "name": "token",
          "type": "address"
        },
        {
          "internalType": "uint256",
          "name": "amount",
          "type": "uint256"
        }
      ],
      "name": "depositTokenLiquidity",
      "outputs": [],
      "stateMutability": "nonpayable",
      "type": "function"
    },
    {
      "inputs": [
        {
          "internalType": "bool",
          "name": "won",
          "type": "bool"
        },
        {
          "internalType": "uint256",
          "name": "wordLength",
          "type": "uint256"
        },
        {
          "internalType": "uint256",
          "name": "tokenId",
          "type": "uint256"
        },
        {
          "internalType": "uint256",
          "name": "finalPoints",
          "type": "uint256"
        },
        {
          "internalType": "bytes",
          "name": "signature",
          "type": "bytes"
        }
      ],
      "name": "endGame",
      "outputs": [],
      "stateMutability": "nonpayable",
      "type": "function"
    },
    {
      "inputs": [],
      "name": "extraPlaysPerDay",
      "outputs": [
        {
          "internalType": "uint256",
          "name": "",
          "type": "uint256"
        }
      ],
      "stateMutability": "view",
      "type": "function"
    },
    {
      "inputs": [],
      "name": "getPlayerCount",
      "outputs": [
        {
          "internalType": "uint256",
          "name": "",
          "type": "uint256"
        }
      ],
      "stateMutability": "view",
      "type": "function"
    },
    {
      "inputs": [
        {
          "internalType": "uint256",
          "name": "matchId",
          "type": "uint256"
        }
      ],
      "name": "joinPvPMatch",
      "outputs": [],
      "stateMutability": "payable",
      "type": "function"
    },
    {
      "inputs": [
        {
          "internalType": "address",
          "name": "",
          "type": "address"
        }
      ],
      "name": "lastPlayDay",
      "outputs": [
        {
          "internalType": "uint256",
          "name": "",
          "type": "uint256"
        }
      ],
      "stateMutability": "view",
      "type": "function"
    },
    {
      "inputs": [],
      "name": "liquidityPool",
      "outputs": [
        {
          "internalType": "uint256",
          "name": "",
          "type": "uint256"
        }
      ],
      "stateMutability": "view",
      "type": "function"
    },
    {
      "inputs": [
        {
          "internalType": "enum ForcaGame.GameMode",
          "name": "",
          "type": "uint8"
        }
      ],
      "name": "modeConfigs",
      "outputs": [
        {
          "internalType": "uint256",
          "name": "entryFee",
          "type": "uint256"
        },
        {
          "internalType": "uint256",
          "name": "baseReward",
          "type": "uint256"
        },
        {
          "internalType": "uint256",
          "name": "perfectReward",
          "type": "uint256"
        },
        {
          "internalType": "uint256",
          "name": "pvpReward",
          "type": "uint256"
        }
      ],
      "stateMutability": "view",
      "type": "function"
    },
    {
      "inputs": [
        {
          "internalType": "address",
          "name": "",
          "type": "address"
        }
      ],
      "name": "openPvPMatchId",
      "outputs": [
        {
          "internalType": "uint256",
          "name": "",
          "type": "uint256"
        }
      ],
      "stateMutability": "view",
      "type": "function"
    },
    {
      "inputs": [],
      "name": "owner",
      "outputs": [
        {
          "internalType": "address",
          "name": "",
          "type": "address"
        }
      ],
      "stateMutability": "view",
      "type": "function"
    },
    {
      "inputs": [],
      "name": "passNFT",
      "outputs": [
        {
          "internalType": "contract IERC721",
          "name": "",
          "type": "address"
        }
      ],
      "stateMutability": "view",
      "type": "function"
    },
    {
      "inputs": [],
      "name": "passNFTMintAddress",
      "outputs": [
        {
          "internalType": "address",
          "name": "",
          "type": "address"
        }
      ],
      "stateMutability": "view",
      "type": "function"
    },
    {
      "inputs": [],
      "name": "passNFTPrice",
      "outputs": [
        {
          "internalType": "uint256",
          "name": "",
          "type": "uint256"
        }
      ],
      "stateMutability": "view",
      "type": "function"
    },
    {
      "inputs": [],
      "name": "paused",
      "outputs": [
        {
          "internalType": "bool",
          "name": "",
          "type": "bool"
        }
      ],
      "stateMutability": "view",
      "type": "function"
    },
    {
      "inputs": [
        {
          "internalType": "uint256",
          "name": "",
          "type": "uint256"
        }
      ],
      "name": "playerAddresses",
      "outputs": [
        {
          "internalType": "address",
          "name": "",
          "type": "address"
        }
      ],
      "stateMutability": "view",
      "type": "function"
    },
    {
      "inputs": [
        {
          "internalType": "address",
          "name": "",
          "type": "address"
        }
      ],
      "name": "players",
      "outputs": [
        {
          "internalType": "bool",
          "name": "",
          "type": "bool"
        }
      ],
      "stateMutability": "view",
      "type": "function"
    },
    {
      "inputs": [
        {
          "internalType": "address",
          "name": "",
          "type": "address"
        }
      ],
      "name": "points",
      "outputs": [
        {
          "internalType": "uint256",
          "name": "",
          "type": "uint256"
        }
      ],
      "stateMutability": "view",
      "type": "function"
    },
    {
      "inputs": [],
      "name": "pvpMatchCounter",
      "outputs": [
        {
          "internalType": "uint256",
          "name": "",
          "type": "uint256"
        }
      ],
      "stateMutability": "view",
      "type": "function"
    },
    {
      "inputs": [
        {
          "internalType": "uint256",
          "name": "",
          "type": "uint256"
        }
      ],
      "name": "pvpMatches",
      "outputs": [
        {
          "internalType": "address",
          "name": "player1",
          "type": "address"
        },
        {
          "internalType": "address",
          "name": "player2",
          "type": "address"
        },
        {
          "internalType": "uint256",
          "name": "entryAmount",
          "type": "uint256"
        },
        {
          "internalType": "bool",
          "name": "active",
          "type": "bool"
        },
        {
          "internalType": "bool",
          "name": "player1Paid",
          "type": "bool"
        },
        {
          "internalType": "bool",
          "name": "player2Paid",
          "type": "bool"
        }
      ],
      "stateMutability": "view",
      "type": "function"
    },
    {
      "inputs": [],
      "name": "renounceOwnership",
      "outputs": [],
      "stateMutability": "nonpayable",
      "type": "function"
    },
    {
      "inputs": [
        {
          "internalType": "address",
          "name": "token",
          "type": "address"
        },
        {
          "internalType": "address",
          "name": "to",
          "type": "address"
        },
        {
          "internalType": "uint256",
          "name": "amount",
          "type": "uint256"
        }
      ],
      "name": "rescueTokens",
      "outputs": [],
      "stateMutability": "nonpayable",
      "type": "function"
    },
    {
      "inputs": [
        {
          "internalType": "uint256",
          "name": "matchId",
          "type": "uint256"
        },
        {
          "internalType": "address",
          "name": "winner",
          "type": "address"
        },
        {
          "internalType": "bytes",
          "name": "signature",
          "type": "bytes"
        }
      ],
      "name": "resolvePvPMatch",
      "outputs": [],
      "stateMutability": "nonpayable",
      "type": "function"
    },
    {
      "inputs": [],
      "name": "rewardToken",
      "outputs": [
        {
          "internalType": "address",
          "name": "",
          "type": "address"
        }
      ],
      "stateMutability": "view",
      "type": "function"
    },
    {
      "inputs": [
        {
          "internalType": "address",
          "name": "_mintAddress",
          "type": "address"
        }
      ],
      "name": "setPassNFTMintAddress",
      "outputs": [],
      "stateMutability": "nonpayable",
      "type": "function"
    },
    {
      "inputs": [
        {
          "internalType": "address",
          "name": "_token",
          "type": "address"
        }
      ],
      "name": "setRewardToken",
      "outputs": [],
      "stateMutability": "nonpayable",
      "type": "function"
    },
    {
      "inputs": [
        {
          "internalType": "address",
          "name": "_signer",
          "type": "address"
        },
        {
          "internalType": "bool",
          "name": "_status",
          "type": "bool"
        }
      ],
      "name": "setTrustedSigner",
      "outputs": [],
      "stateMutability": "nonpayable",
      "type": "function"
    },
    {
      "inputs": [
        {
          "internalType": "uint256",
          "name": "_timestamp",
          "type": "uint256"
        }
      ],
      "name": "setWithdrawLock",
      "outputs": [],
      "stateMutability": "nonpayable",
      "type": "function"
    },
    {
      "inputs": [
        {
          "internalType": "enum ForcaGame.GameMode",
          "name": "mode",
          "type": "uint8"
        }
      ],
      "name": "startGame",
      "outputs": [],
      "stateMutability": "payable",
      "type": "function"
    },
    {
      "inputs": [
        {
          "internalType": "address",
          "name": "",
          "type": "address"
        }
      ],
      "name": "tokenLiquidityPools",
      "outputs": [
        {
          "internalType": "uint256",
          "name": "",
          "type": "uint256"
        }
      ],
      "stateMutability": "view",
      "type": "function"
    },
    {
      "inputs": [
        {
          "internalType": "address",
          "name": "newOwner",
          "type": "address"
        }
      ],
      "name": "transferOwnership",
      "outputs": [],
      "stateMutability": "nonpayable",
      "type": "function"
    },
    {
      "inputs": [
        {
          "internalType": "address",
          "name": "",
          "type": "address"
        }
      ],
      "name": "trustedSigners",
      "outputs": [
        {
          "internalType": "bool",
          "name": "",
          "type": "bool"
        }
      ],
      "stateMutability": "view",
      "type": "function"
    },
    {
      "inputs": [
        {
          "internalType": "enum ForcaGame.GameMode",
          "name": "mode",
          "type": "uint8"
        },
        {
          "components": [
            {
              "internalType": "uint256",
              "name": "entryFee",
              "type": "uint256"
            },
            {
              "internalType": "uint256",
              "name": "baseReward",
              "type": "uint256"
            },
            {
              "internalType": "uint256",
              "name": "perfectReward",
              "type": "uint256"
            },
            {
              "internalType": "uint256",
              "name": "pvpReward",
              "type": "uint256"
            }
          ],
          "internalType": "struct ForcaGame.ModeConfig",
          "name": "config",
          "type": "tuple"
        }
      ],
      "name": "updateModeConfig",
      "outputs": [],
      "stateMutability": "nonpayable",
      "type": "function"
    },
    {
      "inputs": [
        {
          "internalType": "address",
          "name": "_nft",
          "type": "address"
        },
        {
          "internalType": "uint256",
          "name": "_extraPlays",
          "type": "uint256"
        }
      ],
      "name": "updatePassNFT",
      "outputs": [],
      "stateMutability": "nonpayable",
      "type": "function"
    },
    {
      "inputs": [
        {
          "internalType": "uint256",
          "name": "_newPrice",
          "type": "uint256"
        }
      ],
      "name": "updatePassNFTPrice",
      "outputs": [],
      "stateMutability": "nonpayable",
      "type": "function"
    },
    {
      "inputs": [
        {
          "internalType": "address payable",
          "name": "_to",
          "type": "address"
        },
        {
          "internalType": "uint256",
          "name": "_amount",
          "type": "uint256"
        },
        {
          "internalType": "address",
          "name": "_token",
          "type": "address"
        }
      ],
      "name": "withdrawLiquidity",
      "outputs": [],
      "stateMutability": "nonpayable",
      "type": "function"
    },
    {
      "inputs": [],
      "name": "withdrawLockTimestamp",
      "outputs": [
        {
          "internalType": "uint256",
          "name": "",
          "type": "uint256"
        }
      ],
      "stateMutability": "view",
      "type": "function"
    },
    {
      "stateMutability": "payable",
      "type": "receive"
    }
  ],
  "bytecode": "0x60806040523480156200001157600080fd5b5060405162003c1738038062003c1783398101604081905262000034916200055d565b33806200005c57604051631e4fbdf760e01b8152600060048201526024015b60405180910390fd5b6200006781620004f0565b50600180556001600160a01b038416620000b55760405162461bcd60e51b815260206004820152600e60248201526d24b73b30b634b21039b4b3b732b960911b604482015260640162000053565b6001600160a01b038481166000818152600460209081526040808320805460ff19166001908117909155600f80546001600160a01b031990811690915582516080808201855266b1a2bc2ec50000825266354a6ba7a18000828701908152666a94d74f43000083870190815260608085018a81528a80526002808b5295517fac33ff75c19e70fe83507db0d683fd3465c996598dc972688b7ace676c89077b5592517fac33ff75c19e70fe83507db0d683fd3465c996598dc972688b7ace676c89077c5590517fac33ff75c19e70fe83507db0d683fd3465c996598dc972688b7ace676c89077d5590517fac33ff75c19e70fe83507db0d683fd3465c996598dc972688b7ace676c89077e558551808301875267016345785d8a0000815267010a741a462780008189019081526701bc16d674ec80008289019081528284018b8152888c52868b5292517fe90b7bceb6e7df5418fb78d8ee546e97c83a08bbccc01a0644d599ccd2a7c2e05590517fe90b7bceb6e7df5418fb78d8ee546e97c83a08bbccc01a0644d599ccd2a7c2e155517fe90b7bceb6e7df5418fb78d8ee546e97c83a08bbccc01a0644d599ccd2a7c2e255517fe90b7bceb6e7df5418fb78d8ee546e97c83a08bbccc01a0644d599ccd2a7c2e355855180830187526702c68af0bb1400008152670354a6ba7a180000818901908152670de0b6b3a76400008289019081528284018b8152868c52868b5292517f679795a0195a1b76cdebb7c51d74e058aee92919b8c3389af86ef24535e8a28c5590517f679795a0195a1b76cdebb7c51d74e058aee92919b8c3389af86ef24535e8a28d55517f679795a0195a1b76cdebb7c51d74e058aee92919b8c3389af86ef24535e8a28e55517f679795a0195a1b76cdebb7c51d74e058aee92919b8c3389af86ef24535e8a28f55855191820186526706f05b59d3b200008252818701888152828701898152670c7d713b49da000092840192835260038a5293885291517f88601476d11616a71c5be67555bd1dff4b1cbf21533d2669b768b61518cfe1c35590517f88601476d11616a71c5be67555bd1dff4b1cbf21533d2669b768b61518cfe1c45590517f88601476d11616a71c5be67555bd1dff4b1cbf21533d2669b768b61518cfe1c555517f88601476d11616a71c5be67555bd1dff4b1cbf21533d2669b768b61518cfe1c65560108054909116968a169690961790955560118790556013869055601492909255815192835282019290925281517faf5689dec9fb059a951122ef5f2e9363fe24220b8e21a048b3e65d590178cc50929181900390910190a1604080516001600160a01b0385168152602081018490527f824088ffe0a10a78ad47507b6070636658e8c3ef65958d8dc75982f3a146e334910160405180910390a16040518181527fa3d5fc1f9382a7504bea100dc55a7415ba5c5263d999ef14de3ca037886ac8159060200160405180910390a150505050620005a5565b600080546001600160a01b038381166001600160a01b0319831681178455604051919092169283917f8be0079c531659141344cd1fd0a4f28419497f9722a3daafe3b4186f6b6457e09190a35050565b80516001600160a01b03811681146200055857600080fd5b919050565b600080600080608085870312156200057457600080fd5b6200057f8562000540565b93506200058f6020860162000540565b6040860151606090960151949790965092505050565b61366280620005b56000396000f3fe6080604052600436106102555760003560e01c8063a2c2ec6611610139578063d938ab42116100b6578063f32e368f1161007a578063f32e368f146107ec578063f4c45fb814610819578063f77776881461082f578063f7c618c11461085f578063f83952691461087f578063ff2871661461089257600080fd5b8063d938ab421461073c578063e1223e3f1461075c578063e2eb41ff14610789578063e6ab6079146107b9578063f2fde38b146107cc57600080fd5b8063c2e52206116100fd578063c2e52206146106bf578063c47374a7146106d4578063ca593c59146106f4578063cea9d26f146106fc578063d2ff8b091461071c57600080fd5b8063a2c2ec661461062a578063a79dd8441461063f578063a81569f91461065f578063bacf99461461067f578063c032180d1461069f57600080fd5b8063665a11ca116101d25780638563200c116101965780638563200c1461055e5780638767045c146105745780638aee8127146105945780638da5cb5b146105b4578063916948e2146105d25780639add0d5f146105f257600080fd5b8063665a11ca1461045a578063715018a61461047057806377af88f114610485578063793f444814610528578063836b4d0e1461053e57600080fd5b806337e6ab171161021957806337e6ab17146103ac57806346c53c63146103cc5780634c5c4f66146103ec5780635c975abb146104025780636284d50f1461042d57600080fd5b80630ce43ca9146102b357806315c6aee21461031c57806317901fee14610354578063251d79a614610369578063358b81661461037157600080fd5b366102ae5734600e600082825461026c9190613099565b9091555050604080513481526000602082015233917f60dcae248663be700e577f981d2ef1ce566cffc9a956e7098e1d185059644951910160405180910390a2005b600080fd5b3480156102bf57600080fd5b506102f76102ce3660046130c0565b600260208190526000918252604090912080546001820154928201546003909201549092919084565b6040805194855260208501939093529183015260608201526080015b60405180910390f35b34801561032857600080fd5b5061033c6103373660046130e2565b6108b2565b6040516001600160a01b039091168152602001610313565b6103676103623660046130e2565b6108dc565b005b610367610b56565b34801561037d57600080fd5b5061039e61038c366004613110565b60036020526000908152604090205481565b604051908152602001610313565b3480156103b857600080fd5b506103676103c73660046130e2565b610d3f565b3480156103d857600080fd5b506103676103e736600461312d565b610e88565b3480156103f857600080fd5b5061039e600d5481565b34801561040e57600080fd5b50600054600160a01b900460ff165b6040519015158152602001610313565b34801561043957600080fd5b5061039e610448366004613110565b600b6020526000908152604090205481565b34801561046657600080fd5b5061039e600e5481565b34801561047c57600080fd5b50610367610f86565b34801561049157600080fd5b506104ea6104a03660046130e2565b60086020526000908152604090208054600182015460028301546003909301546001600160a01b0392831693919092169160ff808216916101008104821691620100009091041686565b604080516001600160a01b039788168152969095166020870152938501929092521515606084015215156080830152151560a082015260c001610313565b34801561053457600080fd5b5061039e60145481565b34801561054a57600080fd5b50610367610559366004613110565b610f98565b34801561056a57600080fd5b5061039e60135481565b34801561058057600080fd5b5061036761058f3660046131c5565b611042565b3480156105a057600080fd5b506103676105af366004613110565b611301565b3480156105c057600080fd5b506000546001600160a01b031661033c565b3480156105de57600080fd5b506103676105ed3660046130e2565b611353565b3480156105fe57600080fd5b5061039e61060d366004613207565b600660209081526000928352604080842090915290825290205481565b34801561063657600080fd5b506103676114a9565b34801561064b57600080fd5b5061036761065a3660046130e2565b611660565b34801561066b57600080fd5b5060125461033c906001600160a01b031681565b34801561068b57600080fd5b5061036761069a36600461324a565b6116e1565b3480156106ab57600080fd5b506103676106ba3660046132cc565b611794565b3480156106cb57600080fd5b50600c5461039e565b3480156106e057600080fd5b506103676106ef36600461333f565b611bc6565b6103676120de565b34801561070857600080fd5b5061036761071736600461339b565b61217c565b34801561072857600080fd5b506103676107373660046133dc565b612386565b34801561074857600080fd5b5060105461033c906001600160a01b031681565b34801561076857600080fd5b5061039e610777366004613110565b600a6020526000908152604090205481565b34801561079557600080fd5b5061041d6107a4366004613110565b60056020526000908152604090205460ff1681565b6103676107c73660046130c0565b612507565b3480156107d857600080fd5b506103676107e7366004613110565b612798565b3480156107f857600080fd5b5061039e610807366004613110565b60076020526000908152604090205481565b34801561082557600080fd5b5061039e60115481565b34801561083b57600080fd5b5061041d61084a366004613110565b60046020526000908152604090205460ff1681565b34801561086b57600080fd5b50600f5461033c906001600160a01b031681565b61036761088d3660046130e2565b6127d3565b34801561089e57600080fd5b506103676108ad3660046133dc565b612a4e565b600c81815481106108c257600080fd5b6000918252602090912001546001600160a01b0316905081565b6108e4612afb565b6108ec612b26565b6000818152600860205260409020600381015460ff166109465760405162461bcd60e51b815260206004820152601060248201526f4d61746368206e6f742061637469766560801b60448201526064015b60405180910390fd5b60018101546001600160a01b0316156109925760405162461bcd60e51b815260206004820152600e60248201526d105b1c9958591e481a9bda5b995960921b604482015260640161093d565b600f546001600160a01b03166109ea57806002015434146109e55760405162461bcd60e51b815260206004820152600d60248201526c496e636f72726563742066656560981b604482015260640161093d565b610ab8565b3415610a085760405162461bcd60e51b815260040161093d90613408565b600f5460028201546040516323b872dd60e01b81526001600160a01b03909216916323b872dd91610a3f913391309160040161343f565b6020604051808303816000875af1158015610a5e573d6000803e3d6000fd5b505050506040513d601f19601f82011682018060405250810190610a829190613463565b506002810154600f546001600160a01b03166000908152600b602052604081208054909190610ab2908490613099565b90915550505b6001810180546001600160a01b0319163390811790915560038201805462ff000019166201000017905581546001600160a01b03166000908152600a602052604080822091909155517f2a8ce13c92209212cae267ea733205d6fb911a1b9ce01b262f371c5d5f6ffb3391610b41918591909182526001600160a01b0316602082015260400190565b60405180910390a150610b5360018055565b50565b610b5e612afb565b610b66612b26565b6012546001600160a01b0316610bb65760405162461bcd60e51b8152602060048201526015602482015274135a5b9d0818dbdb9d1c9858dd081b9bdd081cd95d605a1b604482015260640161093d565b6013543414610bfb5760405162461bcd60e51b8152602060048201526011602482015270125b98dbdc9c9958dd081c185e5b595b9d607a1b604482015260640161093d565b600080546040516001600160a01b03909116913480156108fc02929091818181858888f19350505050158015610c35573d6000803e3d6000fd5b506012546040513360248201526000916001600160a01b03169060440160408051601f198184030181529181526020820180516001600160e01b03166335313c2160e11b17905251610c879190613480565b6000604051808303816000865af19150503d8060008114610cc4576040519150601f19603f3d011682016040523d82523d6000602084013e610cc9565b606091505b5050905080610d085760405162461bcd60e51b815260206004820152600b60248201526a135a5b9d0819985a5b195960aa1b604482015260640161093d565b60405133907faf6bbe8906a697c539659b36e5dd4bb1f743a9b5b1e1404ab147fd55444bd8e290600090a250610d3d60018055565b565b610d47612afb565b610d4f612b26565b6000818152600860205260409020600381015460ff16610da45760405162461bcd60e51b815260206004820152601060248201526f4d61746368206e6f742061637469766560801b604482015260640161093d565b80546001600160a01b03163314610dfd5760405162461bcd60e51b815260206004820152601760248201527f4f6e6c792063726561746f722063616e2063616e63656c000000000000000000604482015260640161093d565b60018101546001600160a01b031615610e645760405162461bcd60e51b815260206004820152602360248201527f43616e6e6f742063616e63656c206166746572206f70706f6e656e74206a6f696044820152621b995960ea1b606482015260840161093d565b600301805460ff19169055336000908152600a6020526040812055610b5360018055565b610e90612b50565b816003816003811115610ea557610ea56134af565b1115610ee75760405162461bcd60e51b8152602060048201526011602482015270496e76616c69642067616d65206d6f646560781b604482015260640161093d565b8160026000856003811115610efe57610efe6134af565b6003811115610f0f57610f0f6134af565b8152602001908152602001600020600082015181600001556020820151816001015560408201518160020155606082015181600301559050507f502630bc4b5c6b34c665de0764cb7b762ab360bfd5e995fdcaabd60da466c0528383604051610f799291906134e7565b60405180910390a1505050565b610f8e612b50565b610d3d6000612b7d565b610fa0612b50565b6001600160a01b038116610fed5760405162461bcd60e51b8152602060048201526014602482015273496e76616c6964206d696e74206164647265737360601b604482015260640161093d565b601280546001600160a01b0319166001600160a01b0383169081179091556040519081527fda6151fe78926158fc2dace6276b9e22725839220b437eb3110c8e9d5074948e906020015b60405180910390a150565b61104a612b50565b611052612b26565b6014544210806110625750601454155b6110a75760405162461bcd60e51b815260206004820152601660248201527515da5d1a191c985dd85b1cc8185c99481b1bd8dad95960521b604482015260640161093d565b6001600160a01b0383166110f15760405162461bcd60e51b8152602060048201526011602482015270125b9d985b1a59081c9958da5c1a595b9d607a1b604482015260640161093d565b6001600160a01b0381166111a457600e548211156111515760405162461bcd60e51b815260206004820152601c60248201527f45786365656473204574686572206c697175696469747920706f6f6c00000000604482015260640161093d565b81600e60008282546111639190613521565b90915550506040516001600160a01b0384169083156108fc029084906000818181858888f1935050505015801561119e573d6000803e3d6000fd5b506112ae565b6001600160a01b0381166000908152600b602052604090205482111561120c5760405162461bcd60e51b815260206004820152601c60248201527f4578636565647320746f6b656e206c697175696469747920706f6f6c00000000604482015260640161093d565b6001600160a01b0381166000908152600b602052604081208054849290611234908490613521565b909155505060405163a9059cbb60e01b81526001600160a01b0384811660048301526024820184905282169063a9059cbb906044016020604051808303816000875af1158015611288573d6000803e3d6000fd5b505050506040513d601f19601f820116820180604052508101906112ac9190613463565b505b604080518381526001600160a01b0383811660208301528516917f725d2b2a111aeccedf70abe4c73292de678c38a3446d20b8bbc9ae328be13b0b910160405180910390a26112fc60018055565b505050565b611309612b50565b600f80546001600160a01b0319166001600160a01b0383169081179091556040517fa5289ba11778999f4dfb9415023783188d42bbb5db0612cbfbe55999069612a090600090a250565b61135b612b50565b4281116113b65760405162461bcd60e51b8152602060048201526024808201527f4c6f636b2074696d657374616d70206d75737420626520696e207468652066756044820152637475726560e01b606482015260840161093d565b60145415806113c6575060145442105b6114125760405162461bcd60e51b815260206004820152601a60248201527f5769746864726177616c7320616c7265616479206c6f636b6564000000000000604482015260640161093d565b60145481116114745760405162461bcd60e51b815260206004820152602860248201527f4e65772074696d657374616d70206d757374206265206c61746572207468616e6044820152670818dd5c9c995b9d60c21b606482015260840161093d565b60148190556040518181527ff30f214245f45961f6f40d855f991b0f3ccf14f8680e7abae2d68e146809b95690602001611037565b6114b1612afb565b336000908152600a6020526040902054156115195760405162461bcd60e51b815260206004820152602260248201527f596f7520616c7265616479206861766520616e206f70656e20507650206d61746044820152610c6d60f31b606482015260840161093d565b611524336003612bcd565b600d805490600061153483613534565b90915550506040805160c08101825233808252600060208084018281527f88601476d11616a71c5be67555bd1dff4b1cbf21533d2669b768b61518cfe1c3548587019081526001606087018181526080880186815260a08901878152600d80548952600888528b89209a518b546001600160a01b03199081166001600160a01b03928316178d559751958c018054909816951694909417909555925160028901555160039790970180549251935161ffff1990931697151561ff00191697909717610100931515939093029290921762ff000019166201000091151591909102179094559254828252600a84529084902081905583519081529182015281517fb40d367405328c6418ecdba8445c8f9f941f13f84387eb94efe52773fc73c5cc929181900390910190a1565b611668612b50565b600081116116ac5760405162461bcd60e51b815260206004820152601160248201527005072696365206d757374206265203e203607c1b604482015260640161093d565b60138190556040518181527fa3d5fc1f9382a7504bea100dc55a7415ba5c5263d999ef14de3ca037886ac81590602001611037565b6116e9612b50565b6001600160a01b0382166117305760405162461bcd60e51b815260206004820152600e60248201526d24b73b30b634b21039b4b3b732b960911b604482015260640161093d565b6001600160a01b038216600081815260046020908152604091829020805460ff19168515159081179091558251938452908301527faf5689dec9fb059a951122ef5f2e9363fe24220b8e21a048b3e65d590178cc5091015b60405180910390a15050565b61179c612afb565b6117a4612b26565b3360009081526005602052604090205460ff166117f15760405162461bcd60e51b815260206004820152600b60248201526a4e6f7420696e2067616d6560a81b604482015260640161093d565b6040516bffffffffffffffffffffffff193360601b16602082015286151560f81b6034820152603581018690526055810185905260758101849052600090609501604051602081830303815290604052805190602001209050600061185582612dec565b905060006118998286868080601f016020809104026020016040519081016040528093929190818152602001838380828437600092019190915250612e3f92505050565b6001600160a01b03811660009081526004602052604090205490915060ff166118f85760405162461bcd60e51b8152602060048201526011602482015270496e76616c6964207369676e617475726560781b604482015260640161093d565b336000908152600560205260409020805460ff191690558815611b68573360009081526003602052604081208054889290611934908490613099565b90915550503360009081526009602052604090205460ff166119ab57600c805460018181019092557fdf6966c971051c3d54ec59162606531493a51404a002842f56009d7e5cf4a8c70180546001600160a01b031916339081179091556000908152600960205260409020805460ff191690911790555b60006119b78988612e6b565b600f549091506001600160a01b0316611a8657804710156119ea5760405162461bcd60e51b815260040161093d9061354d565b80600e541015611a3c5760405162461bcd60e51b815260206004820152601b60248201527f496e73756666696369656e74206c697175696469747920706f6f6c0000000000604482015260640161093d565b80600e6000828254611a4e9190613521565b9091555050604051339082156108fc029083906000818181858888f19350505050158015611a80573d6000803e3d6000fd5b50611b66565b600f546001600160a01b03166000908152600b6020526040902054811115611ac05760405162461bcd60e51b815260040161093d90613584565b600f546001600160a01b03166000908152600b602052604081208054839290611aea908490613521565b9091555050600f5460405163a9059cbb60e01b8152336004820152602481018390526001600160a01b039091169063a9059cbb906044016020604051808303816000875af1158015611b40573d6000803e3d6000fd5b505050506040513d601f19601f82011682018060405250810190611b649190613463565b505b505b337f966ee981edf070e0517694d572d64ec2008a5d8fdb20947494cb121175d1318160018b80611b99576000611b9b565b895b604051611baa939291906135bb565b60405180910390a2505050611bbe60018055565b505050505050565b611bce612afb565b611bd6612b26565b6000848152600860205260409020600381015460ff1615611c2b5760405162461bcd60e51b815260206004820152600f60248201526e4d61746368206e6f7420726561647960881b604482015260640161093d565b6003810154610100900460ff168015611c4e5750600381015462010000900460ff165b611c925760405162461bcd60e51b8152602060048201526015602482015274426f746820706c6179657273206d7573742070617960581b604482015260640161093d565b80546001600160a01b0385811691161480611cbc575060018101546001600160a01b038581169116145b611cf95760405162461bcd60e51b815260206004820152600e60248201526d24b73b30b634b2103bb4b73732b960911b604482015260640161093d565b60008585604051602001611d2992919091825260601b6bffffffffffffffffffffffff1916602082015260340190565b6040516020818303038152906040528051906020012090506000611d4c82612dec565b90506000611d908287878080601f016020809104026020016040519081016040528093929190818152602001838380828437600092019190915250612e3f92505050565b6001600160a01b03811660009081526004602052604090205490915060ff16611dec5760405162461bcd60e51b815260206004820152600e60248201526d24b73b30b634b21039b4b3b732b960911b604482015260640161093d565b600360005260026020527f88601476d11616a71c5be67555bd1dff4b1cbf21533d2669b768b61518cfe1c654600f546001600160a01b0316611eed5780471015611e485760405162461bcd60e51b815260040161093d9061354d565b80600e541015611e9a5760405162461bcd60e51b815260206004820152601b60248201527f496e73756666696369656e74206c697175696469747920706f6f6c0000000000604482015260640161093d565b80600e6000828254611eac9190613521565b90915550506040516001600160a01b0389169082156108fc029083906000818181858888f19350505050158015611ee7573d6000803e3d6000fd5b50611fcf565b600f546001600160a01b03166000908152600b6020526040902054811115611f275760405162461bcd60e51b815260040161093d90613584565b600f546001600160a01b03166000908152600b602052604081208054839290611f51908490613521565b9091555050600f5460405163a9059cbb60e01b81526001600160a01b038a81166004830152602482018490529091169063a9059cbb906044016020604051808303816000875af1158015611fa9573d6000803e3d6000fd5b505050506040513d601f19601f82011682018060405250810190611fcd9190613463565b505b6001600160a01b03881660009081526003602052604081208054600a9290611ff8908490613099565b90915550506001600160a01b03881660009081526009602052604090205460ff1661208157600c805460018082019092557fdf6966c971051c3d54ec59162606531493a51404a002842f56009d7e5cf4a8c70180546001600160a01b0319166001600160a01b038b169081179091556000908152600960205260409020805460ff191690911790555b604080518a81526001600160a01b038a1660208201529081018290527f6630bd61eea1cfcea35f6bc168121b2fdf1f07a9bc3d83c6696fe059cd40324a9060600160405180910390a150505050506120d860018055565b50505050565b6120e6612afb565b600034116121285760405162461bcd60e51b815260206004820152600f60248201526e26bab9ba1039b2b7321022ba3432b960891b604482015260640161093d565b34600e600082825461213a9190613099565b9091555050604080513481526000602082015233917f60dcae248663be700e577f981d2ef1ce566cffc9a956e7098e1d185059644951910160405180910390a2565b612184612b50565b6001600160a01b0382166121ce5760405162461bcd60e51b8152602060048201526011602482015270125b9d985b1a59081c9958da5c1a595b9d607a1b604482015260640161093d565b6001600160a01b03831661223857478111156121fc5760405162461bcd60e51b815260040161093d9061354d565b6040516001600160a01b0383169082156108fc029083906000818181858888f19350505050158015612232573d6000803e3d6000fd5b50612334565b6040516370a0823160e01b81523060048201526001600160a01b038416906370a0823190602401602060405180830381865afa15801561227c573d6000803e3d6000fd5b505050506040513d601f19601f820116820180604052508101906122a091906135da565b8111156122bf5760405162461bcd60e51b815260040161093d90613584565b60405163a9059cbb60e01b81526001600160a01b0383811660048301526024820183905284169063a9059cbb906044016020604051808303816000875af115801561230e573d6000803e3d6000fd5b505050506040513d601f19601f820116820180604052508101906123329190613463565b505b816001600160a01b0316836001600160a01b03167f77023e19c7343ad491fd706c36335ca0e738340a91f29b1fd81e2673d44896c48360405161237991815260200190565b60405180910390a3505050565b61238e612afb565b6001600160a01b0382166123dc5760405162461bcd60e51b8152602060048201526015602482015274496e76616c696420746f6b656e206164647265737360581b604482015260640161093d565b6000811161241f5760405162461bcd60e51b815260206004820152601060248201526f4d7573742073656e6420746f6b656e7360801b604482015260640161093d565b6040516323b872dd60e01b81526001600160a01b038316906323b872dd9061244f9033903090869060040161343f565b6020604051808303816000875af115801561246e573d6000803e3d6000fd5b505050506040513d601f19601f820116820180604052508101906124929190613463565b506001600160a01b0382166000908152600b6020526040812080548392906124bb908490613099565b9091555050604080518281526001600160a01b038416602082015233917f60dcae248663be700e577f981d2ef1ce566cffc9a956e7098e1d185059644951910160405180910390a25050565b61250f612afb565b612517612b26565b80600381600381111561252c5761252c6134af565b111561256e5760405162461bcd60e51b8152602060048201526011602482015270496e76616c69642067616d65206d6f646560781b604482015260640161093d565b3360009081526005602052604090205460ff16156125c25760405162461bcd60e51b8152602060048201526011602482015270416c726561647920696e20612067616d6560781b604482015260640161093d565b6000600260008460038111156125da576125da6134af565b60038111156125eb576125eb6134af565b81526020808201929092526040908101600020815160808101835281548152600182015493810193909352600281015491830191909152600301546060820152600f549091506001600160a01b03166126a157805134146126845760405162461bcd60e51b8152602060048201526013602482015272496e636f727265637420656e7472792066656560681b604482015260640161093d565b34600e60008282546126969190613099565b909155506127699050565b34156126bf5760405162461bcd60e51b815260040161093d90613408565b600f5481516040516323b872dd60e01b81526001600160a01b03909216916323b872dd916126f3913391309160040161343f565b6020604051808303816000875af1158015612712573d6000803e3d6000fd5b505050506040513d601f19601f820116820180604052508101906127369190613463565b508051600f546001600160a01b03166000908152600b602052604081208054909190612763908490613099565b90915550505b336000818152600560205260409020805460ff1916600117905561278d9084612bcd565b5050610b5360018055565b6127a0612b50565b6001600160a01b0381166127ca57604051631e4fbdf760e01b81526000600482015260240161093d565b610b5381612b7d565b6127db612afb565b6127e3612b26565b600081815260086020526040902080546001600160a01b0316331461284a5760405162461bcd60e51b815260206004820152601860248201527f4f6e6c7920706c61796572312063616e20636f6e6669726d0000000000000000604482015260640161093d565b60018101546001600160a01b03166128965760405162461bcd60e51b815260206004820152600f60248201526e139bc81bdc1c1bdb995b9d081e595d608a1b604482015260640161093d565b6003810154610100900460ff16156128df5760405162461bcd60e51b815260206004820152600c60248201526b105b1c9958591e481c185a5960a21b604482015260640161093d565b600f546001600160a01b031661295d57806002015434146129325760405162461bcd60e51b815260206004820152600d60248201526c496e636f72726563742066656560981b604482015260640161093d565b600280820154612941916135f3565b600e60008282546129529190613099565b90915550612a359050565b341561297b5760405162461bcd60e51b815260040161093d90613408565b600f5460028201546040516323b872dd60e01b81526001600160a01b03909216916323b872dd916129b2913391309160040161343f565b6020604051808303816000875af11580156129d1573d6000803e3d6000fd5b505050506040513d601f19601f820116820180604052508101906129f59190613463565b50600280820154612a05916135f3565b600f546001600160a01b03166000908152600b602052604081208054909190612a2f908490613099565b90915550505b600301805461ffff1916610100179055610b5360018055565b612a56612b50565b6001600160a01b038216612aa25760405162461bcd60e51b8152602060048201526013602482015272496e76616c6964204e4654206164647265737360681b604482015260640161093d565b601080546001600160a01b0319166001600160a01b038416908117909155601182905560408051918252602082018390527f824088ffe0a10a78ad47507b6070636658e8c3ef65958d8dc75982f3a146e3349101611788565b600054600160a01b900460ff1615610d3d5760405163d93c066560e01b815260040160405180910390fd5b600260015403612b4957604051633ee5aeb560e01b815260040160405180910390fd5b6002600155565b6000546001600160a01b03163314610d3d5760405163118cdaa760e01b815233600482015260240161093d565b600080546001600160a01b038381166001600160a01b0319831681178455604051919092169283917f8be0079c531659141344cd1fd0a4f28419497f9722a3daafe3b4186f6b6457e09190a35050565b6000612bdc620151804261360a565b6001600160a01b038416600090815260076020526040902054909150811115612c4f576001600160a01b0383166000818152600660209081526040808320838052825280832083905560018352808320839055600283528083208390556003835280832083905592825260079052208190555b6010546005906001600160a01b031615801590612cd857506010546040516370a0823160e01b81526001600160a01b03868116600483015260009216906370a0823190602401602060405180830381865afa158015612cb2573d6000803e3d6000fd5b505050506040513d601f19601f82011682018060405250810190612cd691906135da565b115b15612ced57601154612cea9082613099565b90505b6001600160a01b03841660009081526006602052604081208291856003811115612d1957612d196134af565b6003811115612d2a57612d2a6134af565b81526020019081526020016000205410612d865760405162461bcd60e51b815260206004820152601860248201527f4461696c7920706c6179206c696d697420726561636865640000000000000000604482015260640161093d565b6001600160a01b0384166000908152600660205260408120600191856003811115612db357612db36134af565b6003811115612dc457612dc46134af565b81526020019081526020016000206000828254612de19190613099565b909155505050505050565b6040517f19457468657265756d205369676e6564204d6573736167653a0a3332000000006020820152603c8101829052600090605c01604051602081830303815290604052805190602001209050919050565b600080600080612e4f8686612eaa565b925092509250612e5f8282612ef7565b50909150505b92915050565b6000600c831115612e845750666a94d74f430000612e65565b6008831115612e9b575066354a6ba7a18000612e65565b506611c37937e0800092915050565b60008060008351604103612ee45760208401516040850151606086015160001a612ed688828585612fb4565b955095509550505050612ef0565b50508151600091506002905b9250925092565b6000826003811115612f0b57612f0b6134af565b03612f14575050565b6001826003811115612f2857612f286134af565b03612f465760405163f645eedf60e01b815260040160405180910390fd5b6002826003811115612f5a57612f5a6134af565b03612f7b5760405163fce698f760e01b81526004810182905260240161093d565b6003826003811115612f8f57612f8f6134af565b03612fb0576040516335e2f38360e21b81526004810182905260240161093d565b5050565b600080807f7fffffffffffffffffffffffffffffff5d576e7357a4501ddfe92f46681b20a0841115612fef5750600091506003905082613079565b604080516000808252602082018084528a905260ff891692820192909252606081018790526080810186905260019060a0016020604051602081039080840390855afa158015613043573d6000803e3d6000fd5b5050604051601f1901519150506001600160a01b03811661306f57506000925060019150829050613079565b9250600091508190505b9450945094915050565b634e487b7160e01b600052601160045260246000fd5b80820180821115612e6557612e65613083565b8035600481106130bb57600080fd5b919050565b6000602082840312156130d257600080fd5b6130db826130ac565b9392505050565b6000602082840312156130f457600080fd5b5035919050565b6001600160a01b0381168114610b5357600080fd5b60006020828403121561312257600080fd5b81356130db816130fb565b60008082840360a081121561314157600080fd5b61314a846130ac565b92506080601f198201121561315e57600080fd5b506040516080810181811067ffffffffffffffff8211171561319057634e487b7160e01b600052604160045260246000fd5b806040525060208401358152604084013560208201526060840135604082015260808401356060820152809150509250929050565b6000806000606084860312156131da57600080fd5b83356131e5816130fb565b92506020840135915060408401356131fc816130fb565b809150509250925092565b6000806040838503121561321a57600080fd5b8235613225816130fb565b9150613233602084016130ac565b90509250929050565b8015158114610b5357600080fd5b6000806040838503121561325d57600080fd5b8235613268816130fb565b915060208301356132788161323c565b809150509250929050565b60008083601f84011261329557600080fd5b50813567ffffffffffffffff8111156132ad57600080fd5b6020830191508360208285010111156132c557600080fd5b9250929050565b60008060008060008060a087890312156132e557600080fd5b86356132f08161323c565b9550602087013594506040870135935060608701359250608087013567ffffffffffffffff81111561332157600080fd5b61332d89828a01613283565b979a9699509497509295939492505050565b6000806000806060858703121561335557600080fd5b843593506020850135613367816130fb565b9250604085013567ffffffffffffffff81111561338357600080fd5b61338f87828801613283565b95989497509550505050565b6000806000606084860312156133b057600080fd5b83356133bb816130fb565b925060208401356133cb816130fb565b929592945050506040919091013590565b600080604083850312156133ef57600080fd5b82356133fa816130fb565b946020939093013593505050565b6020808252601c908201527f53656e6420746f6b656e7320696e7374656164206f6620457468657200000000604082015260600190565b6001600160a01b039384168152919092166020820152604081019190915260600190565b60006020828403121561347557600080fd5b81516130db8161323c565b6000825160005b818110156134a15760208186018101518583015201613487565b506000920191825250919050565b634e487b7160e01b600052602160045260246000fd5b600481106134e357634e487b7160e01b600052602160045260246000fd5b9052565b60a081016134f582856134c5565b825160208301526020830151604083015260408301516060830152606083015160808301529392505050565b81810381811115612e6557612e65613083565b60006001820161354657613546613083565b5060010190565b6020808252601a908201527f496e73756666696369656e742045746865722062616c616e6365000000000000604082015260600190565b6020808252601a908201527f496e73756666696369656e7420746f6b656e2062616c616e6365000000000000604082015260600190565b606081016135c982866134c5565b921515602082015260400152919050565b6000602082840312156135ec57600080fd5b5051919050565b8082028115828204841417612e6557612e65613083565b60008261362757634e487b7160e01b600052601260045260246000fd5b50049056fea264697066735822122045d9486090f7ecf09c0f86bb0b6c7a74890fdffddf26f3559cf13a66ac8b00dd64736f6c63430008140033",
  "linkReferences": {},
  "deployedLinkReferences": {}
}