{
  "_format": "hh-sol-artifact-1",
  "contractName": "ForcaGame",
  "sourceName": "contracts/ForcaGame.sol",
  "abi": [
    {
      "inputs": [
        {
          "internalType": "address",
          "name": "_initialSigner",
          "type": "address"
        },
        {
          "internalType": "address",
          "name": "_passNFT",
          "type": "address"
        },
        {
          "internalType": "uint256",
          "name": "_extraPlays",
          "type": "uint256"
        },
        {
          "internalType": "uint256",
          "name": "_initialPassPrice",
          "type": "uint256"
        }
      ],
      "stateMutability": "nonpayable",
      "type": "constructor"
    },
    {
      "inputs": [],
      "name": "ECDSAInvalidSignature",
      "type": "error"
    },
    {
      "inputs": [
        {
          "internalType": "uint256",
          "name": "length",
          "type": "uint256"
        }
      ],
      "name": "ECDSAInvalidSignatureLength",
      "type": "error"
    },
    {
      "inputs": [
        {
          "internalType": "bytes32",
          "name": "s",
          "type": "bytes32"
        }
      ],
      "name": "ECDSAInvalidSignatureS",
      "type": "error"
    },
    {
      "inputs": [],
      "name": "EnforcedPause",
      "type": "error"
    },
    {
      "inputs": [],
      "name": "ExpectedPause",
      "type": "error"
    },
    {
      "inputs": [
        {
          "internalType": "address",
          "name": "owner",
          "type": "address"
        }
      ],
      "name": "OwnableInvalidOwner",
      "type": "error"
    },
    {
      "inputs": [
        {
          "internalType": "address",
          "name": "account",
          "type": "address"
        }
      ],
      "name": "OwnableUnauthorizedAccount",
      "type": "error"
    },
    {
      "inputs": [],
      "name": "ReentrancyGuardReentrantCall",
      "type": "error"
    },
    {
      "anonymous": false,
      "inputs": [
        {
          "indexed": true,
          "internalType": "address",
          "name": "player",
          "type": "address"
        },
        {
          "indexed": false,
          "internalType": "enum ForcaGame.GameMode",
          "name": "mode",
          "type": "uint8"
        },
        {
          "indexed": false,
          "internalType": "bool",
          "name": "won",
          "type": "bool"
        },
        {
          "indexed": false,
          "internalType": "uint256",
          "name": "reward",
          "type": "uint256"
        }
      ],
      "name": "GamePlayed",
      "type": "event"
    },
    {
      "anonymous": false,
      "inputs": [
        {
          "indexed": false,
          "internalType": "enum ForcaGame.GameMode",
          "name": "mode",
          "type": "uint8"
        },
        {
          "components": [
            {
              "internalType": "uint256",
              "name": "entryFee",
              "type": "uint256"
            },
            {
              "internalType": "uint256",
              "name": "baseReward",
              "type": "uint256"
            },
            {
              "internalType": "uint256",
              "name": "perfectReward",
              "type": "uint256"
            },
            {
              "internalType": "uint256",
              "name": "pvpReward",
              "type": "uint256"
            }
          ],
          "indexed": false,
          "internalType": "struct ForcaGame.ModeConfig",
          "name": "config",
          "type": "tuple"
        }
      ],
      "name": "ModeConfigUpdated",
      "type": "event"
    },
    {
      "anonymous": false,
      "inputs": [
        {
          "indexed": true,
          "internalType": "address",
          "name": "previousOwner",
          "type": "address"
        },
        {
          "indexed": true,
          "internalType": "address",
          "name": "newOwner",
          "type": "address"
        }
      ],
      "name": "OwnershipTransferred",
      "type": "event"
    },
    {
      "anonymous": false,
      "inputs": [
        {
          "indexed": false,
          "internalType": "address",
          "name": "mintAddress",
          "type": "address"
        }
      ],
      "name": "PassNFTMintAddressSet",
      "type": "event"
    },
    {
      "anonymous": false,
      "inputs": [
        {
          "indexed": true,
          "internalType": "address",
          "name": "buyer",
          "type": "address"
        }
      ],
      "name": "PassNFTMinted",
      "type": "event"
    },
    {
      "anonymous": false,
      "inputs": [
        {
          "indexed": false,
          "internalType": "uint256",
          "name": "newPrice",
          "type": "uint256"
        }
      ],
      "name": "PassNFTPriceUpdated",
      "type": "event"
    },
    {
      "anonymous": false,
      "inputs": [
        {
          "indexed": false,
          "internalType": "address",
          "name": "nftAddress",
          "type": "address"
        },
        {
          "indexed": false,
          "internalType": "uint256",
          "name": "extraPlays",
          "type": "uint256"
        }
      ],
      "name": "PassNFTUpdated",
      "type": "event"
    },
    {
      "anonymous": false,
      "inputs": [
        {
          "indexed": false,
          "internalType": "address",
          "name": "account",
          "type": "address"
        }
      ],
      "name": "Paused",
      "type": "event"
    },
    {
      "anonymous": false,
      "inputs": [
        {
          "indexed": false,
          "internalType": "uint256",
          "name": "matchId",
          "type": "uint256"
        },
        {
          "indexed": false,
          "internalType": "address",
          "name": "player1",
          "type": "address"
        }
      ],
      "name": "PvPMatchCreated",
      "type": "event"
    },
    {
      "anonymous": false,
      "inputs": [
        {
          "indexed": false,
          "internalType": "uint256",
          "name": "matchId",
          "type": "uint256"
        },
        {
          "indexed": false,
          "internalType": "address",
          "name": "winner",
          "type": "address"
        },
        {
          "indexed": false,
          "internalType": "uint256",
          "name": "reward",
          "type": "uint256"
        }
      ],
      "name": "PvPMatchEnded",
      "type": "event"
    },
    {
      "anonymous": false,
      "inputs": [
        {
          "indexed": false,
          "internalType": "uint256",
          "name": "matchId",
          "type": "uint256"
        },
        {
          "indexed": false,
          "internalType": "address",
          "name": "player2",
          "type": "address"
        }
      ],
      "name": "PvPMatchJoined",
      "type": "event"
    },
    {
      "anonymous": false,
      "inputs": [
        {
          "indexed": false,
          "internalType": "address",
          "name": "signer",
          "type": "address"
        },
        {
          "indexed": false,
          "internalType": "bool",
          "name": "status",
          "type": "bool"
        }
      ],
      "name": "TrustedSignerUpdated",
      "type": "event"
    },
    {
      "anonymous": false,
      "inputs": [
        {
          "indexed": false,
          "internalType": "address",
          "name": "account",
          "type": "address"
        }
      ],
      "name": "Unpaused",
      "type": "event"
    },
    {
      "inputs": [],
      "name": "buyAndMintPass",
      "outputs": [],
      "stateMutability": "payable",
      "type": "function"
    },
    {
      "inputs": [
        {
          "internalType": "uint256",
          "name": "matchId",
          "type": "uint256"
        }
      ],
      "name": "cancelPvPMatch",
      "outputs": [],
      "stateMutability": "nonpayable",
      "type": "function"
    },
    {
      "inputs": [
        {
          "internalType": "uint256",
          "name": "matchId",
          "type": "uint256"
        }
      ],
      "name": "confirmPvPMatch",
      "outputs": [],
      "stateMutability": "payable",
      "type": "function"
    },
    {
      "inputs": [],
      "name": "createPvPMatch",
      "outputs": [],
      "stateMutability": "nonpayable",
      "type": "function"
    },
    {
      "inputs": [
        {
          "internalType": "address",
          "name": "",
          "type": "address"
        },
        {
          "internalType": "enum ForcaGame.GameMode",
          "name": "",
          "type": "uint8"
        }
      ],
      "name": "dailyPlays",
      "outputs": [
        {
          "internalType": "uint256",
          "name": "",
          "type": "uint256"
        }
      ],
      "stateMutability": "view",
      "type": "function"
    },
    {
      "inputs": [
        {
          "internalType": "bool",
          "name": "won",
          "type": "bool"
        },
        {
          "internalType": "uint256",
          "name": "wordLength",
          "type": "uint256"
        },
        {
          "internalType": "uint256",
          "name": "tokenId",
          "type": "uint256"
        },
        {
          "internalType": "uint256",
          "name": "finalPoints",
          "type": "uint256"
        },
        {
          "internalType": "bytes",
          "name": "signature",
          "type": "bytes"
        }
      ],
      "name": "endGame",
      "outputs": [],
      "stateMutability": "nonpayable",
      "type": "function"
    },
    {
      "inputs": [],
      "name": "extraPlaysPerDay",
      "outputs": [
        {
          "internalType": "uint256",
          "name": "",
          "type": "uint256"
        }
      ],
      "stateMutability": "view",
      "type": "function"
    },
    {
      "inputs": [],
      "name": "getPlayerCount",
      "outputs": [
        {
          "internalType": "uint256",
          "name": "",
          "type": "uint256"
        }
      ],
      "stateMutability": "view",
      "type": "function"
    },
    {
      "inputs": [
        {
          "internalType": "uint256",
          "name": "matchId",
          "type": "uint256"
        }
      ],
      "name": "joinPvPMatch",
      "outputs": [],
      "stateMutability": "payable",
      "type": "function"
    },
    {
      "inputs": [
        {
          "internalType": "address",
          "name": "",
          "type": "address"
        }
      ],
      "name": "lastPlayDay",
      "outputs": [
        {
          "internalType": "uint256",
          "name": "",
          "type": "uint256"
        }
      ],
      "stateMutability": "view",
      "type": "function"
    },
    {
      "inputs": [],
      "name": "liquidityPool",
      "outputs": [
        {
          "internalType": "uint256",
          "name": "",
          "type": "uint256"
        }
      ],
      "stateMutability": "view",
      "type": "function"
    },
    {
      "inputs": [
        {
          "internalType": "enum ForcaGame.GameMode",
          "name": "",
          "type": "uint8"
        }
      ],
      "name": "modeConfigs",
      "outputs": [
        {
          "internalType": "uint256",
          "name": "entryFee",
          "type": "uint256"
        },
        {
          "internalType": "uint256",
          "name": "baseReward",
          "type": "uint256"
        },
        {
          "internalType": "uint256",
          "name": "perfectReward",
          "type": "uint256"
        },
        {
          "internalType": "uint256",
          "name": "pvpReward",
          "type": "uint256"
        }
      ],
      "stateMutability": "view",
      "type": "function"
    },
    {
      "inputs": [
        {
          "internalType": "address",
          "name": "",
          "type": "address"
        }
      ],
      "name": "openPvPMatchId",
      "outputs": [
        {
          "internalType": "uint256",
          "name": "",
          "type": "uint256"
        }
      ],
      "stateMutability": "view",
      "type": "function"
    },
    {
      "inputs": [],
      "name": "owner",
      "outputs": [
        {
          "internalType": "address",
          "name": "",
          "type": "address"
        }
      ],
      "stateMutability": "view",
      "type": "function"
    },
    {
      "inputs": [],
      "name": "passNFT",
      "outputs": [
        {
          "internalType": "contract IERC721",
          "name": "",
          "type": "address"
        }
      ],
      "stateMutability": "view",
      "type": "function"
    },
    {
      "inputs": [],
      "name": "passNFTMintAddress",
      "outputs": [
        {
          "internalType": "address",
          "name": "",
          "type": "address"
        }
      ],
      "stateMutability": "view",
      "type": "function"
    },
    {
      "inputs": [],
      "name": "passNFTPrice",
      "outputs": [
        {
          "internalType": "uint256",
          "name": "",
          "type": "uint256"
        }
      ],
      "stateMutability": "view",
      "type": "function"
    },
    {
      "inputs": [],
      "name": "paused",
      "outputs": [
        {
          "internalType": "bool",
          "name": "",
          "type": "bool"
        }
      ],
      "stateMutability": "view",
      "type": "function"
    },
    {
      "inputs": [
        {
          "internalType": "uint256",
          "name": "",
          "type": "uint256"
        }
      ],
      "name": "playerAddresses",
      "outputs": [
        {
          "internalType": "address",
          "name": "",
          "type": "address"
        }
      ],
      "stateMutability": "view",
      "type": "function"
    },
    {
      "inputs": [
        {
          "internalType": "address",
          "name": "",
          "type": "address"
        }
      ],
      "name": "players",
      "outputs": [
        {
          "internalType": "bool",
          "name": "",
          "type": "bool"
        }
      ],
      "stateMutability": "view",
      "type": "function"
    },
    {
      "inputs": [
        {
          "internalType": "address",
          "name": "",
          "type": "address"
        }
      ],
      "name": "points",
      "outputs": [
        {
          "internalType": "uint256",
          "name": "",
          "type": "uint256"
        }
      ],
      "stateMutability": "view",
      "type": "function"
    },
    {
      "inputs": [],
      "name": "pvpMatchCounter",
      "outputs": [
        {
          "internalType": "uint256",
          "name": "",
          "type": "uint256"
        }
      ],
      "stateMutability": "view",
      "type": "function"
    },
    {
      "inputs": [
        {
          "internalType": "uint256",
          "name": "",
          "type": "uint256"
        }
      ],
      "name": "pvpMatches",
      "outputs": [
        {
          "internalType": "address",
          "name": "player1",
          "type": "address"
        },
        {
          "internalType": "address",
          "name": "player2",
          "type": "address"
        },
        {
          "internalType": "uint256",
          "name": "entryAmount",
          "type": "uint256"
        },
        {
          "internalType": "bool",
          "name": "active",
          "type": "bool"
        },
        {
          "internalType": "bool",
          "name": "player1Paid",
          "type": "bool"
        },
        {
          "internalType": "bool",
          "name": "player2Paid",
          "type": "bool"
        }
      ],
      "stateMutability": "view",
      "type": "function"
    },
    {
      "inputs": [],
      "name": "renounceOwnership",
      "outputs": [],
      "stateMutability": "nonpayable",
      "type": "function"
    },
    {
      "inputs": [
        {
          "internalType": "uint256",
          "name": "matchId",
          "type": "uint256"
        },
        {
          "internalType": "address",
          "name": "winner",
          "type": "address"
        },
        {
          "internalType": "bytes",
          "name": "signature",
          "type": "bytes"
        }
      ],
      "name": "resolvePvPMatch",
      "outputs": [],
      "stateMutability": "nonpayable",
      "type": "function"
    },
    {
      "inputs": [
        {
          "internalType": "address",
          "name": "_mintAddress",
          "type": "address"
        }
      ],
      "name": "setPassNFTMintAddress",
      "outputs": [],
      "stateMutability": "nonpayable",
      "type": "function"
    },
    {
      "inputs": [
        {
          "internalType": "address",
          "name": "_signer",
          "type": "address"
        },
        {
          "internalType": "bool",
          "name": "_status",
          "type": "bool"
        }
      ],
      "name": "setTrustedSigner",
      "outputs": [],
      "stateMutability": "nonpayable",
      "type": "function"
    },
    {
      "inputs": [
        {
          "internalType": "enum ForcaGame.GameMode",
          "name": "mode",
          "type": "uint8"
        }
      ],
      "name": "startGame",
      "outputs": [],
      "stateMutability": "payable",
      "type": "function"
    },
    {
      "inputs": [
        {
          "internalType": "address",
          "name": "newOwner",
          "type": "address"
        }
      ],
      "name": "transferOwnership",
      "outputs": [],
      "stateMutability": "nonpayable",
      "type": "function"
    },
    {
      "inputs": [
        {
          "internalType": "address",
          "name": "",
          "type": "address"
        }
      ],
      "name": "trustedSigners",
      "outputs": [
        {
          "internalType": "bool",
          "name": "",
          "type": "bool"
        }
      ],
      "stateMutability": "view",
      "type": "function"
    },
    {
      "inputs": [
        {
          "internalType": "enum ForcaGame.GameMode",
          "name": "mode",
          "type": "uint8"
        },
        {
          "components": [
            {
              "internalType": "uint256",
              "name": "entryFee",
              "type": "uint256"
            },
            {
              "internalType": "uint256",
              "name": "baseReward",
              "type": "uint256"
            },
            {
              "internalType": "uint256",
              "name": "perfectReward",
              "type": "uint256"
            },
            {
              "internalType": "uint256",
              "name": "pvpReward",
              "type": "uint256"
            }
          ],
          "internalType": "struct ForcaGame.ModeConfig",
          "name": "config",
          "type": "tuple"
        }
      ],
      "name": "updateModeConfig",
      "outputs": [],
      "stateMutability": "nonpayable",
      "type": "function"
    },
    {
      "inputs": [
        {
          "internalType": "address",
          "name": "_nft",
          "type": "address"
        },
        {
          "internalType": "uint256",
          "name": "_extraPlays",
          "type": "uint256"
        }
      ],
      "name": "updatePassNFT",
      "outputs": [],
      "stateMutability": "nonpayable",
      "type": "function"
    },
    {
      "inputs": [
        {
          "internalType": "uint256",
          "name": "_newPrice",
          "type": "uint256"
        }
      ],
      "name": "updatePassNFTPrice",
      "outputs": [],
      "stateMutability": "nonpayable",
      "type": "function"
    },
    {
      "inputs": [
        {
          "internalType": "address payable",
          "name": "_to",
          "type": "address"
        },
        {
          "internalType": "uint256",
          "name": "_amount",
          "type": "uint256"
        }
      ],
      "name": "withdrawLiquidity",
      "outputs": [],
      "stateMutability": "nonpayable",
      "type": "function"
    },
    {
      "stateMutability": "payable",
      "type": "receive"
    }
  ],
  "bytecode": "0x608060405234801561001057600080fd5b5060405161564e38038061564e8339818101604052810190610032919061064a565b33600073ffffffffffffffffffffffffffffffffffffffff168173ffffffffffffffffffffffffffffffffffffffff16036100a55760006040517f1e4fbdf700000000000000000000000000000000000000000000000000000000815260040161009c91906106c0565b60405180910390fd5b6100b4816104ed60201b60201c565b5060018081905550600073ffffffffffffffffffffffffffffffffffffffff168473ffffffffffffffffffffffffffffffffffffffff160361012b576040517f08c379a000000000000000000000000000000000000000000000000000000000815260040161012290610738565b60405180910390fd5b6001600460008673ffffffffffffffffffffffffffffffffffffffff1673ffffffffffffffffffffffffffffffffffffffff16815260200190815260200160002060006101000a81548160ff021916908315150217905550604051806080016040528066b1a2bc2ec50000815260200166354a6ba7a180008152602001666a94d74f43000081526020016000815250600260008060038111156101d1576101d0610758565b5b60038111156101e3576101e2610758565b5b815260200190815260200160002060008201518160000155602082015181600101556040820151816002015560608201518160030155905050604051806080016040528067016345785d8a0000815260200167010a741a4627800081526020016701bc16d674ec800081526020016000815250600260006001600381111561026e5761026d610758565b5b60038111156102805761027f610758565b5b81526020019081526020016000206000820151816000015560208201518160010155604082015181600201556060820151816003015590505060405180608001604052806702c68af0bb1400008152602001670354a6ba7a1800008152602001670de0b6b3a764000081526020016000815250600260006002600381111561030b5761030a610758565b5b600381111561031d5761031c610758565b5b81526020019081526020016000206000820151816000015560208201518160010155604082015181600201556060820151816003015590505060405180608001604052806706f05b59d3b2000081526020016000815260200160008152602001670c7d713b49da0000815250600260006003808111156103a05761039f610758565b5b60038111156103b2576103b1610758565b5b81526020019081526020016000206000820151816000015560208201518160010155604082015181600201556060820151816003015590505082600e60006101000a81548173ffffffffffffffffffffffffffffffffffffffff021916908373ffffffffffffffffffffffffffffffffffffffff16021790555081600f81905550806011819055507faf5689dec9fb059a951122ef5f2e9363fe24220b8e21a048b3e65d590178cc5084600160405161046c9291906107a2565b60405180910390a17f824088ffe0a10a78ad47507b6070636658e8c3ef65958d8dc75982f3a146e33483836040516104a59291906107da565b60405180910390a17fa3d5fc1f9382a7504bea100dc55a7415ba5c5263d999ef14de3ca037886ac815816040516104dc9190610803565b60405180910390a15050505061081e565b60008060009054906101000a900473ffffffffffffffffffffffffffffffffffffffff169050816000806101000a81548173ffffffffffffffffffffffffffffffffffffffff021916908373ffffffffffffffffffffffffffffffffffffffff1602179055508173ffffffffffffffffffffffffffffffffffffffff168173ffffffffffffffffffffffffffffffffffffffff167f8be0079c531659141344cd1fd0a4f28419497f9722a3daafe3b4186f6b6457e060405160405180910390a35050565b600080fd5b600073ffffffffffffffffffffffffffffffffffffffff82169050919050565b60006105e1826105b6565b9050919050565b6105f1816105d6565b81146105fc57600080fd5b50565b60008151905061060e816105e8565b92915050565b6000819050919050565b61062781610614565b811461063257600080fd5b50565b6000815190506106448161061e565b92915050565b60008060008060808587031215610664576106636105b1565b5b6000610672878288016105ff565b9450506020610683878288016105ff565b935050604061069487828801610635565b92505060606106a587828801610635565b91505092959194509250565b6106ba816105d6565b82525050565b60006020820190506106d560008301846106b1565b92915050565b600082825260208201905092915050565b7f496e76616c6964207369676e6572000000000000000000000000000000000000600082015250565b6000610722600e836106db565b915061072d826106ec565b602082019050919050565b6000602082019050818103600083015261075181610715565b9050919050565b7f4e487b7100000000000000000000000000000000000000000000000000000000600052602160045260246000fd5b60008115159050919050565b61079c81610787565b82525050565b60006040820190506107b760008301856106b1565b6107c46020830184610793565b9392505050565b6107d481610614565b82525050565b60006040820190506107ef60008301856106b1565b6107fc60208301846107cb565b9392505050565b600060208201905061081860008301846107cb565b92915050565b614e218061082d6000396000f3fe6080604052600436106101fd5760003560e01c8063a2c2ec661161010d578063e1223e3f116100a0578063f32e368f1161006f578063f32e368f146106f5578063f4c45fb814610732578063f77776881461075d578063f83952691461079a578063ff287166146107b657610204565b8063e1223e3f14610636578063e2eb41ff14610673578063e6ab6079146106b0578063f2fde38b146106cc57610204565b8063c032180d116100dc578063c032180d1461058e578063c2e52206146105b7578063c47374a7146105e2578063d938ab421461060b57610204565b8063a2c2ec66146104fa578063a79dd84414610511578063a81569f91461053a578063bacf99461461056557610204565b80634c5c4f661161019057806377af88f11161015f57806377af88f1146103fc578063836b4d0e1461043e5780638563200c146104675780638da5cb5b146104925780639add0d5f146104bd57610204565b80634c5c4f66146103645780635c975abb1461038f578063665a11ca146103ba578063715018a6146103e557610204565b8063251d79a6116101cc578063251d79a6146102cb578063358b8166146102d557806337e6ab171461031257806346c53c631461033b57610204565b806306d47de9146102095780630ce43ca91461023257806315c6aee21461027257806317901fee146102af57610204565b3661020457005b600080fd5b34801561021557600080fd5b50610230600480360381019061022b919061342f565b6107df565b005b34801561023e57600080fd5b5061025960048036038101906102549190613494565b61090f565b60405161026994939291906134d0565b60405180910390f35b34801561027e57600080fd5b5061029960048036038101906102949190613515565b61093f565b6040516102a69190613563565b60405180910390f35b6102c960048036038101906102c49190613515565b61097e565b005b6102d3610bdd565b005b3480156102e157600080fd5b506102fc60048036038101906102f791906135aa565b610eba565b60405161030991906135d7565b60405180910390f35b34801561031e57600080fd5b5061033960048036038101906103349190613515565b610ed2565b005b34801561034757600080fd5b50610362600480360381019061035d91906136fb565b6110dd565b005b34801561037057600080fd5b506103796111ee565b60405161038691906135d7565b60405180910390f35b34801561039b57600080fd5b506103a46111f4565b6040516103b19190613756565b60405180910390f35b3480156103c657600080fd5b506103cf61120a565b6040516103dc91906135d7565b60405180910390f35b3480156103f157600080fd5b506103fa611210565b005b34801561040857600080fd5b50610423600480360381019061041e9190613515565b611224565b60405161043596959493929190613771565b60405180910390f35b34801561044a57600080fd5b50610465600480360381019061046091906135aa565b6112c7565b005b34801561047357600080fd5b5061047c6113b9565b60405161048991906135d7565b60405180910390f35b34801561049e57600080fd5b506104a76113bf565b6040516104b49190613563565b60405180910390f35b3480156104c957600080fd5b506104e460048036038101906104df91906137d2565b6113e8565b6040516104f191906135d7565b60405180910390f35b34801561050657600080fd5b5061050f61140d565b005b34801561051d57600080fd5b5061053860048036038101906105339190613515565b6116ea565b005b34801561054657600080fd5b5061054f611776565b60405161055c9190613563565b60405180910390f35b34801561057157600080fd5b5061058c6004803603810190610587919061383e565b61179c565b005b34801561059a57600080fd5b506105b560048036038101906105b091906138e3565b6118a7565b005b3480156105c357600080fd5b506105cc611d48565b6040516105d991906135d7565b60405180910390f35b3480156105ee57600080fd5b506106096004803603810190610604919061397d565b611d55565b005b34801561061757600080fd5b506106206122b8565b60405161062d9190613a50565b60405180910390f35b34801561064257600080fd5b5061065d600480360381019061065891906135aa565b6122de565b60405161066a91906135d7565b60405180910390f35b34801561067f57600080fd5b5061069a600480360381019061069591906135aa565b6122f6565b6040516106a79190613756565b60405180910390f35b6106ca60048036038101906106c59190613494565b612316565b005b3480156106d857600080fd5b506106f360048036038101906106ee91906135aa565b612557565b005b34801561070157600080fd5b5061071c600480360381019061071791906135aa565b6125dd565b60405161072991906135d7565b60405180910390f35b34801561073e57600080fd5b506107476125f5565b60405161075491906135d7565b60405180910390f35b34801561076957600080fd5b50610784600480360381019061077f91906135aa565b6125fb565b6040516107919190613756565b60405180910390f35b6107b460048036038101906107af9190613515565b61261b565b005b3480156107c257600080fd5b506107dd60048036038101906107d89190613a6b565b61286e565b005b6107e761296a565b6107ef6129f1565b600073ffffffffffffffffffffffffffffffffffffffff168273ffffffffffffffffffffffffffffffffffffffff160361085e576040517f08c379a000000000000000000000000000000000000000000000000000000000815260040161085590613b08565b60405180910390fd5b600d548111156108a3576040517f08c379a000000000000000000000000000000000000000000000000000000000815260040161089a90613b74565b60405180910390fd5b80600d60008282546108b59190613bc3565b925050819055508173ffffffffffffffffffffffffffffffffffffffff166108fc829081150290604051600060405180830381858888f19350505050158015610902573d6000803e3d6000fd5b5061090b612a37565b5050565b60026020528060005260406000206000915090508060000154908060010154908060020154908060030154905084565b600b818154811061094f57600080fd5b906000526020600020016000915054906101000a900473ffffffffffffffffffffffffffffffffffffffff1681565b610986612a40565b61098e6129f1565b60006008600083815260200190815260200160002090508060030160009054906101000a900460ff166109f6576040517f08c379a00000000000000000000000000000000000000000000000000000000081526004016109ed90613c43565b60405180910390fd5b600073ffffffffffffffffffffffffffffffffffffffff168160010160009054906101000a900473ffffffffffffffffffffffffffffffffffffffff1673ffffffffffffffffffffffffffffffffffffffff1614610a89576040517f08c379a0000000000000000000000000000000000000000000000000000000008152600401610a8090613caf565b60405180910390fd5b80600201543414610acf576040517f08c379a0000000000000000000000000000000000000000000000000000000008152600401610ac690613d1b565b60405180910390fd5b338160010160006101000a81548173ffffffffffffffffffffffffffffffffffffffff021916908373ffffffffffffffffffffffffffffffffffffffff16021790555060018160030160026101000a81548160ff0219169083151502179055506000600a60008360000160009054906101000a900473ffffffffffffffffffffffffffffffffffffffff1673ffffffffffffffffffffffffffffffffffffffff1673ffffffffffffffffffffffffffffffffffffffff168152602001908152602001600020819055507f2a8ce13c92209212cae267ea733205d6fb911a1b9ce01b262f371c5d5f6ffb338233604051610bc9929190613d3b565b60405180910390a150610bda612a37565b50565b610be5612a40565b610bed6129f1565b600073ffffffffffffffffffffffffffffffffffffffff16601060009054906101000a900473ffffffffffffffffffffffffffffffffffffffff1673ffffffffffffffffffffffffffffffffffffffff1603610c7e576040517f08c379a0000000000000000000000000000000000000000000000000000000008152600401610c7590613db0565b60405180910390fd5b6011543414610cc2576040517f08c379a0000000000000000000000000000000000000000000000000000000008152600401610cb990613e1c565b60405180910390fd5b610cca6113bf565b73ffffffffffffffffffffffffffffffffffffffff166108fc349081150290604051600060405180830381858888f19350505050158015610d0f573d6000803e3d6000fd5b506000601060009054906101000a900473ffffffffffffffffffffffffffffffffffffffff1673ffffffffffffffffffffffffffffffffffffffff1633604051602401610d5c9190613563565b6040516020818303038152906040527f6a627842000000000000000000000000000000000000000000000000000000007bffffffffffffffffffffffffffffffffffffffffffffffffffffffff19166020820180517bffffffffffffffffffffffffffffffffffffffffffffffffffffffff8381831617835250505050604051610de69190613ead565b6000604051808303816000865af19150503d8060008114610e23576040519150601f19603f3d011682016040523d82523d6000602084013e610e28565b606091505b5050905080610e6c576040517f08c379a0000000000000000000000000000000000000000000000000000000008152600401610e6390613f10565b60405180910390fd5b3373ffffffffffffffffffffffffffffffffffffffff167faf6bbe8906a697c539659b36e5dd4bb1f743a9b5b1e1404ab147fd55444bd8e260405160405180910390a250610eb8612a37565b565b60036020528060005260406000206000915090505481565b610eda612a40565b610ee26129f1565b60006008600083815260200190815260200160002090508060030160009054906101000a900460ff16610f4a576040517f08c379a0000000000000000000000000000000000000000000000000000000008152600401610f4190613c43565b60405180910390fd5b3373ffffffffffffffffffffffffffffffffffffffff168160000160009054906101000a900473ffffffffffffffffffffffffffffffffffffffff1673ffffffffffffffffffffffffffffffffffffffff1614610fdc576040517f08c379a0000000000000000000000000000000000000000000000000000000008152600401610fd390613f7c565b60405180910390fd5b600073ffffffffffffffffffffffffffffffffffffffff168160010160009054906101000a900473ffffffffffffffffffffffffffffffffffffffff1673ffffffffffffffffffffffffffffffffffffffff161461106f576040517f08c379a00000000000000000000000000000000000000000000000000000000081526004016110669061400e565b60405180910390fd5b60008160030160006101000a81548160ff0219169083151502179055506000600a60003373ffffffffffffffffffffffffffffffffffffffff1673ffffffffffffffffffffffffffffffffffffffff16815260200190815260200160002081905550506110da612a37565b50565b6110e561296a565b816003808111156110f9576110f861402e565b5b81600381111561110c5761110b61402e565b5b111561114d576040517f08c379a0000000000000000000000000000000000000000000000000000000008152600401611144906140a9565b60405180910390fd5b81600260008560038111156111655761116461402e565b5b60038111156111775761117661402e565b5b8152602001908152602001600020600082015181600001556020820151816001015560408201518160020155606082015181600301559050507f502630bc4b5c6b34c665de0764cb7b762ab360bfd5e995fdcaabd60da466c05283836040516111e1929190614175565b60405180910390a1505050565b600c5481565b60008060149054906101000a900460ff16905090565b600d5481565b61121861296a565b6112226000612a81565b565b60086020528060005260406000206000915090508060000160009054906101000a900473ffffffffffffffffffffffffffffffffffffffff16908060010160009054906101000a900473ffffffffffffffffffffffffffffffffffffffff16908060020154908060030160009054906101000a900460ff16908060030160019054906101000a900460ff16908060030160029054906101000a900460ff16905086565b6112cf61296a565b600073ffffffffffffffffffffffffffffffffffffffff168173ffffffffffffffffffffffffffffffffffffffff160361133e576040517f08c379a0000000000000000000000000000000000000000000000000000000008152600401611335906141ea565b60405180910390fd5b80601060006101000a81548173ffffffffffffffffffffffffffffffffffffffff021916908373ffffffffffffffffffffffffffffffffffffffff1602179055507fda6151fe78926158fc2dace6276b9e22725839220b437eb3110c8e9d5074948e816040516113ae9190613563565b60405180910390a150565b60115481565b60008060009054906101000a900473ffffffffffffffffffffffffffffffffffffffff16905090565b6006602052816000526040600020602052806000526040600020600091509150505481565b611415612a40565b6000600a60003373ffffffffffffffffffffffffffffffffffffffff1673ffffffffffffffffffffffffffffffffffffffff1681526020019081526020016000205414611497576040517f08c379a000000000000000000000000000000000000000000000000000000000815260040161148e9061427c565b60405180910390fd5b6114a2336003612b45565b600c60008154809291906114b59061429c565b91905055506040518060c001604052803373ffffffffffffffffffffffffffffffffffffffff168152602001600073ffffffffffffffffffffffffffffffffffffffff168152602001600260006003808111156115155761151461402e565b5b60038111156115275761152661402e565b5b81526020019081526020016000206000015481526020016001151581526020016000151581526020016000151581525060086000600c54815260200190815260200160002060008201518160000160006101000a81548173ffffffffffffffffffffffffffffffffffffffff021916908373ffffffffffffffffffffffffffffffffffffffff16021790555060208201518160010160006101000a81548173ffffffffffffffffffffffffffffffffffffffff021916908373ffffffffffffffffffffffffffffffffffffffff1602179055506040820151816002015560608201518160030160006101000a81548160ff02191690831515021790555060808201518160030160016101000a81548160ff02191690831515021790555060a08201518160030160026101000a81548160ff021916908315150217905550905050600c54600a60003373ffffffffffffffffffffffffffffffffffffffff1673ffffffffffffffffffffffffffffffffffffffff168152602001908152602001600020819055507fb40d367405328c6418ecdba8445c8f9f941f13f84387eb94efe52773fc73c5cc600c54336040516116e0929190613d3b565b60405180910390a1565b6116f261296a565b60008111611735576040517f08c379a000000000000000000000000000000000000000000000000000000000815260040161172c90614330565b60405180910390fd5b806011819055507fa3d5fc1f9382a7504bea100dc55a7415ba5c5263d999ef14de3ca037886ac8158160405161176b91906135d7565b60405180910390a150565b601060009054906101000a900473ffffffffffffffffffffffffffffffffffffffff1681565b6117a461296a565b600073ffffffffffffffffffffffffffffffffffffffff168273ffffffffffffffffffffffffffffffffffffffff1603611813576040517f08c379a000000000000000000000000000000000000000000000000000000000815260040161180a9061439c565b60405180910390fd5b80600460008473ffffffffffffffffffffffffffffffffffffffff1673ffffffffffffffffffffffffffffffffffffffff16815260200190815260200160002060006101000a81548160ff0219169083151502179055507faf5689dec9fb059a951122ef5f2e9363fe24220b8e21a048b3e65d590178cc50828260405161189b9291906143bc565b60405180910390a15050565b6118af612a40565b6118b76129f1565b600560003373ffffffffffffffffffffffffffffffffffffffff1673ffffffffffffffffffffffffffffffffffffffff16815260200190815260200160002060009054906101000a900460ff16611943576040517f08c379a000000000000000000000000000000000000000000000000000000000815260040161193a90614431565b60405180910390fd5b6000338787878760405160200161195e959493929190614502565b60405160208183030381529060405280519060200120905060006119818261302c565b905060006119d38286868080601f016020809104026020016040519081016040528093929190818152602001838380828437600081840152601f19601f8201169050808301925050505050505061305c565b9050600460008273ffffffffffffffffffffffffffffffffffffffff1673ffffffffffffffffffffffffffffffffffffffff16815260200190815260200160002060009054906101000a900460ff16611a61576040517f08c379a0000000000000000000000000000000000000000000000000000000008152600401611a58906145ad565b60405180910390fd5b6000600560003373ffffffffffffffffffffffffffffffffffffffff1673ffffffffffffffffffffffffffffffffffffffff16815260200190815260200160002060006101000a81548160ff0219169083151502179055508815611cd55785600360003373ffffffffffffffffffffffffffffffffffffffff1673ffffffffffffffffffffffffffffffffffffffff1681526020019081526020016000206000828254611b0e91906145cd565b92505081905550600960003373ffffffffffffffffffffffffffffffffffffffff1673ffffffffffffffffffffffffffffffffffffffff16815260200190815260200160002060009054906101000a900460ff16611c2257600b339080600181540180825580915050600190039060005260206000200160009091909190916101000a81548173ffffffffffffffffffffffffffffffffffffffff021916908373ffffffffffffffffffffffffffffffffffffffff1602179055506001600960003373ffffffffffffffffffffffffffffffffffffffff1673ffffffffffffffffffffffffffffffffffffffff16815260200190815260200160002060006101000a81548160ff0219169083151502179055505b6000611c2e8988613088565b905080471015611c73576040517f08c379a0000000000000000000000000000000000000000000000000000000008152600401611c6a9061464d565b60405180910390fd5b80600d6000828254611c859190613bc3565b925050819055503373ffffffffffffffffffffffffffffffffffffffff166108fc829081150290604051600060405180830381858888f19350505050158015611cd2573d6000803e3d6000fd5b50505b3373ffffffffffffffffffffffffffffffffffffffff167f966ee981edf070e0517694d572d64ec2008a5d8fdb20947494cb121175d1318160018b8c611d1c576000611d1e565b895b604051611d2d9392919061466d565b60405180910390a2505050611d40612a37565b505050505050565b6000600b80549050905090565b611d5d612a40565b611d656129f1565b60006008600086815260200190815260200160002090508060030160009054906101000a900460ff1615611dce576040517f08c379a0000000000000000000000000000000000000000000000000000000008152600401611dc5906146f0565b60405180910390fd5b8060030160019054906101000a900460ff168015611dfa57508060030160029054906101000a900460ff165b611e39576040517f08c379a0000000000000000000000000000000000000000000000000000000008152600401611e309061475c565b60405180910390fd5b8060000160009054906101000a900473ffffffffffffffffffffffffffffffffffffffff1673ffffffffffffffffffffffffffffffffffffffff168473ffffffffffffffffffffffffffffffffffffffff161480611ee657508060010160009054906101000a900473ffffffffffffffffffffffffffffffffffffffff1673ffffffffffffffffffffffffffffffffffffffff168473ffffffffffffffffffffffffffffffffffffffff16145b611f25576040517f08c379a0000000000000000000000000000000000000000000000000000000008152600401611f1c906147c8565b60405180910390fd5b60008585604051602001611f3a9291906147e8565b6040516020818303038152906040528051906020012090506000611f5d8261302c565b90506000611faf8287878080601f016020809104026020016040519081016040528093929190818152602001838380828437600081840152601f19601f8201169050808301925050505050505061305c565b9050600460008273ffffffffffffffffffffffffffffffffffffffff1673ffffffffffffffffffffffffffffffffffffffff16815260200190815260200160002060009054906101000a900460ff1661203d576040517f08c379a00000000000000000000000000000000000000000000000000000000081526004016120349061439c565b60405180910390fd5b6000600260006003808111156120565761205561402e565b5b60038111156120685761206761402e565b5b8152602001908152602001600020600301549050804710156120bf576040517f08c379a00000000000000000000000000000000000000000000000000000000081526004016120b690614860565b60405180910390fd5b600a600360008a73ffffffffffffffffffffffffffffffffffffffff1673ffffffffffffffffffffffffffffffffffffffff168152602001908152602001600020600082825461210f91906145cd565b92505081905550600960008973ffffffffffffffffffffffffffffffffffffffff1673ffffffffffffffffffffffffffffffffffffffff16815260200190815260200160002060009054906101000a900460ff1661222357600b889080600181540180825580915050600190039060005260206000200160009091909190916101000a81548173ffffffffffffffffffffffffffffffffffffffff021916908373ffffffffffffffffffffffffffffffffffffffff1602179055506001600960008a73ffffffffffffffffffffffffffffffffffffffff1673ffffffffffffffffffffffffffffffffffffffff16815260200190815260200160002060006101000a81548160ff0219169083151502179055505b8773ffffffffffffffffffffffffffffffffffffffff166108fc829081150290604051600060405180830381858888f19350505050158015612269573d6000803e3d6000fd5b507f6630bd61eea1cfcea35f6bc168121b2fdf1f07a9bc3d83c6696fe059cd40324a89898360405161229d93929190614880565b60405180910390a150505050506122b2612a37565b50505050565b600e60009054906101000a900473ffffffffffffffffffffffffffffffffffffffff1681565b600a6020528060005260406000206000915090505481565b60056020528060005260406000206000915054906101000a900460ff1681565b61231e612a40565b6123266129f1565b8060038081111561233a5761233961402e565b5b81600381111561234d5761234c61402e565b5b111561238e576040517f08c379a0000000000000000000000000000000000000000000000000000000008152600401612385906140a9565b60405180910390fd5b600560003373ffffffffffffffffffffffffffffffffffffffff1673ffffffffffffffffffffffffffffffffffffffff16815260200190815260200160002060009054906101000a900460ff161561241b576040517f08c379a000000000000000000000000000000000000000000000000000000000815260040161241290614903565b60405180910390fd5b6000600260008460038111156124345761243361402e565b5b60038111156124465761244561402e565b5b81526020019081526020016000206040518060800160405290816000820154815260200160018201548152602001600282015481526020016003820154815250509050806000015134146124cf576040517f08c379a00000000000000000000000000000000000000000000000000000000081526004016124c69061496f565b60405180910390fd5b34600d60008282546124e191906145cd565b925050819055506001600560003373ffffffffffffffffffffffffffffffffffffffff1673ffffffffffffffffffffffffffffffffffffffff16815260200190815260200160002060006101000a81548160ff02191690831515021790555061254a3384612b45565b5050612554612a37565b50565b61255f61296a565b600073ffffffffffffffffffffffffffffffffffffffff168173ffffffffffffffffffffffffffffffffffffffff16036125d15760006040517f1e4fbdf70000000000000000000000000000000000000000000000000000000081526004016125c89190613563565b60405180910390fd5b6125da81612a81565b50565b60076020528060005260406000206000915090505481565b600f5481565b60046020528060005260406000206000915054906101000a900460ff1681565b612623612a40565b61262b6129f1565b60006008600083815260200190815260200160002090508060000160009054906101000a900473ffffffffffffffffffffffffffffffffffffffff1673ffffffffffffffffffffffffffffffffffffffff163373ffffffffffffffffffffffffffffffffffffffff16146126d4576040517f08c379a00000000000000000000000000000000000000000000000000000000081526004016126cb906149db565b60405180910390fd5b600073ffffffffffffffffffffffffffffffffffffffff168160010160009054906101000a900473ffffffffffffffffffffffffffffffffffffffff1673ffffffffffffffffffffffffffffffffffffffff1603612767576040517f08c379a000000000000000000000000000000000000000000000000000000000815260040161275e90614a47565b60405180910390fd5b8060030160019054906101000a900460ff16156127b9576040517f08c379a00000000000000000000000000000000000000000000000000000000081526004016127b090614ab3565b60405180910390fd5b806002015434146127ff576040517f08c379a00000000000000000000000000000000000000000000000000000000081526004016127f690613d1b565b60405180910390fd5b60018160030160016101000a81548160ff02191690831515021790555060008160030160006101000a81548160ff0219169083151502179055506002816002015461284a9190614ad3565b600d600082825461285b91906145cd565b925050819055505061286b612a37565b50565b61287661296a565b600073ffffffffffffffffffffffffffffffffffffffff168273ffffffffffffffffffffffffffffffffffffffff16036128e5576040517f08c379a00000000000000000000000000000000000000000000000000000000081526004016128dc90614b61565b60405180910390fd5b81600e60006101000a81548173ffffffffffffffffffffffffffffffffffffffff021916908373ffffffffffffffffffffffffffffffffffffffff16021790555080600f819055507f824088ffe0a10a78ad47507b6070636658e8c3ef65958d8dc75982f3a146e334828260405161295e929190614b81565b60405180910390a15050565b6129726130cb565b73ffffffffffffffffffffffffffffffffffffffff166129906113bf565b73ffffffffffffffffffffffffffffffffffffffff16146129ef576129b36130cb565b6040517f118cdaa70000000000000000000000000000000000000000000000000000000081526004016129e69190613563565b60405180910390fd5b565b600260015403612a2d576040517f3ee5aeb500000000000000000000000000000000000000000000000000000000815260040160405180910390fd5b6002600181905550565b60018081905550565b612a486111f4565b15612a7f576040517fd93c066500000000000000000000000000000000000000000000000000000000815260040160405180910390fd5b565b60008060009054906101000a900473ffffffffffffffffffffffffffffffffffffffff169050816000806101000a81548173ffffffffffffffffffffffffffffffffffffffff021916908373ffffffffffffffffffffffffffffffffffffffff1602179055508173ffffffffffffffffffffffffffffffffffffffff168173ffffffffffffffffffffffffffffffffffffffff167f8be0079c531659141344cd1fd0a4f28419497f9722a3daafe3b4186f6b6457e060405160405180910390a35050565b60006201518042612b569190614bd9565b905080600760008573ffffffffffffffffffffffffffffffffffffffff1673ffffffffffffffffffffffffffffffffffffffff168152602001908152602001600020541015612dce576000600660008573ffffffffffffffffffffffffffffffffffffffff1673ffffffffffffffffffffffffffffffffffffffff1681526020019081526020016000206000806003811115612bf557612bf461402e565b5b6003811115612c0757612c0661402e565b5b8152602001908152602001600020819055506000600660008573ffffffffffffffffffffffffffffffffffffffff1673ffffffffffffffffffffffffffffffffffffffff168152602001908152602001600020600060016003811115612c7057612c6f61402e565b5b6003811115612c8257612c8161402e565b5b8152602001908152602001600020819055506000600660008573ffffffffffffffffffffffffffffffffffffffff1673ffffffffffffffffffffffffffffffffffffffff168152602001908152602001600020600060026003811115612ceb57612cea61402e565b5b6003811115612cfd57612cfc61402e565b5b8152602001908152602001600020819055506000600660008573ffffffffffffffffffffffffffffffffffffffff1673ffffffffffffffffffffffffffffffffffffffff1681526020019081526020016000206000600380811115612d6557612d6461402e565b5b6003811115612d7757612d7661402e565b5b81526020019081526020016000208190555080600760008573ffffffffffffffffffffffffffffffffffffffff1673ffffffffffffffffffffffffffffffffffffffff168152602001908152602001600020819055505b600060059050600073ffffffffffffffffffffffffffffffffffffffff16600e60009054906101000a900473ffffffffffffffffffffffffffffffffffffffff1673ffffffffffffffffffffffffffffffffffffffff1614158015612ece57506000600e60009054906101000a900473ffffffffffffffffffffffffffffffffffffffff1673ffffffffffffffffffffffffffffffffffffffff166370a08231866040518263ffffffff1660e01b8152600401612e8b9190613563565b602060405180830381865afa158015612ea8573d6000803e3d6000fd5b505050506040513d601f19601f82011682018060405250810190612ecc9190614c1f565b115b15612ee457600f5481612ee191906145cd565b90505b80600660008673ffffffffffffffffffffffffffffffffffffffff1673ffffffffffffffffffffffffffffffffffffffff1681526020019081526020016000206000856003811115612f3957612f3861402e565b5b6003811115612f4b57612f4a61402e565b5b81526020019081526020016000205410612f9a576040517f08c379a0000000000000000000000000000000000000000000000000000000008152600401612f9190614c98565b60405180910390fd5b6001600660008673ffffffffffffffffffffffffffffffffffffffff1673ffffffffffffffffffffffffffffffffffffffff1681526020019081526020016000206000856003811115612ff057612fef61402e565b5b60038111156130025761300161402e565b5b8152602001908152602001600020600082825461301f91906145cd565b9250508190555050505050565b60008160405160200161303f9190614d3a565b604051602081830303815290604052805190602001209050919050565b60008060008061306c86866130d3565b92509250925061307c828261312f565b82935050505092915050565b6000600c8311156130a257666a94d74f43000090506130c5565b60088311156130ba5766354a6ba7a1800090506130c5565b6611c37937e0800090505b92915050565b600033905090565b600080600060418451036131185760008060006020870151925060408701519150606087015160001a905061310a88828585613293565b955095509550505050613128565b60006002855160001b9250925092505b9250925092565b600060038111156131435761314261402e565b5b8260038111156131565761315561402e565b5b031561328f57600160038111156131705761316f61402e565b5b8260038111156131835761318261402e565b5b036131ba576040517ff645eedf00000000000000000000000000000000000000000000000000000000815260040160405180910390fd5b600260038111156131ce576131cd61402e565b5b8260038111156131e1576131e061402e565b5b03613226578060001c6040517ffce698f700000000000000000000000000000000000000000000000000000000815260040161321d91906135d7565b60405180910390fd5b6003808111156132395761323861402e565b5b82600381111561324c5761324b61402e565b5b0361328e57806040517fd78bce0c0000000000000000000000000000000000000000000000000000000081526004016132859190614d6f565b60405180910390fd5b5b5050565b60008060007f7fffffffffffffffffffffffffffffff5d576e7357a4501ddfe92f46681b20a08460001c11156132d357600060038592509250925061337d565b6000600188888888604051600081526020016040526040516132f89493929190614da6565b6020604051602081039080840390855afa15801561331a573d6000803e3d6000fd5b505050602060405103519050600073ffffffffffffffffffffffffffffffffffffffff168173ffffffffffffffffffffffffffffffffffffffff160361336e57600060016000801b9350935093505061337d565b8060008060001b935093509350505b9450945094915050565b6000604051905090565b600080fd5b600080fd5b600073ffffffffffffffffffffffffffffffffffffffff82169050919050565b60006133c68261339b565b9050919050565b6133d6816133bb565b81146133e157600080fd5b50565b6000813590506133f3816133cd565b92915050565b6000819050919050565b61340c816133f9565b811461341757600080fd5b50565b60008135905061342981613403565b92915050565b6000806040838503121561344657613445613391565b5b6000613454858286016133e4565b92505060206134658582860161341a565b9150509250929050565b6004811061347c57600080fd5b50565b60008135905061348e8161346f565b92915050565b6000602082840312156134aa576134a9613391565b5b60006134b88482850161347f565b91505092915050565b6134ca816133f9565b82525050565b60006080820190506134e560008301876134c1565b6134f260208301866134c1565b6134ff60408301856134c1565b61350c60608301846134c1565b95945050505050565b60006020828403121561352b5761352a613391565b5b60006135398482850161341a565b91505092915050565b600061354d8261339b565b9050919050565b61355d81613542565b82525050565b60006020820190506135786000830184613554565b92915050565b61358781613542565b811461359257600080fd5b50565b6000813590506135a48161357e565b92915050565b6000602082840312156135c0576135bf613391565b5b60006135ce84828501613595565b91505092915050565b60006020820190506135ec60008301846134c1565b92915050565b600080fd5b6000601f19601f8301169050919050565b7f4e487b7100000000000000000000000000000000000000000000000000000000600052604160045260246000fd5b613640826135f7565b810181811067ffffffffffffffff8211171561365f5761365e613608565b5b80604052505050565b6000613672613387565b905061367e8282613637565b919050565b600060808284031215613699576136986135f2565b5b6136a36080613668565b905060006136b38482850161341a565b60008301525060206136c78482850161341a565b60208301525060406136db8482850161341a565b60408301525060606136ef8482850161341a565b60608301525092915050565b60008060a0838503121561371257613711613391565b5b60006137208582860161347f565b925050602061373185828601613683565b9150509250929050565b60008115159050919050565b6137508161373b565b82525050565b600060208201905061376b6000830184613747565b92915050565b600060c0820190506137866000830189613554565b6137936020830188613554565b6137a060408301876134c1565b6137ad6060830186613747565b6137ba6080830185613747565b6137c760a0830184613747565b979650505050505050565b600080604083850312156137e9576137e8613391565b5b60006137f785828601613595565b92505060206138088582860161347f565b9150509250929050565b61381b8161373b565b811461382657600080fd5b50565b60008135905061383881613812565b92915050565b6000806040838503121561385557613854613391565b5b600061386385828601613595565b925050602061387485828601613829565b9150509250929050565b600080fd5b600080fd5b600080fd5b60008083601f8401126138a3576138a261387e565b5b8235905067ffffffffffffffff8111156138c0576138bf613883565b5b6020830191508360018202830111156138dc576138db613888565b5b9250929050565b60008060008060008060a08789031215613900576138ff613391565b5b600061390e89828a01613829565b965050602061391f89828a0161341a565b955050604061393089828a0161341a565b945050606061394189828a0161341a565b935050608087013567ffffffffffffffff81111561396257613961613396565b5b61396e89828a0161388d565b92509250509295509295509295565b6000806000806060858703121561399757613996613391565b5b60006139a58782880161341a565b94505060206139b687828801613595565b935050604085013567ffffffffffffffff8111156139d7576139d6613396565b5b6139e38782880161388d565b925092505092959194509250565b6000819050919050565b6000613a16613a11613a0c8461339b565b6139f1565b61339b565b9050919050565b6000613a28826139fb565b9050919050565b6000613a3a82613a1d565b9050919050565b613a4a81613a2f565b82525050565b6000602082019050613a656000830184613a41565b92915050565b60008060408385031215613a8257613a81613391565b5b6000613a9085828601613595565b9250506020613aa18582860161341a565b9150509250929050565b600082825260208201905092915050565b7f496e76616c696420726563697069656e74000000000000000000000000000000600082015250565b6000613af2601183613aab565b9150613afd82613abc565b602082019050919050565b60006020820190508181036000830152613b2181613ae5565b9050919050565b7f45786365656473206c697175696469747920706f6f6c00000000000000000000600082015250565b6000613b5e601683613aab565b9150613b6982613b28565b602082019050919050565b60006020820190508181036000830152613b8d81613b51565b9050919050565b7f4e487b7100000000000000000000000000000000000000000000000000000000600052601160045260246000fd5b6000613bce826133f9565b9150613bd9836133f9565b9250828203905081811115613bf157613bf0613b94565b5b92915050565b7f4d61746368206e6f742061637469766500000000000000000000000000000000600082015250565b6000613c2d601083613aab565b9150613c3882613bf7565b602082019050919050565b60006020820190508181036000830152613c5c81613c20565b9050919050565b7f416c7265616479206a6f696e6564000000000000000000000000000000000000600082015250565b6000613c99600e83613aab565b9150613ca482613c63565b602082019050919050565b60006020820190508181036000830152613cc881613c8c565b9050919050565b7f496e636f72726563742066656500000000000000000000000000000000000000600082015250565b6000613d05600d83613aab565b9150613d1082613ccf565b602082019050919050565b60006020820190508181036000830152613d3481613cf8565b9050919050565b6000604082019050613d5060008301856134c1565b613d5d6020830184613554565b9392505050565b7f4d696e7420636f6e7472616374206e6f74207365740000000000000000000000600082015250565b6000613d9a601583613aab565b9150613da582613d64565b602082019050919050565b60006020820190508181036000830152613dc981613d8d565b9050919050565b7f496e636f7272656374207061796d656e74000000000000000000000000000000600082015250565b6000613e06601183613aab565b9150613e1182613dd0565b602082019050919050565b60006020820190508181036000830152613e3581613df9565b9050919050565b600081519050919050565b600081905092915050565b60005b83811015613e70578082015181840152602081019050613e55565b60008484015250505050565b6000613e8782613e3c565b613e918185613e47565b9350613ea1818560208601613e52565b80840191505092915050565b6000613eb98284613e7c565b915081905092915050565b7f4d696e74206661696c6564000000000000000000000000000000000000000000600082015250565b6000613efa600b83613aab565b9150613f0582613ec4565b602082019050919050565b60006020820190508181036000830152613f2981613eed565b9050919050565b7f4f6e6c792063726561746f722063616e2063616e63656c000000000000000000600082015250565b6000613f66601783613aab565b9150613f7182613f30565b602082019050919050565b60006020820190508181036000830152613f9581613f59565b9050919050565b7f43616e6e6f742063616e63656c206166746572206f70706f6e656e74206a6f6960008201527f6e65640000000000000000000000000000000000000000000000000000000000602082015250565b6000613ff8602383613aab565b915061400382613f9c565b604082019050919050565b6000602082019050818103600083015261402781613feb565b9050919050565b7f4e487b7100000000000000000000000000000000000000000000000000000000600052602160045260246000fd5b7f496e76616c69642067616d65206d6f6465000000000000000000000000000000600082015250565b6000614093601183613aab565b915061409e8261405d565b602082019050919050565b600060208201905081810360008301526140c281614086565b9050919050565b600481106140da576140d961402e565b5b50565b60008190506140eb826140c9565b919050565b60006140fb826140dd565b9050919050565b61410b816140f0565b82525050565b61411a816133f9565b82525050565b6080820160008201516141366000850182614111565b5060208201516141496020850182614111565b50604082015161415c6040850182614111565b50606082015161416f6060850182614111565b50505050565b600060a08201905061418a6000830185614102565b6141976020830184614120565b9392505050565b7f496e76616c6964206d696e742061646472657373000000000000000000000000600082015250565b60006141d4601483613aab565b91506141df8261419e565b602082019050919050565b60006020820190508181036000830152614203816141c7565b9050919050565b7f596f7520616c7265616479206861766520616e206f70656e20507650206d617460008201527f6368000000000000000000000000000000000000000000000000000000000000602082015250565b6000614266602283613aab565b91506142718261420a565b604082019050919050565b6000602082019050818103600083015261429581614259565b9050919050565b60006142a7826133f9565b91507fffffffffffffffffffffffffffffffffffffffffffffffffffffffffffffffff82036142d9576142d8613b94565b5b600182019050919050565b7f5072696365206d757374206265203e2030000000000000000000000000000000600082015250565b600061431a601183613aab565b9150614325826142e4565b602082019050919050565b600060208201905081810360008301526143498161430d565b9050919050565b7f496e76616c6964207369676e6572000000000000000000000000000000000000600082015250565b6000614386600e83613aab565b915061439182614350565b602082019050919050565b600060208201905081810360008301526143b581614379565b9050919050565b60006040820190506143d16000830185613554565b6143de6020830184613747565b9392505050565b7f4e6f7420696e2067616d65000000000000000000000000000000000000000000600082015250565b600061441b600b83613aab565b9150614426826143e5565b602082019050919050565b6000602082019050818103600083015261444a8161440e565b9050919050565b60008160601b9050919050565b600061446982614451565b9050919050565b600061447b8261445e565b9050919050565b61449361448e82613542565b614470565b82525050565b60008160f81b9050919050565b60006144b182614499565b9050919050565b60006144c3826144a6565b9050919050565b6144db6144d68261373b565b6144b8565b82525050565b6000819050919050565b6144fc6144f7826133f9565b6144e1565b82525050565b600061450e8288614482565b60148201915061451e82876144ca565b60018201915061452e82866144eb565b60208201915061453e82856144eb565b60208201915061454e82846144eb565b6020820191508190509695505050505050565b7f496e76616c6964207369676e6174757265000000000000000000000000000000600082015250565b6000614597601183613aab565b91506145a282614561565b602082019050919050565b600060208201905081810360008301526145c68161458a565b9050919050565b60006145d8826133f9565b91506145e3836133f9565b92508282019050808211156145fb576145fa613b94565b5b92915050565b7f496e73756666696369656e742062616c616e6365000000000000000000000000600082015250565b6000614637601483613aab565b915061464282614601565b602082019050919050565b600060208201905081810360008301526146668161462a565b9050919050565b60006060820190506146826000830186614102565b61468f6020830185613747565b61469c60408301846134c1565b949350505050565b7f4d61746368206e6f742072656164790000000000000000000000000000000000600082015250565b60006146da600f83613aab565b91506146e5826146a4565b602082019050919050565b60006020820190508181036000830152614709816146cd565b9050919050565b7f426f746820706c6179657273206d757374207061790000000000000000000000600082015250565b6000614746601583613aab565b915061475182614710565b602082019050919050565b6000602082019050818103600083015261477581614739565b9050919050565b7f496e76616c69642077696e6e6572000000000000000000000000000000000000600082015250565b60006147b2600e83613aab565b91506147bd8261477c565b602082019050919050565b600060208201905081810360008301526147e1816147a5565b9050919050565b60006147f482856144eb565b6020820191506148048284614482565b6014820191508190509392505050565b7f496e73756666696369656e7420636f6e74726163742062616c616e6365000000600082015250565b600061484a601d83613aab565b915061485582614814565b602082019050919050565b600060208201905081810360008301526148798161483d565b9050919050565b600060608201905061489560008301866134c1565b6148a26020830185613554565b6148af60408301846134c1565b949350505050565b7f416c726561647920696e20612067616d65000000000000000000000000000000600082015250565b60006148ed601183613aab565b91506148f8826148b7565b602082019050919050565b6000602082019050818103600083015261491c816148e0565b9050919050565b7f496e636f727265637420656e7472792066656500000000000000000000000000600082015250565b6000614959601383613aab565b915061496482614923565b602082019050919050565b600060208201905081810360008301526149888161494c565b9050919050565b7f4f6e6c7920706c61796572312063616e20636f6e6669726d0000000000000000600082015250565b60006149c5601883613aab565b91506149d08261498f565b602082019050919050565b600060208201905081810360008301526149f4816149b8565b9050919050565b7f4e6f206f70706f6e656e74207965740000000000000000000000000000000000600082015250565b6000614a31600f83613aab565b9150614a3c826149fb565b602082019050919050565b60006020820190508181036000830152614a6081614a24565b9050919050565b7f416c726561647920706169640000000000000000000000000000000000000000600082015250565b6000614a9d600c83613aab565b9150614aa882614a67565b602082019050919050565b60006020820190508181036000830152614acc81614a90565b9050919050565b6000614ade826133f9565b9150614ae9836133f9565b9250828202614af7816133f9565b91508282048414831517614b0e57614b0d613b94565b5b5092915050565b7f496e76616c6964204e4654206164647265737300000000000000000000000000600082015250565b6000614b4b601383613aab565b9150614b5682614b15565b602082019050919050565b60006020820190508181036000830152614b7a81614b3e565b9050919050565b6000604082019050614b966000830185613554565b614ba360208301846134c1565b9392505050565b7f4e487b7100000000000000000000000000000000000000000000000000000000600052601260045260246000fd5b6000614be4826133f9565b9150614bef836133f9565b925082614bff57614bfe614baa565b5b828204905092915050565b600081519050614c1981613403565b92915050565b600060208284031215614c3557614c34613391565b5b6000614c4384828501614c0a565b91505092915050565b7f4461696c7920706c6179206c696d697420726561636865640000000000000000600082015250565b6000614c82601883613aab565b9150614c8d82614c4c565b602082019050919050565b60006020820190508181036000830152614cb181614c75565b9050919050565b600081905092915050565b7f19457468657265756d205369676e6564204d6573736167653a0a333200000000600082015250565b6000614cf9601c83614cb8565b9150614d0482614cc3565b601c82019050919050565b6000819050919050565b6000819050919050565b614d34614d2f82614d0f565b614d19565b82525050565b6000614d4582614cec565b9150614d518284614d23565b60208201915081905092915050565b614d6981614d0f565b82525050565b6000602082019050614d846000830184614d60565b92915050565b600060ff82169050919050565b614da081614d8a565b82525050565b6000608082019050614dbb6000830187614d60565b614dc86020830186614d97565b614dd56040830185614d60565b614de26060830184614d60565b9594505050505056fea26469706673582212201e6013c189cc4aad45c7938a46e665d5e1b971f4f3f1c139c06ce948faba531964736f6c634300081c0033",
  "linkReferences": {},
  "deployedLinkReferences": {}
}