{
  "_format": "hh-sol-artifact-1",
  "contractName": "ForcaGame",
  "sourceName": "contracts/ForcaGame.sol",
  "abi": [
    {
      "inputs": [
        {
          "internalType": "address",
          "name": "_initialSigner",
          "type": "address"
        },
        {
          "internalType": "address",
          "name": "_passNFT",
          "type": "address"
        },
        {
          "internalType": "uint256",
          "name": "_extraPlays",
          "type": "uint256"
        },
        {
          "internalType": "uint256",
          "name": "_initialPassPrice",
          "type": "uint256"
        }
      ],
      "stateMutability": "nonpayable",
      "type": "constructor"
    },
    {
      "inputs": [],
      "name": "ECDSAInvalidSignature",
      "type": "error"
    },
    {
      "inputs": [
        {
          "internalType": "uint256",
          "name": "length",
          "type": "uint256"
        }
      ],
      "name": "ECDSAInvalidSignatureLength",
      "type": "error"
    },
    {
      "inputs": [
        {
          "internalType": "bytes32",
          "name": "s",
          "type": "bytes32"
        }
      ],
      "name": "ECDSAInvalidSignatureS",
      "type": "error"
    },
    {
      "inputs": [],
      "name": "EnforcedPause",
      "type": "error"
    },
    {
      "inputs": [],
      "name": "ExpectedPause",
      "type": "error"
    },
    {
      "inputs": [
        {
          "internalType": "address",
          "name": "owner",
          "type": "address"
        }
      ],
      "name": "OwnableInvalidOwner",
      "type": "error"
    },
    {
      "inputs": [
        {
          "internalType": "address",
          "name": "account",
          "type": "address"
        }
      ],
      "name": "OwnableUnauthorizedAccount",
      "type": "error"
    },
    {
      "inputs": [],
      "name": "ReentrancyGuardReentrantCall",
      "type": "error"
    },
    {
      "anonymous": false,
      "inputs": [
        {
          "indexed": true,
          "internalType": "address",
          "name": "player",
          "type": "address"
        },
        {
          "indexed": false,
          "internalType": "enum ForcaGame.GameMode",
          "name": "mode",
          "type": "uint8"
        },
        {
          "indexed": false,
          "internalType": "bool",
          "name": "won",
          "type": "bool"
        },
        {
          "indexed": false,
          "internalType": "uint256",
          "name": "reward",
          "type": "uint256"
        }
      ],
      "name": "GamePlayed",
      "type": "event"
    },
    {
      "anonymous": false,
      "inputs": [
        {
          "indexed": false,
          "internalType": "enum ForcaGame.GameMode",
          "name": "mode",
          "type": "uint8"
        },
        {
          "components": [
            {
              "internalType": "uint256",
              "name": "entryFee",
              "type": "uint256"
            },
            {
              "internalType": "uint256",
              "name": "baseReward",
              "type": "uint256"
            },
            {
              "internalType": "uint256",
              "name": "perfectReward",
              "type": "uint256"
            },
            {
              "internalType": "uint256",
              "name": "pvpReward",
              "type": "uint256"
            }
          ],
          "indexed": false,
          "internalType": "struct ForcaGame.ModeConfig",
          "name": "config",
          "type": "tuple"
        }
      ],
      "name": "ModeConfigUpdated",
      "type": "event"
    },
    {
      "anonymous": false,
      "inputs": [
        {
          "indexed": true,
          "internalType": "address",
          "name": "previousOwner",
          "type": "address"
        },
        {
          "indexed": true,
          "internalType": "address",
          "name": "newOwner",
          "type": "address"
        }
      ],
      "name": "OwnershipTransferred",
      "type": "event"
    },
    {
      "anonymous": false,
      "inputs": [
        {
          "indexed": false,
          "internalType": "address",
          "name": "mintAddress",
          "type": "address"
        }
      ],
      "name": "PassNFTMintAddressSet",
      "type": "event"
    },
    {
      "anonymous": false,
      "inputs": [
        {
          "indexed": true,
          "internalType": "address",
          "name": "buyer",
          "type": "address"
        }
      ],
      "name": "PassNFTMinted",
      "type": "event"
    },
    {
      "anonymous": false,
      "inputs": [
        {
          "indexed": false,
          "internalType": "uint256",
          "name": "newPrice",
          "type": "uint256"
        }
      ],
      "name": "PassNFTPriceUpdated",
      "type": "event"
    },
    {
      "anonymous": false,
      "inputs": [
        {
          "indexed": false,
          "internalType": "address",
          "name": "nftAddress",
          "type": "address"
        },
        {
          "indexed": false,
          "internalType": "uint256",
          "name": "extraPlays",
          "type": "uint256"
        }
      ],
      "name": "PassNFTUpdated",
      "type": "event"
    },
    {
      "anonymous": false,
      "inputs": [
        {
          "indexed": false,
          "internalType": "address",
          "name": "account",
          "type": "address"
        }
      ],
      "name": "Paused",
      "type": "event"
    },
    {
      "anonymous": false,
      "inputs": [
        {
          "indexed": false,
          "internalType": "uint256",
          "name": "matchId",
          "type": "uint256"
        },
        {
          "indexed": false,
          "internalType": "address",
          "name": "player1",
          "type": "address"
        }
      ],
      "name": "PvPMatchCreated",
      "type": "event"
    },
    {
      "anonymous": false,
      "inputs": [
        {
          "indexed": false,
          "internalType": "uint256",
          "name": "matchId",
          "type": "uint256"
        },
        {
          "indexed": false,
          "internalType": "address",
          "name": "winner",
          "type": "address"
        },
        {
          "indexed": false,
          "internalType": "uint256",
          "name": "reward",
          "type": "uint256"
        }
      ],
      "name": "PvPMatchEnded",
      "type": "event"
    },
    {
      "anonymous": false,
      "inputs": [
        {
          "indexed": false,
          "internalType": "uint256",
          "name": "matchId",
          "type": "uint256"
        },
        {
          "indexed": false,
          "internalType": "address",
          "name": "player2",
          "type": "address"
        }
      ],
      "name": "PvPMatchJoined",
      "type": "event"
    },
    {
      "anonymous": false,
      "inputs": [
        {
          "indexed": false,
          "internalType": "address",
          "name": "signer",
          "type": "address"
        },
        {
          "indexed": false,
          "internalType": "bool",
          "name": "status",
          "type": "bool"
        }
      ],
      "name": "TrustedSignerUpdated",
      "type": "event"
    },
    {
      "anonymous": false,
      "inputs": [
        {
          "indexed": false,
          "internalType": "address",
          "name": "account",
          "type": "address"
        }
      ],
      "name": "Unpaused",
      "type": "event"
    },
    {
      "inputs": [],
      "name": "buyAndMintPass",
      "outputs": [],
      "stateMutability": "payable",
      "type": "function"
    },
    {
      "inputs": [
        {
          "internalType": "uint256",
          "name": "matchId",
          "type": "uint256"
        }
      ],
      "name": "cancelPvPMatch",
      "outputs": [],
      "stateMutability": "nonpayable",
      "type": "function"
    },
    {
      "inputs": [
        {
          "internalType": "uint256",
          "name": "matchId",
          "type": "uint256"
        }
      ],
      "name": "confirmPvPMatch",
      "outputs": [],
      "stateMutability": "payable",
      "type": "function"
    },
    {
      "inputs": [],
      "name": "createPvPMatch",
      "outputs": [],
      "stateMutability": "nonpayable",
      "type": "function"
    },
    {
      "inputs": [
        {
          "internalType": "address",
          "name": "",
          "type": "address"
        },
        {
          "internalType": "enum ForcaGame.GameMode",
          "name": "",
          "type": "uint8"
        }
      ],
      "name": "dailyPlays",
      "outputs": [
        {
          "internalType": "uint256",
          "name": "",
          "type": "uint256"
        }
      ],
      "stateMutability": "view",
      "type": "function"
    },
    {
      "inputs": [
        {
          "internalType": "bool",
          "name": "won",
          "type": "bool"
        },
        {
          "internalType": "uint256",
          "name": "wordLength",
          "type": "uint256"
        },
        {
          "internalType": "uint256",
          "name": "tokenId",
          "type": "uint256"
        },
        {
          "internalType": "uint256",
          "name": "finalPoints",
          "type": "uint256"
        },
        {
          "internalType": "bytes",
          "name": "signature",
          "type": "bytes"
        }
      ],
      "name": "endGame",
      "outputs": [],
      "stateMutability": "nonpayable",
      "type": "function"
    },
    {
      "inputs": [],
      "name": "extraPlaysPerDay",
      "outputs": [
        {
          "internalType": "uint256",
          "name": "",
          "type": "uint256"
        }
      ],
      "stateMutability": "view",
      "type": "function"
    },
    {
      "inputs": [],
      "name": "getPlayerCount",
      "outputs": [
        {
          "internalType": "uint256",
          "name": "",
          "type": "uint256"
        }
      ],
      "stateMutability": "view",
      "type": "function"
    },
    {
      "inputs": [
        {
          "internalType": "uint256",
          "name": "matchId",
          "type": "uint256"
        }
      ],
      "name": "joinPvPMatch",
      "outputs": [],
      "stateMutability": "payable",
      "type": "function"
    },
    {
      "inputs": [
        {
          "internalType": "address",
          "name": "",
          "type": "address"
        }
      ],
      "name": "lastPlayDay",
      "outputs": [
        {
          "internalType": "uint256",
          "name": "",
          "type": "uint256"
        }
      ],
      "stateMutability": "view",
      "type": "function"
    },
    {
      "inputs": [],
      "name": "liquidityPool",
      "outputs": [
        {
          "internalType": "uint256",
          "name": "",
          "type": "uint256"
        }
      ],
      "stateMutability": "view",
      "type": "function"
    },
    {
      "inputs": [
        {
          "internalType": "enum ForcaGame.GameMode",
          "name": "",
          "type": "uint8"
        }
      ],
      "name": "modeConfigs",
      "outputs": [
        {
          "internalType": "uint256",
          "name": "entryFee",
          "type": "uint256"
        },
        {
          "internalType": "uint256",
          "name": "baseReward",
          "type": "uint256"
        },
        {
          "internalType": "uint256",
          "name": "perfectReward",
          "type": "uint256"
        },
        {
          "internalType": "uint256",
          "name": "pvpReward",
          "type": "uint256"
        }
      ],
      "stateMutability": "view",
      "type": "function"
    },
    {
      "inputs": [
        {
          "internalType": "address",
          "name": "",
          "type": "address"
        }
      ],
      "name": "openPvPMatchId",
      "outputs": [
        {
          "internalType": "uint256",
          "name": "",
          "type": "uint256"
        }
      ],
      "stateMutability": "view",
      "type": "function"
    },
    {
      "inputs": [],
      "name": "owner",
      "outputs": [
        {
          "internalType": "address",
          "name": "",
          "type": "address"
        }
      ],
      "stateMutability": "view",
      "type": "function"
    },
    {
      "inputs": [],
      "name": "passNFT",
      "outputs": [
        {
          "internalType": "contract IERC721",
          "name": "",
          "type": "address"
        }
      ],
      "stateMutability": "view",
      "type": "function"
    },
    {
      "inputs": [],
      "name": "passNFTMintAddress",
      "outputs": [
        {
          "internalType": "address",
          "name": "",
          "type": "address"
        }
      ],
      "stateMutability": "view",
      "type": "function"
    },
    {
      "inputs": [],
      "name": "passNFTPrice",
      "outputs": [
        {
          "internalType": "uint256",
          "name": "",
          "type": "uint256"
        }
      ],
      "stateMutability": "view",
      "type": "function"
    },
    {
      "inputs": [],
      "name": "paused",
      "outputs": [
        {
          "internalType": "bool",
          "name": "",
          "type": "bool"
        }
      ],
      "stateMutability": "view",
      "type": "function"
    },
    {
      "inputs": [
        {
          "internalType": "uint256",
          "name": "",
          "type": "uint256"
        }
      ],
      "name": "playerAddresses",
      "outputs": [
        {
          "internalType": "address",
          "name": "",
          "type": "address"
        }
      ],
      "stateMutability": "view",
      "type": "function"
    },
    {
      "inputs": [
        {
          "internalType": "address",
          "name": "",
          "type": "address"
        }
      ],
      "name": "players",
      "outputs": [
        {
          "internalType": "bool",
          "name": "",
          "type": "bool"
        }
      ],
      "stateMutability": "view",
      "type": "function"
    },
    {
      "inputs": [
        {
          "internalType": "address",
          "name": "",
          "type": "address"
        }
      ],
      "name": "points",
      "outputs": [
        {
          "internalType": "uint256",
          "name": "",
          "type": "uint256"
        }
      ],
      "stateMutability": "view",
      "type": "function"
    },
    {
      "inputs": [],
      "name": "pvpMatchCounter",
      "outputs": [
        {
          "internalType": "uint256",
          "name": "",
          "type": "uint256"
        }
      ],
      "stateMutability": "view",
      "type": "function"
    },
    {
      "inputs": [
        {
          "internalType": "uint256",
          "name": "",
          "type": "uint256"
        }
      ],
      "name": "pvpMatches",
      "outputs": [
        {
          "internalType": "address",
          "name": "player1",
          "type": "address"
        },
        {
          "internalType": "address",
          "name": "player2",
          "type": "address"
        },
        {
          "internalType": "uint256",
          "name": "entryAmount",
          "type": "uint256"
        },
        {
          "internalType": "bool",
          "name": "active",
          "type": "bool"
        },
        {
          "internalType": "bool",
          "name": "player1Paid",
          "type": "bool"
        },
        {
          "internalType": "bool",
          "name": "player2Paid",
          "type": "bool"
        }
      ],
      "stateMutability": "view",
      "type": "function"
    },
    {
      "inputs": [],
      "name": "renounceOwnership",
      "outputs": [],
      "stateMutability": "nonpayable",
      "type": "function"
    },
    {
      "inputs": [
        {
          "internalType": "uint256",
          "name": "matchId",
          "type": "uint256"
        },
        {
          "internalType": "address",
          "name": "winner",
          "type": "address"
        },
        {
          "internalType": "bytes",
          "name": "signature",
          "type": "bytes"
        }
      ],
      "name": "resolvePvPMatch",
      "outputs": [],
      "stateMutability": "nonpayable",
      "type": "function"
    },
    {
      "inputs": [
        {
          "internalType": "address",
          "name": "_mintAddress",
          "type": "address"
        }
      ],
      "name": "setPassNFTMintAddress",
      "outputs": [],
      "stateMutability": "nonpayable",
      "type": "function"
    },
    {
      "inputs": [
        {
          "internalType": "address",
          "name": "_signer",
          "type": "address"
        },
        {
          "internalType": "bool",
          "name": "_status",
          "type": "bool"
        }
      ],
      "name": "setTrustedSigner",
      "outputs": [],
      "stateMutability": "nonpayable",
      "type": "function"
    },
    {
      "inputs": [
        {
          "internalType": "enum ForcaGame.GameMode",
          "name": "mode",
          "type": "uint8"
        }
      ],
      "name": "startGame",
      "outputs": [],
      "stateMutability": "payable",
      "type": "function"
    },
    {
      "inputs": [
        {
          "internalType": "address",
          "name": "newOwner",
          "type": "address"
        }
      ],
      "name": "transferOwnership",
      "outputs": [],
      "stateMutability": "nonpayable",
      "type": "function"
    },
    {
      "inputs": [
        {
          "internalType": "address",
          "name": "",
          "type": "address"
        }
      ],
      "name": "trustedSigners",
      "outputs": [
        {
          "internalType": "bool",
          "name": "",
          "type": "bool"
        }
      ],
      "stateMutability": "view",
      "type": "function"
    },
    {
      "inputs": [
        {
          "internalType": "enum ForcaGame.GameMode",
          "name": "mode",
          "type": "uint8"
        },
        {
          "components": [
            {
              "internalType": "uint256",
              "name": "entryFee",
              "type": "uint256"
            },
            {
              "internalType": "uint256",
              "name": "baseReward",
              "type": "uint256"
            },
            {
              "internalType": "uint256",
              "name": "perfectReward",
              "type": "uint256"
            },
            {
              "internalType": "uint256",
              "name": "pvpReward",
              "type": "uint256"
            }
          ],
          "internalType": "struct ForcaGame.ModeConfig",
          "name": "config",
          "type": "tuple"
        }
      ],
      "name": "updateModeConfig",
      "outputs": [],
      "stateMutability": "nonpayable",
      "type": "function"
    },
    {
      "inputs": [
        {
          "internalType": "address",
          "name": "_nft",
          "type": "address"
        },
        {
          "internalType": "uint256",
          "name": "_extraPlays",
          "type": "uint256"
        }
      ],
      "name": "updatePassNFT",
      "outputs": [],
      "stateMutability": "nonpayable",
      "type": "function"
    },
    {
      "inputs": [
        {
          "internalType": "uint256",
          "name": "_newPrice",
          "type": "uint256"
        }
      ],
      "name": "updatePassNFTPrice",
      "outputs": [],
      "stateMutability": "nonpayable",
      "type": "function"
    },
    {
      "inputs": [
        {
          "internalType": "address payable",
          "name": "_to",
          "type": "address"
        },
        {
          "internalType": "uint256",
          "name": "_amount",
          "type": "uint256"
        }
      ],
      "name": "withdrawLiquidity",
      "outputs": [],
      "stateMutability": "nonpayable",
      "type": "function"
    },
    {
      "stateMutability": "payable",
      "type": "receive"
    }
  ],
  "bytecode": "0x608060405234801561001057600080fd5b506040516156003803806156008339818101604052810190610032919061064a565b33600073ffffffffffffffffffffffffffffffffffffffff168173ffffffffffffffffffffffffffffffffffffffff16036100a55760006040517f1e4fbdf700000000000000000000000000000000000000000000000000000000815260040161009c91906106c0565b60405180910390fd5b6100b4816104ed60201b60201c565b5060018081905550600073ffffffffffffffffffffffffffffffffffffffff168473ffffffffffffffffffffffffffffffffffffffff160361012b576040517f08c379a000000000000000000000000000000000000000000000000000000000815260040161012290610738565b60405180910390fd5b6001600460008673ffffffffffffffffffffffffffffffffffffffff1673ffffffffffffffffffffffffffffffffffffffff16815260200190815260200160002060006101000a81548160ff021916908315150217905550604051806080016040528066b1a2bc2ec50000815260200166354a6ba7a180008152602001666a94d74f43000081526020016000815250600260008060038111156101d1576101d0610758565b5b60038111156101e3576101e2610758565b5b815260200190815260200160002060008201518160000155602082015181600101556040820151816002015560608201518160030155905050604051806080016040528067016345785d8a0000815260200167010a741a4627800081526020016701bc16d674ec800081526020016000815250600260006001600381111561026e5761026d610758565b5b60038111156102805761027f610758565b5b81526020019081526020016000206000820151816000015560208201518160010155604082015181600201556060820151816003015590505060405180608001604052806702c68af0bb1400008152602001670354a6ba7a1800008152602001670de0b6b3a764000081526020016000815250600260006002600381111561030b5761030a610758565b5b600381111561031d5761031c610758565b5b81526020019081526020016000206000820151816000015560208201518160010155604082015181600201556060820151816003015590505060405180608001604052806706f05b59d3b2000081526020016000815260200160008152602001670c7d713b49da0000815250600260006003808111156103a05761039f610758565b5b60038111156103b2576103b1610758565b5b81526020019081526020016000206000820151816000015560208201518160010155604082015181600201556060820151816003015590505082600e60006101000a81548173ffffffffffffffffffffffffffffffffffffffff021916908373ffffffffffffffffffffffffffffffffffffffff16021790555081600f81905550806011819055507faf5689dec9fb059a951122ef5f2e9363fe24220b8e21a048b3e65d590178cc5084600160405161046c9291906107a2565b60405180910390a17f824088ffe0a10a78ad47507b6070636658e8c3ef65958d8dc75982f3a146e33483836040516104a59291906107da565b60405180910390a17fa3d5fc1f9382a7504bea100dc55a7415ba5c5263d999ef14de3ca037886ac815816040516104dc9190610803565b60405180910390a15050505061081e565b60008060009054906101000a900473ffffffffffffffffffffffffffffffffffffffff169050816000806101000a81548173ffffffffffffffffffffffffffffffffffffffff021916908373ffffffffffffffffffffffffffffffffffffffff1602179055508173ffffffffffffffffffffffffffffffffffffffff168173ffffffffffffffffffffffffffffffffffffffff167f8be0079c531659141344cd1fd0a4f28419497f9722a3daafe3b4186f6b6457e060405160405180910390a35050565b600080fd5b600073ffffffffffffffffffffffffffffffffffffffff82169050919050565b60006105e1826105b6565b9050919050565b6105f1816105d6565b81146105fc57600080fd5b50565b60008151905061060e816105e8565b92915050565b6000819050919050565b61062781610614565b811461063257600080fd5b50565b6000815190506106448161061e565b92915050565b60008060008060808587031215610664576106636105b1565b5b6000610672878288016105ff565b9450506020610683878288016105ff565b935050604061069487828801610635565b92505060606106a587828801610635565b91505092959194509250565b6106ba816105d6565b82525050565b60006020820190506106d560008301846106b1565b92915050565b600082825260208201905092915050565b7f496e76616c6964207369676e6572000000000000000000000000000000000000600082015250565b6000610722600e836106db565b915061072d826106ec565b602082019050919050565b6000602082019050818103600083015261075181610715565b9050919050565b7f4e487b7100000000000000000000000000000000000000000000000000000000600052602160045260246000fd5b60008115159050919050565b61079c81610787565b82525050565b60006040820190506107b760008301856106b1565b6107c46020830184610793565b9392505050565b6107d481610614565b82525050565b60006040820190506107ef60008301856106b1565b6107fc60208301846107cb565b9392505050565b600060208201905061081860008301846107cb565b92915050565b614dd38061082d6000396000f3fe6080604052600436106101fd5760003560e01c8063a2c2ec661161010d578063e1223e3f116100a0578063f32e368f1161006f578063f32e368f146106f5578063f4c45fb814610732578063f77776881461075d578063f83952691461079a578063ff287166146107b657610204565b8063e1223e3f14610636578063e2eb41ff14610673578063e6ab6079146106b0578063f2fde38b146106cc57610204565b8063c032180d116100dc578063c032180d1461058e578063c2e52206146105b7578063c47374a7146105e2578063d938ab421461060b57610204565b8063a2c2ec66146104fa578063a79dd84414610511578063a81569f91461053a578063bacf99461461056557610204565b80634c5c4f661161019057806377af88f11161015f57806377af88f1146103fc578063836b4d0e1461043e5780638563200c146104675780638da5cb5b146104925780639add0d5f146104bd57610204565b80634c5c4f66146103645780635c975abb1461038f578063665a11ca146103ba578063715018a6146103e557610204565b8063251d79a6116101cc578063251d79a6146102cb578063358b8166146102d557806337e6ab171461031257806346c53c631461033b57610204565b806306d47de9146102095780630ce43ca91461023257806315c6aee21461027257806317901fee146102af57610204565b3661020457005b600080fd5b34801561021557600080fd5b50610230600480360381019061022b91906133e1565b6107df565b005b34801561023e57600080fd5b5061025960048036038101906102549190613446565b61090f565b6040516102699493929190613482565b60405180910390f35b34801561027e57600080fd5b50610299600480360381019061029491906134c7565b61093f565b6040516102a69190613515565b60405180910390f35b6102c960048036038101906102c491906134c7565b61097e565b005b6102d3610bdd565b005b3480156102e157600080fd5b506102fc60048036038101906102f7919061355c565b610e6c565b6040516103099190613589565b60405180910390f35b34801561031e57600080fd5b50610339600480360381019061033491906134c7565b610e84565b005b34801561034757600080fd5b50610362600480360381019061035d91906136ad565b61108f565b005b34801561037057600080fd5b506103796111a0565b6040516103869190613589565b60405180910390f35b34801561039b57600080fd5b506103a46111a6565b6040516103b19190613708565b60405180910390f35b3480156103c657600080fd5b506103cf6111bc565b6040516103dc9190613589565b60405180910390f35b3480156103f157600080fd5b506103fa6111c2565b005b34801561040857600080fd5b50610423600480360381019061041e91906134c7565b6111d6565b60405161043596959493929190613723565b60405180910390f35b34801561044a57600080fd5b506104656004803603810190610460919061355c565b611279565b005b34801561047357600080fd5b5061047c61136b565b6040516104899190613589565b60405180910390f35b34801561049e57600080fd5b506104a7611371565b6040516104b49190613515565b60405180910390f35b3480156104c957600080fd5b506104e460048036038101906104df9190613784565b61139a565b6040516104f19190613589565b60405180910390f35b34801561050657600080fd5b5061050f6113bf565b005b34801561051d57600080fd5b50610538600480360381019061053391906134c7565b61169c565b005b34801561054657600080fd5b5061054f611728565b60405161055c9190613515565b60405180910390f35b34801561057157600080fd5b5061058c600480360381019061058791906137f0565b61174e565b005b34801561059a57600080fd5b506105b560048036038101906105b09190613895565b611859565b005b3480156105c357600080fd5b506105cc611cfa565b6040516105d99190613589565b60405180910390f35b3480156105ee57600080fd5b506106096004803603810190610604919061392f565b611d07565b005b34801561061757600080fd5b5061062061226a565b60405161062d9190613a02565b60405180910390f35b34801561064257600080fd5b5061065d6004803603810190610658919061355c565b612290565b60405161066a9190613589565b60405180910390f35b34801561067f57600080fd5b5061069a6004803603810190610695919061355c565b6122a8565b6040516106a79190613708565b60405180910390f35b6106ca60048036038101906106c59190613446565b6122c8565b005b3480156106d857600080fd5b506106f360048036038101906106ee919061355c565b612509565b005b34801561070157600080fd5b5061071c6004803603810190610717919061355c565b61258f565b6040516107299190613589565b60405180910390f35b34801561073e57600080fd5b506107476125a7565b6040516107549190613589565b60405180910390f35b34801561076957600080fd5b50610784600480360381019061077f919061355c565b6125ad565b6040516107919190613708565b60405180910390f35b6107b460048036038101906107af91906134c7565b6125cd565b005b3480156107c257600080fd5b506107dd60048036038101906107d89190613a1d565b612820565b005b6107e761291c565b6107ef6129a3565b600073ffffffffffffffffffffffffffffffffffffffff168273ffffffffffffffffffffffffffffffffffffffff160361085e576040517f08c379a000000000000000000000000000000000000000000000000000000000815260040161085590613aba565b60405180910390fd5b600d548111156108a3576040517f08c379a000000000000000000000000000000000000000000000000000000000815260040161089a90613b26565b60405180910390fd5b80600d60008282546108b59190613b75565b925050819055508173ffffffffffffffffffffffffffffffffffffffff166108fc829081150290604051600060405180830381858888f19350505050158015610902573d6000803e3d6000fd5b5061090b6129e9565b5050565b60026020528060005260406000206000915090508060000154908060010154908060020154908060030154905084565b600b818154811061094f57600080fd5b906000526020600020016000915054906101000a900473ffffffffffffffffffffffffffffffffffffffff1681565b6109866129f2565b61098e6129a3565b60006008600083815260200190815260200160002090508060030160009054906101000a900460ff166109f6576040517f08c379a00000000000000000000000000000000000000000000000000000000081526004016109ed90613bf5565b60405180910390fd5b600073ffffffffffffffffffffffffffffffffffffffff168160010160009054906101000a900473ffffffffffffffffffffffffffffffffffffffff1673ffffffffffffffffffffffffffffffffffffffff1614610a89576040517f08c379a0000000000000000000000000000000000000000000000000000000008152600401610a8090613c61565b60405180910390fd5b80600201543414610acf576040517f08c379a0000000000000000000000000000000000000000000000000000000008152600401610ac690613ccd565b60405180910390fd5b338160010160006101000a81548173ffffffffffffffffffffffffffffffffffffffff021916908373ffffffffffffffffffffffffffffffffffffffff16021790555060018160030160026101000a81548160ff0219169083151502179055506000600a60008360000160009054906101000a900473ffffffffffffffffffffffffffffffffffffffff1673ffffffffffffffffffffffffffffffffffffffff1673ffffffffffffffffffffffffffffffffffffffff168152602001908152602001600020819055507f2a8ce13c92209212cae267ea733205d6fb911a1b9ce01b262f371c5d5f6ffb338233604051610bc9929190613ced565b60405180910390a150610bda6129e9565b50565b610be56129f2565b610bed6129a3565b600073ffffffffffffffffffffffffffffffffffffffff16601060009054906101000a900473ffffffffffffffffffffffffffffffffffffffff1673ffffffffffffffffffffffffffffffffffffffff1603610c7e576040517f08c379a0000000000000000000000000000000000000000000000000000000008152600401610c7590613d62565b60405180910390fd5b6011543414610cc2576040517f08c379a0000000000000000000000000000000000000000000000000000000008152600401610cb990613dce565b60405180910390fd5b6000601060009054906101000a900473ffffffffffffffffffffffffffffffffffffffff1673ffffffffffffffffffffffffffffffffffffffff1633604051602401610d0e9190613515565b6040516020818303038152906040527f6a627842000000000000000000000000000000000000000000000000000000007bffffffffffffffffffffffffffffffffffffffffffffffffffffffff19166020820180517bffffffffffffffffffffffffffffffffffffffffffffffffffffffff8381831617835250505050604051610d989190613e5f565b6000604051808303816000865af19150503d8060008114610dd5576040519150601f19603f3d011682016040523d82523d6000602084013e610dda565b606091505b5050905080610e1e576040517f08c379a0000000000000000000000000000000000000000000000000000000008152600401610e1590613ec2565b60405180910390fd5b3373ffffffffffffffffffffffffffffffffffffffff167faf6bbe8906a697c539659b36e5dd4bb1f743a9b5b1e1404ab147fd55444bd8e260405160405180910390a250610e6a6129e9565b565b60036020528060005260406000206000915090505481565b610e8c6129f2565b610e946129a3565b60006008600083815260200190815260200160002090508060030160009054906101000a900460ff16610efc576040517f08c379a0000000000000000000000000000000000000000000000000000000008152600401610ef390613bf5565b60405180910390fd5b3373ffffffffffffffffffffffffffffffffffffffff168160000160009054906101000a900473ffffffffffffffffffffffffffffffffffffffff1673ffffffffffffffffffffffffffffffffffffffff1614610f8e576040517f08c379a0000000000000000000000000000000000000000000000000000000008152600401610f8590613f2e565b60405180910390fd5b600073ffffffffffffffffffffffffffffffffffffffff168160010160009054906101000a900473ffffffffffffffffffffffffffffffffffffffff1673ffffffffffffffffffffffffffffffffffffffff1614611021576040517f08c379a000000000000000000000000000000000000000000000000000000000815260040161101890613fc0565b60405180910390fd5b60008160030160006101000a81548160ff0219169083151502179055506000600a60003373ffffffffffffffffffffffffffffffffffffffff1673ffffffffffffffffffffffffffffffffffffffff168152602001908152602001600020819055505061108c6129e9565b50565b61109761291c565b816003808111156110ab576110aa613fe0565b5b8160038111156110be576110bd613fe0565b5b11156110ff576040517f08c379a00000000000000000000000000000000000000000000000000000000081526004016110f69061405b565b60405180910390fd5b816002600085600381111561111757611116613fe0565b5b600381111561112957611128613fe0565b5b8152602001908152602001600020600082015181600001556020820151816001015560408201518160020155606082015181600301559050507f502630bc4b5c6b34c665de0764cb7b762ab360bfd5e995fdcaabd60da466c0528383604051611193929190614127565b60405180910390a1505050565b600c5481565b60008060149054906101000a900460ff16905090565b600d5481565b6111ca61291c565b6111d46000612a33565b565b60086020528060005260406000206000915090508060000160009054906101000a900473ffffffffffffffffffffffffffffffffffffffff16908060010160009054906101000a900473ffffffffffffffffffffffffffffffffffffffff16908060020154908060030160009054906101000a900460ff16908060030160019054906101000a900460ff16908060030160029054906101000a900460ff16905086565b61128161291c565b600073ffffffffffffffffffffffffffffffffffffffff168173ffffffffffffffffffffffffffffffffffffffff16036112f0576040517f08c379a00000000000000000000000000000000000000000000000000000000081526004016112e79061419c565b60405180910390fd5b80601060006101000a81548173ffffffffffffffffffffffffffffffffffffffff021916908373ffffffffffffffffffffffffffffffffffffffff1602179055507fda6151fe78926158fc2dace6276b9e22725839220b437eb3110c8e9d5074948e816040516113609190613515565b60405180910390a150565b60115481565b60008060009054906101000a900473ffffffffffffffffffffffffffffffffffffffff16905090565b6006602052816000526040600020602052806000526040600020600091509150505481565b6113c76129f2565b6000600a60003373ffffffffffffffffffffffffffffffffffffffff1673ffffffffffffffffffffffffffffffffffffffff1681526020019081526020016000205414611449576040517f08c379a00000000000000000000000000000000000000000000000000000000081526004016114409061422e565b60405180910390fd5b611454336003612af7565b600c60008154809291906114679061424e565b91905055506040518060c001604052803373ffffffffffffffffffffffffffffffffffffffff168152602001600073ffffffffffffffffffffffffffffffffffffffff168152602001600260006003808111156114c7576114c6613fe0565b5b60038111156114d9576114d8613fe0565b5b81526020019081526020016000206000015481526020016001151581526020016000151581526020016000151581525060086000600c54815260200190815260200160002060008201518160000160006101000a81548173ffffffffffffffffffffffffffffffffffffffff021916908373ffffffffffffffffffffffffffffffffffffffff16021790555060208201518160010160006101000a81548173ffffffffffffffffffffffffffffffffffffffff021916908373ffffffffffffffffffffffffffffffffffffffff1602179055506040820151816002015560608201518160030160006101000a81548160ff02191690831515021790555060808201518160030160016101000a81548160ff02191690831515021790555060a08201518160030160026101000a81548160ff021916908315150217905550905050600c54600a60003373ffffffffffffffffffffffffffffffffffffffff1673ffffffffffffffffffffffffffffffffffffffff168152602001908152602001600020819055507fb40d367405328c6418ecdba8445c8f9f941f13f84387eb94efe52773fc73c5cc600c5433604051611692929190613ced565b60405180910390a1565b6116a461291c565b600081116116e7576040517f08c379a00000000000000000000000000000000000000000000000000000000081526004016116de906142e2565b60405180910390fd5b806011819055507fa3d5fc1f9382a7504bea100dc55a7415ba5c5263d999ef14de3ca037886ac8158160405161171d9190613589565b60405180910390a150565b601060009054906101000a900473ffffffffffffffffffffffffffffffffffffffff1681565b61175661291c565b600073ffffffffffffffffffffffffffffffffffffffff168273ffffffffffffffffffffffffffffffffffffffff16036117c5576040517f08c379a00000000000000000000000000000000000000000000000000000000081526004016117bc9061434e565b60405180910390fd5b80600460008473ffffffffffffffffffffffffffffffffffffffff1673ffffffffffffffffffffffffffffffffffffffff16815260200190815260200160002060006101000a81548160ff0219169083151502179055507faf5689dec9fb059a951122ef5f2e9363fe24220b8e21a048b3e65d590178cc50828260405161184d92919061436e565b60405180910390a15050565b6118616129f2565b6118696129a3565b600560003373ffffffffffffffffffffffffffffffffffffffff1673ffffffffffffffffffffffffffffffffffffffff16815260200190815260200160002060009054906101000a900460ff166118f5576040517f08c379a00000000000000000000000000000000000000000000000000000000081526004016118ec906143e3565b60405180910390fd5b600033878787876040516020016119109594939291906144b4565b604051602081830303815290604052805190602001209050600061193382612fde565b905060006119858286868080601f016020809104026020016040519081016040528093929190818152602001838380828437600081840152601f19601f8201169050808301925050505050505061300e565b9050600460008273ffffffffffffffffffffffffffffffffffffffff1673ffffffffffffffffffffffffffffffffffffffff16815260200190815260200160002060009054906101000a900460ff16611a13576040517f08c379a0000000000000000000000000000000000000000000000000000000008152600401611a0a9061455f565b60405180910390fd5b6000600560003373ffffffffffffffffffffffffffffffffffffffff1673ffffffffffffffffffffffffffffffffffffffff16815260200190815260200160002060006101000a81548160ff0219169083151502179055508815611c875785600360003373ffffffffffffffffffffffffffffffffffffffff1673ffffffffffffffffffffffffffffffffffffffff1681526020019081526020016000206000828254611ac0919061457f565b92505081905550600960003373ffffffffffffffffffffffffffffffffffffffff1673ffffffffffffffffffffffffffffffffffffffff16815260200190815260200160002060009054906101000a900460ff16611bd457600b339080600181540180825580915050600190039060005260206000200160009091909190916101000a81548173ffffffffffffffffffffffffffffffffffffffff021916908373ffffffffffffffffffffffffffffffffffffffff1602179055506001600960003373ffffffffffffffffffffffffffffffffffffffff1673ffffffffffffffffffffffffffffffffffffffff16815260200190815260200160002060006101000a81548160ff0219169083151502179055505b6000611be0898861303a565b905080471015611c25576040517f08c379a0000000000000000000000000000000000000000000000000000000008152600401611c1c906145ff565b60405180910390fd5b80600d6000828254611c379190613b75565b925050819055503373ffffffffffffffffffffffffffffffffffffffff166108fc829081150290604051600060405180830381858888f19350505050158015611c84573d6000803e3d6000fd5b50505b3373ffffffffffffffffffffffffffffffffffffffff167f966ee981edf070e0517694d572d64ec2008a5d8fdb20947494cb121175d1318160018b8c611cce576000611cd0565b895b604051611cdf9392919061461f565b60405180910390a2505050611cf26129e9565b505050505050565b6000600b80549050905090565b611d0f6129f2565b611d176129a3565b60006008600086815260200190815260200160002090508060030160009054906101000a900460ff1615611d80576040517f08c379a0000000000000000000000000000000000000000000000000000000008152600401611d77906146a2565b60405180910390fd5b8060030160019054906101000a900460ff168015611dac57508060030160029054906101000a900460ff165b611deb576040517f08c379a0000000000000000000000000000000000000000000000000000000008152600401611de29061470e565b60405180910390fd5b8060000160009054906101000a900473ffffffffffffffffffffffffffffffffffffffff1673ffffffffffffffffffffffffffffffffffffffff168473ffffffffffffffffffffffffffffffffffffffff161480611e9857508060010160009054906101000a900473ffffffffffffffffffffffffffffffffffffffff1673ffffffffffffffffffffffffffffffffffffffff168473ffffffffffffffffffffffffffffffffffffffff16145b611ed7576040517f08c379a0000000000000000000000000000000000000000000000000000000008152600401611ece9061477a565b60405180910390fd5b60008585604051602001611eec92919061479a565b6040516020818303038152906040528051906020012090506000611f0f82612fde565b90506000611f618287878080601f016020809104026020016040519081016040528093929190818152602001838380828437600081840152601f19601f8201169050808301925050505050505061300e565b9050600460008273ffffffffffffffffffffffffffffffffffffffff1673ffffffffffffffffffffffffffffffffffffffff16815260200190815260200160002060009054906101000a900460ff16611fef576040517f08c379a0000000000000000000000000000000000000000000000000000000008152600401611fe69061434e565b60405180910390fd5b60006002600060038081111561200857612007613fe0565b5b600381111561201a57612019613fe0565b5b815260200190815260200160002060030154905080471015612071576040517f08c379a000000000000000000000000000000000000000000000000000000000815260040161206890614812565b60405180910390fd5b600a600360008a73ffffffffffffffffffffffffffffffffffffffff1673ffffffffffffffffffffffffffffffffffffffff16815260200190815260200160002060008282546120c1919061457f565b92505081905550600960008973ffffffffffffffffffffffffffffffffffffffff1673ffffffffffffffffffffffffffffffffffffffff16815260200190815260200160002060009054906101000a900460ff166121d557600b889080600181540180825580915050600190039060005260206000200160009091909190916101000a81548173ffffffffffffffffffffffffffffffffffffffff021916908373ffffffffffffffffffffffffffffffffffffffff1602179055506001600960008a73ffffffffffffffffffffffffffffffffffffffff1673ffffffffffffffffffffffffffffffffffffffff16815260200190815260200160002060006101000a81548160ff0219169083151502179055505b8773ffffffffffffffffffffffffffffffffffffffff166108fc829081150290604051600060405180830381858888f1935050505015801561221b573d6000803e3d6000fd5b507f6630bd61eea1cfcea35f6bc168121b2fdf1f07a9bc3d83c6696fe059cd40324a89898360405161224f93929190614832565b60405180910390a150505050506122646129e9565b50505050565b600e60009054906101000a900473ffffffffffffffffffffffffffffffffffffffff1681565b600a6020528060005260406000206000915090505481565b60056020528060005260406000206000915054906101000a900460ff1681565b6122d06129f2565b6122d86129a3565b806003808111156122ec576122eb613fe0565b5b8160038111156122ff576122fe613fe0565b5b1115612340576040517f08c379a00000000000000000000000000000000000000000000000000000000081526004016123379061405b565b60405180910390fd5b600560003373ffffffffffffffffffffffffffffffffffffffff1673ffffffffffffffffffffffffffffffffffffffff16815260200190815260200160002060009054906101000a900460ff16156123cd576040517f08c379a00000000000000000000000000000000000000000000000000000000081526004016123c4906148b5565b60405180910390fd5b6000600260008460038111156123e6576123e5613fe0565b5b60038111156123f8576123f7613fe0565b5b8152602001908152602001600020604051806080016040529081600082015481526020016001820154815260200160028201548152602001600382015481525050905080600001513414612481576040517f08c379a000000000000000000000000000000000000000000000000000000000815260040161247890614921565b60405180910390fd5b34600d6000828254612493919061457f565b925050819055506001600560003373ffffffffffffffffffffffffffffffffffffffff1673ffffffffffffffffffffffffffffffffffffffff16815260200190815260200160002060006101000a81548160ff0219169083151502179055506124fc3384612af7565b50506125066129e9565b50565b61251161291c565b600073ffffffffffffffffffffffffffffffffffffffff168173ffffffffffffffffffffffffffffffffffffffff16036125835760006040517f1e4fbdf700000000000000000000000000000000000000000000000000000000815260040161257a9190613515565b60405180910390fd5b61258c81612a33565b50565b60076020528060005260406000206000915090505481565b600f5481565b60046020528060005260406000206000915054906101000a900460ff1681565b6125d56129f2565b6125dd6129a3565b60006008600083815260200190815260200160002090508060000160009054906101000a900473ffffffffffffffffffffffffffffffffffffffff1673ffffffffffffffffffffffffffffffffffffffff163373ffffffffffffffffffffffffffffffffffffffff1614612686576040517f08c379a000000000000000000000000000000000000000000000000000000000815260040161267d9061498d565b60405180910390fd5b600073ffffffffffffffffffffffffffffffffffffffff168160010160009054906101000a900473ffffffffffffffffffffffffffffffffffffffff1673ffffffffffffffffffffffffffffffffffffffff1603612719576040517f08c379a0000000000000000000000000000000000000000000000000000000008152600401612710906149f9565b60405180910390fd5b8060030160019054906101000a900460ff161561276b576040517f08c379a000000000000000000000000000000000000000000000000000000000815260040161276290614a65565b60405180910390fd5b806002015434146127b1576040517f08c379a00000000000000000000000000000000000000000000000000000000081526004016127a890613ccd565b60405180910390fd5b60018160030160016101000a81548160ff02191690831515021790555060008160030160006101000a81548160ff021916908315150217905550600281600201546127fc9190614a85565b600d600082825461280d919061457f565b925050819055505061281d6129e9565b50565b61282861291c565b600073ffffffffffffffffffffffffffffffffffffffff168273ffffffffffffffffffffffffffffffffffffffff1603612897576040517f08c379a000000000000000000000000000000000000000000000000000000000815260040161288e90614b13565b60405180910390fd5b81600e60006101000a81548173ffffffffffffffffffffffffffffffffffffffff021916908373ffffffffffffffffffffffffffffffffffffffff16021790555080600f819055507f824088ffe0a10a78ad47507b6070636658e8c3ef65958d8dc75982f3a146e3348282604051612910929190614b33565b60405180910390a15050565b61292461307d565b73ffffffffffffffffffffffffffffffffffffffff16612942611371565b73ffffffffffffffffffffffffffffffffffffffff16146129a15761296561307d565b6040517f118cdaa70000000000000000000000000000000000000000000000000000000081526004016129989190613515565b60405180910390fd5b565b6002600154036129df576040517f3ee5aeb500000000000000000000000000000000000000000000000000000000815260040160405180910390fd5b6002600181905550565b60018081905550565b6129fa6111a6565b15612a31576040517fd93c066500000000000000000000000000000000000000000000000000000000815260040160405180910390fd5b565b60008060009054906101000a900473ffffffffffffffffffffffffffffffffffffffff169050816000806101000a81548173ffffffffffffffffffffffffffffffffffffffff021916908373ffffffffffffffffffffffffffffffffffffffff1602179055508173ffffffffffffffffffffffffffffffffffffffff168173ffffffffffffffffffffffffffffffffffffffff167f8be0079c531659141344cd1fd0a4f28419497f9722a3daafe3b4186f6b6457e060405160405180910390a35050565b60006201518042612b089190614b8b565b905080600760008573ffffffffffffffffffffffffffffffffffffffff1673ffffffffffffffffffffffffffffffffffffffff168152602001908152602001600020541015612d80576000600660008573ffffffffffffffffffffffffffffffffffffffff1673ffffffffffffffffffffffffffffffffffffffff1681526020019081526020016000206000806003811115612ba757612ba6613fe0565b5b6003811115612bb957612bb8613fe0565b5b8152602001908152602001600020819055506000600660008573ffffffffffffffffffffffffffffffffffffffff1673ffffffffffffffffffffffffffffffffffffffff168152602001908152602001600020600060016003811115612c2257612c21613fe0565b5b6003811115612c3457612c33613fe0565b5b8152602001908152602001600020819055506000600660008573ffffffffffffffffffffffffffffffffffffffff1673ffffffffffffffffffffffffffffffffffffffff168152602001908152602001600020600060026003811115612c9d57612c9c613fe0565b5b6003811115612caf57612cae613fe0565b5b8152602001908152602001600020819055506000600660008573ffffffffffffffffffffffffffffffffffffffff1673ffffffffffffffffffffffffffffffffffffffff1681526020019081526020016000206000600380811115612d1757612d16613fe0565b5b6003811115612d2957612d28613fe0565b5b81526020019081526020016000208190555080600760008573ffffffffffffffffffffffffffffffffffffffff1673ffffffffffffffffffffffffffffffffffffffff168152602001908152602001600020819055505b600060059050600073ffffffffffffffffffffffffffffffffffffffff16600e60009054906101000a900473ffffffffffffffffffffffffffffffffffffffff1673ffffffffffffffffffffffffffffffffffffffff1614158015612e8057506000600e60009054906101000a900473ffffffffffffffffffffffffffffffffffffffff1673ffffffffffffffffffffffffffffffffffffffff166370a08231866040518263ffffffff1660e01b8152600401612e3d9190613515565b602060405180830381865afa158015612e5a573d6000803e3d6000fd5b505050506040513d601f19601f82011682018060405250810190612e7e9190614bd1565b115b15612e9657600f5481612e93919061457f565b90505b80600660008673ffffffffffffffffffffffffffffffffffffffff1673ffffffffffffffffffffffffffffffffffffffff1681526020019081526020016000206000856003811115612eeb57612eea613fe0565b5b6003811115612efd57612efc613fe0565b5b81526020019081526020016000205410612f4c576040517f08c379a0000000000000000000000000000000000000000000000000000000008152600401612f4390614c4a565b60405180910390fd5b6001600660008673ffffffffffffffffffffffffffffffffffffffff1673ffffffffffffffffffffffffffffffffffffffff1681526020019081526020016000206000856003811115612fa257612fa1613fe0565b5b6003811115612fb457612fb3613fe0565b5b81526020019081526020016000206000828254612fd1919061457f565b9250508190555050505050565b600081604051602001612ff19190614cec565b604051602081830303815290604052805190602001209050919050565b60008060008061301e8686613085565b92509250925061302e82826130e1565b82935050505092915050565b6000600c83111561305457666a94d74f4300009050613077565b600883111561306c5766354a6ba7a180009050613077565b6611c37937e0800090505b92915050565b600033905090565b600080600060418451036130ca5760008060006020870151925060408701519150606087015160001a90506130bc88828585613245565b9550955095505050506130da565b60006002855160001b9250925092505b9250925092565b600060038111156130f5576130f4613fe0565b5b82600381111561310857613107613fe0565b5b0315613241576001600381111561312257613121613fe0565b5b82600381111561313557613134613fe0565b5b0361316c576040517ff645eedf00000000000000000000000000000000000000000000000000000000815260040160405180910390fd5b600260038111156131805761317f613fe0565b5b82600381111561319357613192613fe0565b5b036131d8578060001c6040517ffce698f70000000000000000000000000000000000000000000000000000000081526004016131cf9190613589565b60405180910390fd5b6003808111156131eb576131ea613fe0565b5b8260038111156131fe576131fd613fe0565b5b0361324057806040517fd78bce0c0000000000000000000000000000000000000000000000000000000081526004016132379190614d21565b60405180910390fd5b5b5050565b60008060007f7fffffffffffffffffffffffffffffff5d576e7357a4501ddfe92f46681b20a08460001c111561328557600060038592509250925061332f565b6000600188888888604051600081526020016040526040516132aa9493929190614d58565b6020604051602081039080840390855afa1580156132cc573d6000803e3d6000fd5b505050602060405103519050600073ffffffffffffffffffffffffffffffffffffffff168173ffffffffffffffffffffffffffffffffffffffff160361332057600060016000801b9350935093505061332f565b8060008060001b935093509350505b9450945094915050565b6000604051905090565b600080fd5b600080fd5b600073ffffffffffffffffffffffffffffffffffffffff82169050919050565b60006133788261334d565b9050919050565b6133888161336d565b811461339357600080fd5b50565b6000813590506133a58161337f565b92915050565b6000819050919050565b6133be816133ab565b81146133c957600080fd5b50565b6000813590506133db816133b5565b92915050565b600080604083850312156133f8576133f7613343565b5b600061340685828601613396565b9250506020613417858286016133cc565b9150509250929050565b6004811061342e57600080fd5b50565b60008135905061344081613421565b92915050565b60006020828403121561345c5761345b613343565b5b600061346a84828501613431565b91505092915050565b61347c816133ab565b82525050565b60006080820190506134976000830187613473565b6134a46020830186613473565b6134b16040830185613473565b6134be6060830184613473565b95945050505050565b6000602082840312156134dd576134dc613343565b5b60006134eb848285016133cc565b91505092915050565b60006134ff8261334d565b9050919050565b61350f816134f4565b82525050565b600060208201905061352a6000830184613506565b92915050565b613539816134f4565b811461354457600080fd5b50565b60008135905061355681613530565b92915050565b60006020828403121561357257613571613343565b5b600061358084828501613547565b91505092915050565b600060208201905061359e6000830184613473565b92915050565b600080fd5b6000601f19601f8301169050919050565b7f4e487b7100000000000000000000000000000000000000000000000000000000600052604160045260246000fd5b6135f2826135a9565b810181811067ffffffffffffffff82111715613611576136106135ba565b5b80604052505050565b6000613624613339565b905061363082826135e9565b919050565b60006080828403121561364b5761364a6135a4565b5b613655608061361a565b90506000613665848285016133cc565b6000830152506020613679848285016133cc565b602083015250604061368d848285016133cc565b60408301525060606136a1848285016133cc565b60608301525092915050565b60008060a083850312156136c4576136c3613343565b5b60006136d285828601613431565b92505060206136e385828601613635565b9150509250929050565b60008115159050919050565b613702816136ed565b82525050565b600060208201905061371d60008301846136f9565b92915050565b600060c0820190506137386000830189613506565b6137456020830188613506565b6137526040830187613473565b61375f60608301866136f9565b61376c60808301856136f9565b61377960a08301846136f9565b979650505050505050565b6000806040838503121561379b5761379a613343565b5b60006137a985828601613547565b92505060206137ba85828601613431565b9150509250929050565b6137cd816136ed565b81146137d857600080fd5b50565b6000813590506137ea816137c4565b92915050565b6000806040838503121561380757613806613343565b5b600061381585828601613547565b9250506020613826858286016137db565b9150509250929050565b600080fd5b600080fd5b600080fd5b60008083601f84011261385557613854613830565b5b8235905067ffffffffffffffff81111561387257613871613835565b5b60208301915083600182028301111561388e5761388d61383a565b5b9250929050565b60008060008060008060a087890312156138b2576138b1613343565b5b60006138c089828a016137db565b96505060206138d189828a016133cc565b95505060406138e289828a016133cc565b94505060606138f389828a016133cc565b935050608087013567ffffffffffffffff81111561391457613913613348565b5b61392089828a0161383f565b92509250509295509295509295565b6000806000806060858703121561394957613948613343565b5b6000613957878288016133cc565b945050602061396887828801613547565b935050604085013567ffffffffffffffff81111561398957613988613348565b5b6139958782880161383f565b925092505092959194509250565b6000819050919050565b60006139c86139c36139be8461334d565b6139a3565b61334d565b9050919050565b60006139da826139ad565b9050919050565b60006139ec826139cf565b9050919050565b6139fc816139e1565b82525050565b6000602082019050613a1760008301846139f3565b92915050565b60008060408385031215613a3457613a33613343565b5b6000613a4285828601613547565b9250506020613a53858286016133cc565b9150509250929050565b600082825260208201905092915050565b7f496e76616c696420726563697069656e74000000000000000000000000000000600082015250565b6000613aa4601183613a5d565b9150613aaf82613a6e565b602082019050919050565b60006020820190508181036000830152613ad381613a97565b9050919050565b7f45786365656473206c697175696469747920706f6f6c00000000000000000000600082015250565b6000613b10601683613a5d565b9150613b1b82613ada565b602082019050919050565b60006020820190508181036000830152613b3f81613b03565b9050919050565b7f4e487b7100000000000000000000000000000000000000000000000000000000600052601160045260246000fd5b6000613b80826133ab565b9150613b8b836133ab565b9250828203905081811115613ba357613ba2613b46565b5b92915050565b7f4d61746368206e6f742061637469766500000000000000000000000000000000600082015250565b6000613bdf601083613a5d565b9150613bea82613ba9565b602082019050919050565b60006020820190508181036000830152613c0e81613bd2565b9050919050565b7f416c7265616479206a6f696e6564000000000000000000000000000000000000600082015250565b6000613c4b600e83613a5d565b9150613c5682613c15565b602082019050919050565b60006020820190508181036000830152613c7a81613c3e565b9050919050565b7f496e636f72726563742066656500000000000000000000000000000000000000600082015250565b6000613cb7600d83613a5d565b9150613cc282613c81565b602082019050919050565b60006020820190508181036000830152613ce681613caa565b9050919050565b6000604082019050613d026000830185613473565b613d0f6020830184613506565b9392505050565b7f4d696e7420636f6e7472616374206e6f74207365740000000000000000000000600082015250565b6000613d4c601583613a5d565b9150613d5782613d16565b602082019050919050565b60006020820190508181036000830152613d7b81613d3f565b9050919050565b7f496e636f7272656374207061796d656e74000000000000000000000000000000600082015250565b6000613db8601183613a5d565b9150613dc382613d82565b602082019050919050565b60006020820190508181036000830152613de781613dab565b9050919050565b600081519050919050565b600081905092915050565b60005b83811015613e22578082015181840152602081019050613e07565b60008484015250505050565b6000613e3982613dee565b613e438185613df9565b9350613e53818560208601613e04565b80840191505092915050565b6000613e6b8284613e2e565b915081905092915050565b7f4d696e74206661696c6564000000000000000000000000000000000000000000600082015250565b6000613eac600b83613a5d565b9150613eb782613e76565b602082019050919050565b60006020820190508181036000830152613edb81613e9f565b9050919050565b7f4f6e6c792063726561746f722063616e2063616e63656c000000000000000000600082015250565b6000613f18601783613a5d565b9150613f2382613ee2565b602082019050919050565b60006020820190508181036000830152613f4781613f0b565b9050919050565b7f43616e6e6f742063616e63656c206166746572206f70706f6e656e74206a6f6960008201527f6e65640000000000000000000000000000000000000000000000000000000000602082015250565b6000613faa602383613a5d565b9150613fb582613f4e565b604082019050919050565b60006020820190508181036000830152613fd981613f9d565b9050919050565b7f4e487b7100000000000000000000000000000000000000000000000000000000600052602160045260246000fd5b7f496e76616c69642067616d65206d6f6465000000000000000000000000000000600082015250565b6000614045601183613a5d565b91506140508261400f565b602082019050919050565b6000602082019050818103600083015261407481614038565b9050919050565b6004811061408c5761408b613fe0565b5b50565b600081905061409d8261407b565b919050565b60006140ad8261408f565b9050919050565b6140bd816140a2565b82525050565b6140cc816133ab565b82525050565b6080820160008201516140e860008501826140c3565b5060208201516140fb60208501826140c3565b50604082015161410e60408501826140c3565b50606082015161412160608501826140c3565b50505050565b600060a08201905061413c60008301856140b4565b61414960208301846140d2565b9392505050565b7f496e76616c6964206d696e742061646472657373000000000000000000000000600082015250565b6000614186601483613a5d565b915061419182614150565b602082019050919050565b600060208201905081810360008301526141b581614179565b9050919050565b7f596f7520616c7265616479206861766520616e206f70656e20507650206d617460008201527f6368000000000000000000000000000000000000000000000000000000000000602082015250565b6000614218602283613a5d565b9150614223826141bc565b604082019050919050565b600060208201905081810360008301526142478161420b565b9050919050565b6000614259826133ab565b91507fffffffffffffffffffffffffffffffffffffffffffffffffffffffffffffffff820361428b5761428a613b46565b5b600182019050919050565b7f5072696365206d757374206265203e2030000000000000000000000000000000600082015250565b60006142cc601183613a5d565b91506142d782614296565b602082019050919050565b600060208201905081810360008301526142fb816142bf565b9050919050565b7f496e76616c6964207369676e6572000000000000000000000000000000000000600082015250565b6000614338600e83613a5d565b915061434382614302565b602082019050919050565b600060208201905081810360008301526143678161432b565b9050919050565b60006040820190506143836000830185613506565b61439060208301846136f9565b9392505050565b7f4e6f7420696e2067616d65000000000000000000000000000000000000000000600082015250565b60006143cd600b83613a5d565b91506143d882614397565b602082019050919050565b600060208201905081810360008301526143fc816143c0565b9050919050565b60008160601b9050919050565b600061441b82614403565b9050919050565b600061442d82614410565b9050919050565b614445614440826134f4565b614422565b82525050565b60008160f81b9050919050565b60006144638261444b565b9050919050565b600061447582614458565b9050919050565b61448d614488826136ed565b61446a565b82525050565b6000819050919050565b6144ae6144a9826133ab565b614493565b82525050565b60006144c08288614434565b6014820191506144d0828761447c565b6001820191506144e0828661449d565b6020820191506144f0828561449d565b602082019150614500828461449d565b6020820191508190509695505050505050565b7f496e76616c6964207369676e6174757265000000000000000000000000000000600082015250565b6000614549601183613a5d565b915061455482614513565b602082019050919050565b600060208201905081810360008301526145788161453c565b9050919050565b600061458a826133ab565b9150614595836133ab565b92508282019050808211156145ad576145ac613b46565b5b92915050565b7f496e73756666696369656e742062616c616e6365000000000000000000000000600082015250565b60006145e9601483613a5d565b91506145f4826145b3565b602082019050919050565b60006020820190508181036000830152614618816145dc565b9050919050565b600060608201905061463460008301866140b4565b61464160208301856136f9565b61464e6040830184613473565b949350505050565b7f4d61746368206e6f742072656164790000000000000000000000000000000000600082015250565b600061468c600f83613a5d565b915061469782614656565b602082019050919050565b600060208201905081810360008301526146bb8161467f565b9050919050565b7f426f746820706c6179657273206d757374207061790000000000000000000000600082015250565b60006146f8601583613a5d565b9150614703826146c2565b602082019050919050565b60006020820190508181036000830152614727816146eb565b9050919050565b7f496e76616c69642077696e6e6572000000000000000000000000000000000000600082015250565b6000614764600e83613a5d565b915061476f8261472e565b602082019050919050565b6000602082019050818103600083015261479381614757565b9050919050565b60006147a6828561449d565b6020820191506147b68284614434565b6014820191508190509392505050565b7f496e73756666696369656e7420636f6e74726163742062616c616e6365000000600082015250565b60006147fc601d83613a5d565b9150614807826147c6565b602082019050919050565b6000602082019050818103600083015261482b816147ef565b9050919050565b60006060820190506148476000830186613473565b6148546020830185613506565b6148616040830184613473565b949350505050565b7f416c726561647920696e20612067616d65000000000000000000000000000000600082015250565b600061489f601183613a5d565b91506148aa82614869565b602082019050919050565b600060208201905081810360008301526148ce81614892565b9050919050565b7f496e636f727265637420656e7472792066656500000000000000000000000000600082015250565b600061490b601383613a5d565b9150614916826148d5565b602082019050919050565b6000602082019050818103600083015261493a816148fe565b9050919050565b7f4f6e6c7920706c61796572312063616e20636f6e6669726d0000000000000000600082015250565b6000614977601883613a5d565b915061498282614941565b602082019050919050565b600060208201905081810360008301526149a68161496a565b9050919050565b7f4e6f206f70706f6e656e74207965740000000000000000000000000000000000600082015250565b60006149e3600f83613a5d565b91506149ee826149ad565b602082019050919050565b60006020820190508181036000830152614a12816149d6565b9050919050565b7f416c726561647920706169640000000000000000000000000000000000000000600082015250565b6000614a4f600c83613a5d565b9150614a5a82614a19565b602082019050919050565b60006020820190508181036000830152614a7e81614a42565b9050919050565b6000614a90826133ab565b9150614a9b836133ab565b9250828202614aa9816133ab565b91508282048414831517614ac057614abf613b46565b5b5092915050565b7f496e76616c6964204e4654206164647265737300000000000000000000000000600082015250565b6000614afd601383613a5d565b9150614b0882614ac7565b602082019050919050565b60006020820190508181036000830152614b2c81614af0565b9050919050565b6000604082019050614b486000830185613506565b614b556020830184613473565b9392505050565b7f4e487b7100000000000000000000000000000000000000000000000000000000600052601260045260246000fd5b6000614b96826133ab565b9150614ba1836133ab565b925082614bb157614bb0614b5c565b5b828204905092915050565b600081519050614bcb816133b5565b92915050565b600060208284031215614be757614be6613343565b5b6000614bf584828501614bbc565b91505092915050565b7f4461696c7920706c6179206c696d697420726561636865640000000000000000600082015250565b6000614c34601883613a5d565b9150614c3f82614bfe565b602082019050919050565b60006020820190508181036000830152614c6381614c27565b9050919050565b600081905092915050565b7f19457468657265756d205369676e6564204d6573736167653a0a333200000000600082015250565b6000614cab601c83614c6a565b9150614cb682614c75565b601c82019050919050565b6000819050919050565b6000819050919050565b614ce6614ce182614cc1565b614ccb565b82525050565b6000614cf782614c9e565b9150614d038284614cd5565b60208201915081905092915050565b614d1b81614cc1565b82525050565b6000602082019050614d366000830184614d12565b92915050565b600060ff82169050919050565b614d5281614d3c565b82525050565b6000608082019050614d6d6000830187614d12565b614d7a6020830186614d49565b614d876040830185614d12565b614d946060830184614d12565b9594505050505056fea26469706673582212205d9639adf1b933846249a53a3762fe3185726abdeea1a5a68d1d1fc7e811952764736f6c634300081c0033",
  "linkReferences": {},
  "deployedLinkReferences": {}
}